:02000002B0004C
:1040000000400B00D46D0B00000006000C00050200
:084010000401A30F00000000F1
:04401800C06A0B006F
:1040200009480A49884208B505D0094A824202D0A7
:10403000121A02F065FC0748074A0021121A02F022
:104040006DFC014808BD00BF34E60320406D0B0045
:10405000A0E60320A0E60320EDE7032070B5074E9D
:10406000074C01F0A7FCA41BA4080025AC4200D11A
:1040700070BD56F8043B98470135F7E7E86C0B0034
:104080000C6D0B0000F028B808B500F03DF8BDE855
:10409000084001F047BC00F06DBC00F06BBC00F0C4
:1040A00071BC0078B0FA80F04009704701230370BA
:1040B0007047000008B59FED060A0648B6EE001AE4
:1040C000F7EE000A002100F0D7F9012008BD00BF7B
:1040D00000000000B0E6032008B50021132001F025
:1040E000D9FC074800F02DF99FED061A0448BDE8F9
:1040F0000840F0EE410AB0EE410A002100F0BCB9E0
:10410000B0E603200000000030B5132089B001F0B4
:10411000EBFC01F0D3FE9FED243B9FED254BB0EE71
:10412000431AF0EE631A9FED242B41EC100B00F0C4
:1041300059FC234D062104A885ED000B01F059FA26
:10414000204B049A1B788DF800301F493C2302A8AD
:1041500000F00AFE039C7CB16368013B63605BB9BD
:10416000236820469B689847A368013BA3601BB95E
:1041700023682046DB68984704A801F0C9F9D5E90F
:104180000001124B002202F093F948B1104904A833
:1041900001F009FA04A8FFF78DFF04A801F0B8F9AF
:1041A00009B030BDAFF30080000000000000000047
:1041B00000000000000059400000000000FEAF4079
:1041C000A8E60320A0E60320D46A0B0000004940C3
:1041D000E46C0B00034A0448012313700F210E22E4
:1041E00000F004B8A0E60320B0E6032010B50446B2
:1041F000017042708370012103EB430002F078FBF1
:104200006060204610BD10B500210446007801F022
:1042100052FC142000F002FA2078012101F04BFC3E
:10422000BDE81040142000F0F9B970B506460C4600
:10423000082523064CBF01210021707801F03BFCCA
:10424000013D3046FFF7DFFF640015F0FF05E4B2E3
:10425000EFD170BD73B513F0800F1E460C461546A6
:1042600014BFC021E021730658BF41F010012A0697
:1042700058BF41F008016B0658BF41F00401220607
:1042800058BF41F00201630658BF41F0010101909F
:10429000FFF7CBFF01983146FFF7C7FF019829468A
:1042A000FFF7C3FF0198214602B0BDE87040FFF759
:1042B000BCBF2DE9F04704460F46002190469946C1
:1042C0009DF820A0FFF7B1FF00212046FFF7ADFFCA
:1042D00000212046FFF7A9FF00212046FFF7A5FF98
:1042E0000026A378F5B2AB4219D905EB4500AF42E1
:1042F00000F1010200F1020308D1616801F80080B9
:10430000616801F80290616801F803A06168CB5C04
:104310008A5C095C2046FFF79DFF0136E1E72046F5
:104320000021FFF782FF20460021FFF77EFF204695
:104330000021FFF77AFF20460021BDE8F047FFF794
:1043400074BF73B504460121007801F0A3FB6078C7
:10435000012101F09FFB00252E46A378E9B28B4294
:1043600007D9002300961A462046FFF7A2FF013521
:10437000F3E702B070BD0000F8B5B5EEC01AF7EE75
:10438000007AF1EE10FA2DED048BF0EE418A48BF71
:1043900071EE278AB0EE409AF4EEE78AF1EE10FA59
:1043A000C8BF78EEE78AB0EE608A18EE900A01F096
:1043B00097FD2EA3D3E9002304460D4602F05AF8D8
:1043C00010B378EE497A17EE900A01F089FD264B7A
:1043D000002201F0DDFD22462B4601F0D9FD044606
:1043E00019EE100A0D4601F07BFD02460B462046F1
:1043F000294601F017FC02F085F808EE100AB0EE2D
:10440000480ABDEC048BF8BDF6EE007AF4EEE78ABC
:10441000F1EE10FAF3D412A3D3E900232046294683
:1044200002F028F8B8B178EE497A17EE900A01F058
:1044300057FD224606460F462B4609A1D1E9000149
:1044400001F0EEFB02460B463046394601F0A0FD76
:10445000054B0022C1E7B0EE498AD0E7AFF30080F8
:10446000555555555555E53F00001840555555557E
:104470005555C53F000000002DE9F0432DED048B9C
:10448000F5EE400AF1EE10FA83B080468946F0EE70
:10449000409AB0EE609AB0EE418A00F09D8011EE35
:1044A000100A01F01DFDF6EE007AB4EEE78AF1EE97
:1044B00010FA06460F4640F18A8019EE100A01F004
:1044C0000FFD4D4B002201F0ADFB32463B4601F0A3
:1044D0005FFD02F017F808EE900A19EE900A01F05D
:1044E000FFFC324604463B460D463046394601F055
:1044F00099FB064618EE900A0F4601F0F1FC0246C1
:104500000B463046394601F08BFB01F0FBFF36A32A
:10451000D3E9002309EE100A2946204601F082FB68
:1045200001F0F0FFF0EE680A01EE100AB0EE490A61
:10453000FFF722FFB0EE691AF0EE680AB0EE408A8B
:10454000B0EE490AFFF718FF27A3D3E9002320465E
:10455000294610EE106A01F063FB01F0D3FFF0EE84
:10456000680A01EE100AB0EE490AFFF705FF10EEE7
:10457000104A304601F0B4FC1DA3D3E9002301F03A
:1045800007FD01F09FFFC6B218EE100A01F0A8FC6B
:1045900017A3D3E9002301F0FBFC01F093FFC5B2A0
:1045A000204601F09DFC12A3D3E9002301F0F0FCAA
:1045B00001F088FFC0B2009033462A464946404683
:1045C000FFF777FE03B0BDEC048BBDE8F08379EE16
:1045D000088AE9EE488A80E711EE104A11EE106A67
:1045E000C7E700BFAFF30080555555555555D53F2A
:1045F0000000000000E06F400000F03F08B5024BF3
:104600001B685B6C019308BD4802030008B5024BB0
:104610001B685B68019308BD1802030008B5024BD4
:104620001B68DB68019308BD1802030008B5024B44
:104630001B685B69019308BD1802030008B5024BB3
:104640001B685B68019308BD2C02030008B5024B90
:104650001B689B68019308BD2C02030008B5024B40
:104660001B68DB68019308BD2C02030008B5024BF0
:104670001B681B69019308BD2C02030008B5024B9F
:104680001B681B6B019308BD2C02030008B5024B8D
:104690001B681B6A019308BD2802030008B5024B82
:1046A0001B685B6A019308BD2802030008B5024B32
:1046B0001B689B6A019308BD2802030008B5024BE2
:1046C0001B68DB6A019308BD2802030008B5024B92
:1046D0001B681B6B019308BD2802030008B5024B41
:1046E0001B685B6B019308BD2802030008B5024BF1
:1046F0001B681B6C019308BD2802030008B5024B20
:104700001B685B69019308BD6402030008B5024B96
:104710001B689B68019308BD6802030008B5024B43
:104720001B68DB68019308BD6802030008B5024BF3
:104730001B68DB69019308BD3002030008B5024B1A
:104740001B681B6A019308BD3002030008B5024BC9
:104750001B68DB68019308BD3C02030008B5024BEF
:104760001B681B69019308BD3C02030008B5024B9E
:104770001B685B69019308BD3C02030008B5024B4E
:104780001B689B69019308BD3C02030008B5024BFE
:104790001B68DB69019308BD3C02030008B5024BAE
:1047A0001B681B6A019308BD3C02030008B5024B5D
:1047B0001B689B6A019308BD3C02030008B5024BCD
:1047C0001B681B6C019308BD3C02030008B5024B3B
:1047D0001B681B68019308BD4C02030008B5024B1F
:1047E0001B681B69019308BD4C02030008B5024B0E
:1047F0001B685B69019308BD4C02030008B5024BBE
:104800001B689B69019308BD4C02030008B5024B6D
:104810001B68DB69019308BD4C02030008B5024B1D
:104820001B681B6A019308BD4C02030008B5024BCC
:104830001B685B68019308BD2002030008B5024BAA
:104840001B68DB6C019308BD2002030008B5024B16
:104850001B685B6D019308BD2002030008B5034B84
:104860001B68D3F88830019308BD000020020300C4
:1048700008B5034B1B68D3F89430019308BD0000C2
:104880002002030008B5024B1B685B69019308BD59
:104890004402030008B5024B1B681B6A019308BD64
:1048A0004402030008B5024B1B68DB6B019308BD93
:1048B0004402030008B5024B1B685B68019308BD06
:1048C0004002030008B5024B1B689B68019308BDBA
:1048D0004002030008B5024B1B68DB68019308BD6A
:1048E0004002030008B5024B1B681B69019308BD19
:1048F0004002030008B5024B1B685B69019308BDC9
:104900004002030008B5024B1B689B69019308BD78
:104910004002030008B5024B1B68DB69019308BD28
:104920004002030008B5024B1B681B6A019308BDD7
:104930004002030008B5024B1B681B6B019308BDC6
:104940004002030008B5024B1B685B6B019308BD76
:104950004002030008B5024B1B681B6C019308BDA5
:104960004002030008B5024B1B685B6C019308BD55
:104970004002030008B5024B1B681B68019308BD89
:104980001C02030008B5024B1B685B68019308BD5D
:104990001C02030008B5024B1B689B68019308BD0D
:1049A0001C02030008B5024B1B68DB6A019308BDBB
:1049B0001C02030008B5024B1B681B6B019308BD6A
:1049C0001C02030008B5024B1B681B6C019308BD59
:1049D0001C02030008B5024B1B685B6C019308BD09
:1049E0001C0203002DE9F04F55EC114B57EC126BF4
:1049F00085B011EE102A12EE100A2B4639468DEDC5
:104A0000020B8DED004B5BEC13AB01F029FD9DED2E
:104A1000020B38BB51EC100B22462B4601F000F97B
:104A20005246804689465B46DDE9000101F0F8F810
:104A300002460B464046494601F0AAFA2246804605
:104A400089462B463046394601F0EAF802460B46C5
:104A50004046494601F0C6FB52465B4601F0E2F88B
:104A600041EC100B05B0BDE8F08F10B5836804462B
:104A70000BB901F0CDF8C3689847A3681BB10322B6
:104A800021462046984720461021BDE81040FFF7F8
:104A900006BB10B58368044613B10322014698474C
:104AA000204610BD10B54368013B0446436063B91E
:104AB00003689B689847A368013BA3602BB92368F0
:104AC0002046DB68BDE81040184710BD10B504460D
:104AD000006808B1FFF7E6FF204610BD13B50B468E
:104AE0000246D0E900016C4684E8030093E8030025
:104AF00082E8030094E8030083E8030002B010BDDD
:104B0000024800230360FFF779BD00BFB8E6032029
:104B100070470020704710B510210446FFF7BFFA18
:104B2000204610BD08B5FFF7F6FF08BD30B50022DE
:104B30004FF69C74026084808D888C800C68858020
:104B400004600A6030BD10B504460068FFF71AFF24
:104B5000204610BD38B5C468F4B12378022B03D1C8
:104B600004F10C00FFF7EFFF656835B12846FFF749
:104B700090FF10212846FFF792FAA56835B1284624
:104B8000FFF787FF10212846FFF789FA20461421F6
:104B9000BDE83840FFF783BA38BD0B6803604B6847
:104BA000436013B15A6801325A60704737B5044602
:104BB00068460D46FFF7F1FF009B019A2360626093
:104BC000002301A801930093FFF780FF35B1281D52
:104BD000FFF77CFF08212846FFF761FA204603B063
:104BE00030BD826810B50AB901F012F8BDE8104076
:104BF000C368184708B5006800F11001FFF7F1FF1E
:104C000008BD826810B50AB901F002F8BDE810408D
:104C1000C368184708B5006800F11001FFF7F1FFFD
:104C200008BD000038B500230446036010200D467F
:104C3000FFF731FA28B10123C0E90133024B0360C9
:104C4000C5602060204638BDF06A0B0038B50023EF
:104C500083608B6804460D462BB102229847EB68AF
:104C6000E360AB68A360204638BD0000F0B589B0B2
:104C700004686846FFF75AFF4FF00203D4E84F2F4D
:104C8000002A03D1C4E8413F0029F7D125D104F11E
:104C90000C0569462846FFF749FFBFF35B8F0123E8
:104CA0006370002004F10803BFF35B8F53E8006FCB
:104CB00043E80002002AF9D1BFF35B8F6EB1FFF722
:104CC000BDFD78B129463046FFF78BFF3046FFF730
:104CD000E0FE10213046FFF7E2F96846FFF733FFA8
:104CE00009B0F0BD314602A8FFF7B0FFE068B4F9A3
:104CF000105008B101F058FE06901020ADF81C507D
:104D0000FFF7C9F90546E8B1002787601820FFF7CB
:104D1000C2F9044688B10146876002A8FFF7DEFEAB
:104D2000049BA268A360059B049206A9E268E36065
:104D300004F110000592FFF7F9FE084BEB60084BF9
:104D40002C60AB6006A8FFF7FEFE02A8FFF7A1FEED
:104D5000002229460348FFF779FDB7E7F54B0B0022
:104D6000794E0B006B4A0B002DE9F04F8BB00546D6
:104D70009DF850A00F4690469946FFF783FD07AE79
:104D8000834638BB4FF62E73059005A93046ADF823
:104D90001830FFF7CBFE1420FFF77DF9044648B129
:104DA000022303700123C0E901BB437031460C307C
:104DB000FFF7BCFE2846214640F8044BFFF732FFC0
:104DC0003046FFF7C0FE05A8FFF7BDFE28460BB032
:104DD000BDE8F08F0C2300241420CDE9084407938C
:104DE000FFF759F9014618B1C0E901440470447055
:104DF00004A80391FFF716FF1E4B08930820FFF746
:104E00004AF9044610B103A9FFF7C7FE00965FFAFE
:104E10008AF34A46414638460994FFF73BFDB8B944
:104E2000039B5B7803F0FF0293B94FF69C7305A9CF
:104E300003A80592ADF81830FFF718FF05A8FFF793
:104E400082FE05A80999FFF7B1FE06A8FFF73EFE0E
:104E500003A905A8FFF7A1FE059B069A2B606A60CF
:104E6000002306A806930593FFF730FE04A8FFF77A
:104E70002DFEABE7F54E0B00012AF8B5054603D130
:104E80000B6803600020F8BD022A10D0032AF9D174
:104E90000468002CF6D004F11000FFF754FE204601
:104EA000FFF7F7FD18212046FFF7F9F8EAE7182089
:104EB0000E68FFF7F0F8044650B13146FFF7C6FE22
:104EC0003069B6F9147008B101F06EFD2061A78257
:104ED0002C60D7E738B5002383608B6804460D4605
:104EE0002BB102229847EB68E360AB68A3602046D1
:104EF00038BD0000F0B589B004460D4601A8114642
:104F0000FFF754FEA4B124B21DB1284601F04CFDB8
:104F1000054601A803A90395ADF81040FFF7A6FECA
:104F200003A8FFF710FE02A8FFF7D0FD09B0F0BDFF
:104F3000019D0123D5E84F2F002A03D1C5E8413F49
:104F40000029F7D1EFD12B73BFF35B8F6B702B1D53
:104F5000BFF35B8F53E8006F43E80042002AF9D1AA
:104F6000BFF35B8F002EDED02046FFF767FC0746BD
:104F700060B105F10C013046FFF743FE3046FFF704
:104F800088FD10213046FFF78AF8CCE7314603A8A8
:104F9000FFF7A0FF2B7B8DF81C301020FFF77BF86C
:104FA0000546D0B187601420FFF775F8044678B144
:104FB0008760014603A8FFF791FD059BA268A360E7
:104FC000069B0592E268E3609DF81C30069223740C
:104FD000064BEB60064B2C60AB6003A8FFF759FD56
:104FE000002229460348FFF731FCC7E7154C0B00A8
:104FF000F94F0B006B4A0B00012A70B5044603D130
:105000000B680360002070BD022A0CD0032AF9D17E
:105010000468002CF6D02046FFF73BFD1421204603
:10502000FFF73DF8EEE714200E68FFF734F8054669
:1050300020B13146FFF74EFF337C2B742560E1E74A
:10504000002240681146FFF76DBC002240681146FF
:10505000FFF778BC40680022FFF76CBC4068002274
:1050600081F00101FFF756BC002340681A4619463B
:10507000FFF748BC002340681A461946FFF73ABCC0
:10508000002240681146FFF72DBC002240681146FF
:10509000FFF718BC406800220221FFF71BBC002369
:1050A00040681A46FFF706BC024B03225A60024AC8
:1050B0001A607047BCE603200C6B0B007047F8B514
:1050C000064615460C468F18BC4206D0336814F8C5
:1050D000011B9B6830469847F6E72846F8BD007CE0
:1050E0000022FFF7D3BA007C0021FFF7D7BA007C7B
:1050F0000021FFF7DBBA007C0021FFF7DFBA007C5C
:105100000021FFF7E3BA10B514210446FEF7C7FFEC
:10511000204610BD10B54FF47A73044608460021AE
:10512000C4E90113034B236020741146FFF7DEFA34
:10513000204610BD486B0B00704710B5182104467F
:10514000FEF7ADFF204610BDF0B5037D062B8DB0F8
:105150000E4600F104074FF0000412D000F10805DC
:1051600015F8011D0A22304600F043F9AF4204440D
:1051700019D0002CF4D02E21304600F037F9044429
:10518000EEE72F236A4639460A208DF80040FFF7E4
:10519000B5FA684601F025FC33680246DB686946CB
:1051A00030469847044620460DB0F0BD10B5054B7B
:1051B0000446112240F8043B002101F0AFFB2046D9
:1051C00010BD00BF706B0B000346074A10B543F8D3
:1051D000042B01F1100251F8044B43F8044B9142A7
:1051E000F9D10A781A7010BD706B0B0010B59DF8DC
:1051F000084044EA032343EA024242EA01610423ED
:105200004160037510BD000007B5064B0360CB7805
:1052100000938B784A780978FFF7E8FF03B05DF8D0
:1052200004FB00BF706B0B00014B024A1A60704711
:10523000C4E603207C6B0B00002340681A46FFF78E
:1052400039BB406800220221FFF744BB00224068BE
:105250001146FFF737BB002240681146FFF742BBFB
:10526000002340681A461946FFF744BB00234068F4
:105270001A461946FFF746BB40680021FFF76ABB94
:1052800040680021FFF76EBB4068002281F00101F9
:10529000FFF740BB40680022FFF74CBB002240688C
:1052A0001146FFF74FBB002240681146FFF73ABB9B
:1052B0002DE9F04395B014460D460746FFF776FFFB
:1052C00000211C220DA8009101F028FB40230C9323
:1052D00020466B460CAA0021FFF720FA044600285E
:1052E0004BD1024601216868FFF7FCFA0221804693
:1052F00022466868FFF7F6FA009E81462146002E96
:105300003BD0002939D17368022B03D00A2B11D06E
:10531000F669F4E7B8F1000FFAD0716906A8043114
:1053200007ADFFF771FF0FCD3C1D0FC42B68237035
:105330004146EDE7B9F1000FEAD07469102201A8E7
:1053400001F0ECFA06238DF8143001AD04F10803E6
:105350001834186859682A4603C20833A342154610
:10536000F7D101A906A807ADFFF72EFF0FCD3C1D11
:105370000FC42B6823704946CAE70098FFF7C6F9A7
:10538000384615B0BDE8F083024B034A1A6000228C
:105390005A607047C8E60320886B0B00F8B50646D4
:1053A0000D468F180024BD420CD0336815F8011B40
:1053B0009B6830469847031E01DB1C44F3E7002C32
:1053C00008BF1C462046F8BD13B50446084659B12F
:1053D000019101F006FB23680199DB680246204633
:1053E00002B0BDE81040184702B010BD03689B68CA
:1053F000184730B58BB00023012A8DF8243098BFB0
:105400000A2209AC0D46B1FBF2F101FB125303F085
:10541000FF03092B94BF30333733DBB2AA4204F8C1
:10542000013DEFD92146FFF7CFFF0BB030BD0000A3
:10543000014B00229A607047D0E6032010B5044665
:1054400008462170FFF772F900236360204610BD03
:105450002DE9F14F57EC106B80460C4610EE100A08
:1054600000220023394601F005F828B107F1004376
:105470001F462D2304F8013B00234FF001090A22A7
:10548000D9B2884503D902FB09F90133F8E7484648
:1054900000F014FD32463B4600F07AFD06460F460A
:1054A00001F098F88A4605468B4600F03BFD02461F
:1054B0000B463046394600F0B3FB144B002200F097
:1054C000EDFF10B101354AF1000B4A462846D317CB
:1054D000594601F067F80123154621460A2200F0DB
:1054E000DAF9B8F1000F0ED0204601F07AFA2E2337
:1054F000211823540A2243460131284601B0BDE851
:10550000F04F00F0C8B901B0BDE8F08F0000E03FF7
:1055100010B504460068FFF735FA204610BD10B5F7
:105520000446006808B1FFF72DFA0023C4E90133EF
:10553000236010BD38B504460D4600680131FFF701
:1055400029FA10B1C4E90005012038BD10B503687F
:10555000044623B143688B4201D3012010BD20468D
:10556000FFF7E8FF0028F9D0A368002BF5D12268E7
:105570001370F2E737B50D46114601920446FFF766
:10558000E5FF019A28B92046FFF7C9FF204603B07E
:1055900030BDA2602946206801F0B2F92268A368F4
:1055A0000021D154F2E7002313B5C0E900330446CB
:1055B0008360037341B10846019101F012FA019929
:1055C00002462046FFF7D6FF204602B010BD13B5B5
:1055D000044659B10846019101F003FA01990246C7
:1055E0002046FFF7C7FF204602B010BDFFF797FF28
:1055F000F9E710B504468AB000230846C4E9003331
:10560000A360237301A9C0B2FFF722FF01A92046BE
:10561000FFF7DDFF20460AB010BD0000054B022257
:105620001A60054B054A9A600020C3E90000FFF7A5
:10563000FDB800BFECE60320E0E603200000FFFF1A
:10564000024B1A68024B1A60704700BF34E6032011
:10565000F0E6032070474174704708B5007CFFF7FF
:10566000A5F820EAE07008BD08B5007CFFF776F8E1
:1056700020EAE07008BD08B5007CFFF77FF840EA3B
:10568000E07008BD08B5007CFFF770F840EAE070F4
:1056900008BD007CFFF77AB837B5457C04462DB1CC
:1056A000207C03B0BDE83040FFF750B8007C01918A
:1056B000FFF77CF800280199F2DC284603B030BDE2
:1056C00010B514210446FEF7EAFC204610BD000088
:1056D00010B54FF47A730446084611460022C4E917
:1056E0000123044B2360012320746374FFF766F8E1
:1056F000204610BDE06B0B00417470477047704747
:1057000008B50021007CFFF779F840EAE07008BD99
:1057100008B50121007CFFF771F840EAE07008BD90
:1057200008B5007CFFF762F820EAE07008BD08B514
:10573000007CFFF753F820EAE07008BD13B504467B
:10574000007C0191FFF752F80028019901DC607C90
:1057500020B1207CFFF75AF820EAE07002B010BDBB
:10576000007CFFF75BB810B514210446FEF797FCE8
:10577000204610BD10B54FF47A7304460846002148
:10578000C4E90113044B23600123207463741146A0
:10579000FFF71CF8204610BD106C0B0010B514224A
:1057A0000446002101F0BAF8204610BD10B50F4C98
:1057B00088B003A8FFF7F2FF2178BFF35B8F11F0E9
:1057C00001010FD120460191FEF76BFC019948B110
:1057D00003AA0748FFF7CEFF2046FEF767FC0548FF
:1057E00001F080F8024808B010BD00BFF4E60320C5
:1057F000F8E60320FD560B00002240681146FFF733
:1058000071B8002240681146FFF78CB8002240684A
:105810001146FFF797B840680022FFF78BB8406841
:10582000002281F00101FFF775B8002340681A4695
:105830001946FFF767B8002340681A461946FFF774
:1058400059B8002240681146FFF73CB84068002272
:105850000221FFF73FB8002340681A46FFF72AB835
:10586000024B04225A60024A1A6070470CE7032078
:10587000406C0B0010B5044601F0B3F80138231852
:105880002046834206D90278197800F8011B03F8F4
:105890000129F6E710BD70B50C46911E22291DD8CE
:1058A000254630B9234430229D4210D205F8012B01
:1058B000FAE7B0FBF2F602FB1600C1B2092894BF6A
:1058C00030315731C9B205F8011B3046E9E70023F2
:1058D00020462B70FFF7CEFF204670BD0020FCE76E
:1058E000014B1860704700BF38E6032008B50B4B2A
:1058F00043B1FFF75BFF03681B699847002801DD90
:10590000AFF30080064B43B100F05CF903681B69FC
:105910009847002801DDAFF3008008BD00000000BB
:105920000000000008B5FFF7E1FFFEF77FFE014B26
:10593000186008BD28E703200548064A064908B54F
:10594000121A00F0DDFF054B054A1A6008BD00BFC2
:1059500000F4032004F403203C6D0B0000F403204A
:105960001E1C279A07B5002300931A466FF0770193
:10597000FEF77EFF03B05DF804FB000007B5438827
:105980000A2B08D0502B0BD1094B1B684BB103B02D
:105990005DF804EB1847FFF7E5FF03B05DF804FB83
:1059A000002300931A466FF07701FEF761FFF4E7DA
:1059B00018E7032010B512480021FFF70BF8114B30
:1059C0001A68114B9A42114B0CBF012200221A7027
:1059D00001D0FFF7B1FFFEF719FE044600F0B6FF55
:1059E0000B4B13B12046AFF3008000210848FEF7AF
:1059F00059FFBDE8104007480021FEF72FBF00BF48
:105A0000E1580B0000F403201E1C279A14E7032022
:105A1000000000007D590B00232813B502D9002097
:105A200002B010BDA0F10B03022B1AD8174C21783D
:105A3000BFF35B8F11F001010BD120460191FEF7FE
:105A400030FB019928B11248FFF7F8FC2046FEF719
:105A50002DFB0F4B1878FEF771FE0028DFD10120D7
:105A6000DEE7012809D800F06DF80021007CFEF780
:105A700035FE80F00100C0B2D2E709380128EED827
:105A800000F0A0F8007CFEF789FEF2E71CE7032097
:105A900020E70320232838B504460D460AD8FF29FD
:105AA00008D0FFF7B9FF28B129462046BDE83840A5
:105AB000FEF7CCBD38BD38B504460D46FEF7CEFD29
:105AC000FF2810D0062804D84D2323FA00F0C3077E
:105AD00009D42046FFF7A0FF28B129462046BDE89B
:105AE0003840FEF7C3BD38BD0D2810B504469CBF35
:105AF0000E34A4B22046FFF78FFF50B10321204699
:105B0000FEF79CFD032804D12046BDE81040FEF7B7
:105B1000B5BD002010BD704738B5202514230446BC
:105B20000360856005610649284600F06FF8044966
:105B30006060284600F06AF8E060204638BD00BF8B
:105B4000746C0B0030B50E4D2978BFF35B8F11F0EC
:105B5000010487B011D12846FEF7A3FA68B101A865
:105B6000FFF7DAFF01AA21460648FFF7D3FA2846D5
:105B7000FEF79CFA044800F0B5FE024807B030BDBD
:105B80002CE7032030E70320175B0B007047000071
:105B900038B5044614252A46002100F0BFFE2580B2
:105BA0004025074925812846258200F02FF8044921
:105BB0006060284600F02AF8E060204638BD00BF4B
:105BC000746C0B0030B50E4D2978BFF35B8F11F06C
:105BD000010487B011D12846FEF763FA68B101A825
:105BE000FFF7D6FF01AA21460648FFF771FD2846B8
:105BF000FEF75CFA044800F075FE024807B030BDBD
:105C000044E7032048E703208D5B0B00FEF745BA0D
:105C100008B5FEF7C7FE000081F0004102E000BFBA
:105C200083F0004330B54FEA41044FEA430594EA5C
:105C3000050F08BF90EA020F1FBF54EA000C55EA97
:105C4000020C7FEA645C7FEA655C00F0E2804FEA68
:105C50005454D4EB5555B8BF6D420CDD2C4480EA4A
:105C6000020281EA030382EA000083EA010180EA7A
:105C7000020281EA0303362D88BF30BD11F0004FC8
:105C80004FEA01314FF4801C4CEA113102D04042FE
:105C900061EB410113F0004F4FEA03334CEA133339
:105CA00002D0524263EB430394EA050F00F0A78051
:105CB000A4F10104D5F1200E0DDB02FA0EFC22FA4C
:105CC00005F2801841F1000103FA0EF2801843FA40
:105CD00005F359410EE0A5F120050EF1200E012A31
:105CE00003FA0EFC28BF4CF0020C43FA05F3C0186F
:105CF00051EBE37101F0004507D54FF0000EDCF1E8
:105D0000000C7EEB00006EEB0101B1F5801F1BD390
:105D1000B1F5001F0CD349085FEA30004FEA3C0C94
:105D200004F101044FEA445212F5800F80F09A808A
:105D3000BCF1004F08BF5FEA500C50F1000041EB8E
:105D4000045141EA050130BD5FEA4C0C404141EB92
:105D50000101013C28BFB1F5801FE9D291F0000F8D
:105D600004BF01460020B1FA81F308BF2033A3F13C
:105D70000B03B3F120020CDA0C3208DD02F1140C33
:105D8000C2F10C0201FA0CF021FA02F10CE002F16E
:105D90001402D8BFC2F1200C01FA02F120FA0CFC67
:105DA000DCBF41EA0C019040E41AA2BF01EB0451B0
:105DB000294330BD6FEA04041F3C1CDA0C340EDCAE
:105DC00004F11404C4F1200220FA04F001FA02F3F1
:105DD00040EA030021FA04F345EA030130BDC4F1AF
:105DE0000C04C4F1200220FA02F001FA04F340EAA4
:105DF0000300294630BD21FA04F0294630BD94F055
:105E0000000F83F4801306BF81F480110134013D3B
:105E10004EE77FEA645C18BF7FEA655C29D094EAAC
:105E2000050F08BF90EA020F05D054EA000C04BF2A
:105E30001946104630BD91EA030F1EBF0021002015
:105E400030BD5FEA545C05D14000494128BF41F0B4
:105E5000004130BD14F580043CBF01F5801130BD18
:105E600001F0004545F0FE4141F470014FF00000A3
:105E700030BD7FEA645C1ABF194610467FEA655C54
:105E80001CBF0B46024650EA013406BF52EA0335F6
:105E900091EA030F41F4002130BD00BF90F0000FE4
:105EA00004BF0021704730B54FF4806404F1320420
:105EB0004FF000054FF0000150E700BF90F0000FD9
:105EC00004BF0021704730B54FF4806404F1320400
:105ED00010F0004548BF40424FF000013EE700BFD0
:105EE00042004FEAE2014FEA31014FEA02701FBF60
:105EF00012F07F4393F07F4F81F06051704732F092
:105F00007F4208BF704793F07F4F04BF41F40021E8
:105F1000704730B54FF4607401F0004521F0004146
:105F20001CE700BF50EA010208BF704730B54FF0D0
:105F300000050AE050EA010208BF704730B511F0D1
:105F4000004502D5404261EB41014FF4806404F109
:105F500032045FEA915C3FF4D8AE4FF003025FEA8F
:105F6000DC0C18BF03325FEADC0C18BF033202EB13
:105F7000DC02C2F1200300FA03FC20FA02F001FA6D
:105F800003FE40EA0E0021FA02F11444BDE600BF10
:105F900070B54FF0FF0C4CF4E06C1CEA11541DBFBF
:105FA0001CEA135594EA0C0F95EA0C0F00F0DEF88A
:105FB0002C4481EA030621EA4C5123EA4C5350EA6F
:105FC000013518BF52EA033541F4801143F48013C0
:105FD00038D0A0FB02CE4FF00005E1FB02E506F051
:105FE0000042E0FB03E54FF00006E1FB03569CF0A6
:105FF000000F18BF4EF0010EA4F1FF04B6F5007FAC
:1060000064F5407404D25FEA4E0E6D4146EB06061D
:1060100042EAC62141EA55514FEAC52040EA5E50A6
:106020004FEACE2EB4F1FD0C88BFBCF5E06F1ED850
:10603000BEF1004F08BF5FEA500E50F1000041EB87
:10604000045170BD06F0004646EA010140EA020034
:1060500081EA0301B4EB5C04C2BFD4EB0C0541EA56
:10606000045170BD41F480114FF0000E013C00F36B
:10607000AB8014F1360FDEBF002001F0004170BD8F
:10608000C4F10004203C35DA0C341BDC04F11404A8
:10609000C4F1200500FA05F320FA04F001FA05F234
:1060A00040EA020001F0004221F0004110EBD37001
:1060B00021FA04F642EB06015EEA430E08BF20EA2D
:1060C000D37070BDC4F10C04C4F1200500FA04F3D0
:1060D00020FA05F001FA04F240EA020001F0004162
:1060E00010EBD37041F100015EEA430E08BF20EAD5
:1060F000D37070BDC4F1200500FA05F24EEA020E1D
:1061000020FA04F301FA05F243EA020321FA04F04B
:1061100001F0004121FA04F220EA020000EBD37002
:106120005EEA430E08BF20EAD37070BD94F0000F02
:106130000FD101F00046400041EB010111F4801F36
:1061400008BF013CF7D041EA060195F0000F18BFE7
:10615000704703F00046520043EB030313F4801F23
:1061600008BF013DF7D043EA0603704794EA0C0FDD
:106170000CEA135518BF95EA0C0F0CD050EA4106F3
:1061800018BF52EA4306D1D181EA030101F0004170
:106190004FF0000070BD50EA410606BF1046194698
:1061A00052EA430619D094EA0C0F02D150EA0136A4
:1061B00013D195EA0C0F05D152EA03361CBF1046E5
:1061C00019460AD181EA030101F0004141F0FE4184
:1061D00041F470014FF0000070BD41F0FE4141F408
:1061E000780170BD70B54FF0FF0C4CF4E06C1CEA08
:1061F00011541DBF1CEA135594EA0C0F95EA0C0FBD
:1062000000F0A7F8A4EB050481EA030E52EA033577
:106210004FEA013100F088804FEA03334FF0805598
:1062200045EA131343EA12634FEA022245EA1115C5
:1062300045EA10654FEA00260EF000419D4208BF76
:10624000964244F1FD0404F5407402D25B084FEA23
:106250003202B61A65EB03055B084FEA32024FF4CF
:1062600080104FF4002CB6EB020E75EB030E22BF2C
:10627000B61A754640EA0C005B084FEA3202B6EBEC
:10628000020E75EB030E22BFB61A754640EA5C009B
:106290005B084FEA3202B6EB020E75EB030E22BF2B
:1062A000B61A754640EA9C005B084FEA3202B6EB2C
:1062B000020E75EB030E22BFB61A754640EADC00EB
:1062C00055EA060E18D04FEA051545EA16754FEA4D
:1062D00006164FEAC30343EA52734FEAC2025FEA6B
:1062E0001C1CC0D111F4801F0BD141EA00014FF0FA
:1062F00000004FF0004CB6E711F4801F04BF0143CB
:106300000020B4F1FD0C88BFBCF5E06F3FF6AFAEE6
:10631000B5EB030C04BFB6EB020C5FEA500C50F176
:10632000000041EB045170BD0EF0004E4EEA1131F9
:1063300014EB5C04C2BFD4EB0C0541EA045170BD00
:1063400041F480114FF0000E013C90E645EA060E44
:106350008DE60CEA135594EA0C0F08BF95EA0C0F72
:106360003FF43BAF94EA0C0F0AD150EA01347FF4BA
:1063700034AF95EA0C0F7FF425AF104619462CE791
:1063800095EA0C0F06D152EA03353FF4FDAE1046F4
:10639000194622E750EA410618BF52EA43067FF445
:1063A000C5AE50EA41047FF40DAF52EA43057FF4D5
:1063B000EBAE12E74FF0FF3C06E000BF4FF0010CE0
:1063C00002E000BF4FF0010C4DF804CD4FEA410C44
:1063D0007FEA6C5C4FEA430C18BF7FEA6C5C1BD011
:1063E00001B050EA410C0CBF52EA430C91EA030F92
:1063F00002BF90EA020F0020704710F1000F91EAEF
:10640000030F58BF994208BF90422CBFD8176FEABC
:10641000E37040F0010070474FEA410C7FEA6C5C8A
:1064200002D150EA013C07D14FEA430C7FEA6C5C91
:10643000D6D152EA033CD3D05DF8040B704700BFBD
:106440008446104662468C461946634600E000BF0B
:1064500001B5FFF7B7FF002848BF10F1000F01BDDD
:106460004DF808EDFFF7F4FF0CBF012000205DF8A8
:1064700008FB00BF4DF808EDFFF7EAFF34BF01202D
:1064800000205DF808FB00BF4DF808EDFFF7E0FFC6
:1064900094BF012000205DF808FB00BF4DF808ED17
:1064A000FFF7CEFF94BF012000205DF808FB00BF7E
:1064B0004DF808EDFFF7C4FF34BF012000205DF860
:1064C00008FB00BF4A0011D212F5001211D20DD5FF
:1064D0006FF47873B3EB62520ED44FEAC12343F0EA
:1064E000004343EA505323FA02F070474FF0000094
:1064F000704750EA013002D14FF0FF3070474FF043
:10650000000070474FEA4102B2F1E04324BFB3F507
:10651000001CDCF1FE5C0DD901F0004C4FEAC0021A
:106520004CEA5070B2F1004F40EB830008BF20F0FE
:106530000100704711F0804F21D113F13872BCBFB8
:1065400001F00040704741F480114FEA5252C2F10D
:106550001802C2F1200C10FA0CF320FA02F018BF56
:1065600040F001004FEAC1234FEAD32303FA0CFCA9
:1065700040EA0C0023FA02F34FEA4303CCE77FEA38
:10658000625307D150EA01331EBF4FF0FE4040F482
:106590004000704701F0004040F0FE4040F4000031
:1065A000704700BF53B94AB9002908BF00281CBF73
:1065B0004FF0FF314FF0FF3000F092B9ADF1080C11
:1065C0006DE904CE00F024F8DDF804E0DDE90223F3
:1065D00004B07047D0B50C4B002206460F46FFF7BB
:1065E000D7FCFFF76FFF0446FFF758FC074B00226C
:1065F000FFF7CEFC02460B4630463946FFF710FB4C
:10660000FFF760FF2146D0BD0000F03D0000F041E3
:106610002DE9F047089D04468E46002B4DD18A4255
:10662000944669D9B2FA82F252B101FA02F3C2F188
:10663000200120FA01F10CFA02FC41EA030E944019
:106640004FEA1C48210CBEFBF8F61FFA8CF708FB3A
:1066500016E341EA034306FB07F199420AD91CEB12
:10666000030306F1FF3080F01F81994240F21C8144
:10667000023E63445B1AA4B2B3FBF8F008FB10338C
:1066800044EA034400FB07F7A7420AD91CEB0404C1
:1066900000F1FF3380F00A81A74240F20781644491
:1066A000023840EA0640E41B00261DB1D440002316
:1066B000C5E900433146BDE8F0878B4209D9002D7A
:1066C00000F0EF800026C5E9000130463146BDE804
:1066D000F087B3FA83F6002E4AD18B4202D382426E
:1066E00000F2F980841A61EB030301209E46002D1D
:1066F000E0D0C5E9004EDDE702B9FFDEB2FA82F272
:10670000002A40F09280A1EB0C014FEA1C471FFACF
:106710008CFE0126200CB1FBF7F307FB131140EAB6
:1067200001410EFB03F0884208D91CEB010103F183
:10673000FF3802D2884200F2CB804346091AA4B245
:10674000B1FBF7F007FB101144EA01440EFB00FE19
:10675000A64508D91CEB040400F1FF3102D2A6457E
:1067600000F2BB800846A4EB0E0440EA03409CE71D
:10677000C6F12007B34022FA07FC4CEA030C20FACA
:1067800007F401FA06F31C43F9404FEA1C4900FAEA
:1067900006F3B1FBF9F8200C1FFA8CFE09FB181167
:1067A00040EA014108FB0EF0884202FA06F20BD9DA
:1067B0001CEB010108F1FF3A80F08880884240F22A
:1067C0008580A8F102086144091AA4B2B1FBF9F06E
:1067D00009FB101144EA014100FB0EFE8E4508D969
:1067E0001CEB010100F1FF346CD28E456AD90238EE
:1067F000614440EA0840A0FB0294A1EB0E01A142D3
:10680000C846A64656D353D05DB1B3EB080261EB40
:106810000E0101FA07F722FA06F3F1401F43C5E91A
:10682000007100263146BDE8F087C2F12003D84050
:106830000CFA02FC21FA03F3914001434FEA1C4792
:106840001FFA8CFEB3FBF7F007FB10360B0C43EA84
:10685000064300FB0EF69E4204FA02F408D91CEB34
:10686000030300F1FF382FD29E422DD90238634432
:106870009B1B89B2B3FBF7F607FB163341EA0341D2
:1068800006FB0EF38B4208D91CEB010106F1FF3821
:1068900016D28B4214D9023E6144C91A46EA004618
:1068A00038E72E46284605E70646E3E61846F8E6AA
:1068B0004B45A9D2B9EB020864EB0C0E0138A3E7F3
:1068C0004646EAE7204694E74046D1E7D0467BE7D4
:1068D000023B614432E7304609E76444023842E74C
:1068E000704700BF002301461A46184600F082B8E0
:1068F000024B0A460146186800F018B838E6032033
:106900000A44914200F1FF3300D1704710B511F8ED
:10691000014B03F8014F9142F9D110BD02440346E7
:10692000934200D1704703F8011BF9E713B54A43BE
:1069300011460192FEF73EF8044618B1019A002173
:10694000FFF7ECFF204602B010BD000038B5104B39
:106950001D68AB6B0446B3B91820FEF70BF802466E
:10696000A86320B90B4B0C484221FEF72BF80B49CA
:106970000B4BC0E900130B4B83600B238381002179
:106980000120C2E90401AB6B00221C615A6138BDD1
:1069900038E60320756C0B008C6C0B000E33CDAB0E
:1069A00034126DE6ECDE0500024B0146186800F07B
:1069B00003B800BF38E6032037B5044608460D4645
:1069C00000F00FF8421C114620460192FDF7F2FF3D
:1069D000044618B1019A2946FFF792FF204603B0FA
:1069E00030BD034613F8012B002AFBD1181A0138D9
:1069F000704700002DE9F843DFF8B8800646D8F864
:106A000000001F460D46914600F056F8254B1C68C5
:106A100034B9254C1C60254B13B11B68C4F8883071
:106A200063681F2B07DDD8F8000000F047F84FF02F
:106A3000FF30BDE8F8834EB3D4F8880088B91C4B0A
:106A400023B9D8F8000000F038F8F0E74FF484706C
:106A5000FDF790FF0028F4D00023C0E94033C4F8CC
:106A60008800636840F8239001229A4000EB83017C
:106A7000D0F800311343C0F80031022EC1F8807005
:106A800002BFD0F804311343C0F804316368D8F86A
:106A900000005A1C0233626044F8235000F00EF8E4
:106AA0000020C6E7E8E703205CE7032000000000C1
:106AB00075490B009CE60320704770477047000043
:106AC00021400B005D400B0085400B0089400B000E
:106AD000000000006C696768742D6D657465722F25
:106AE0006C6576656C00000000000000000000008E
:106AF000114B0B00174B0B00554B0B00254B0B009C
:106B0000134B0B0000000000000000009F500B0022
:106B100095500B008B500B0081500B0075500B00F3
:106B200069500B0079520B0081520B005D500B0035
:106B300055500B004B500B0041500B00B1520B0055
:106B40000000000000000000BD500B0007510B00CA
:106B5000DF500B00BF500B00E7500B00EF500B0055
:106B6000F7500B00FF500B00000000000000000079
:106B700049510B0039510B003B510B006170700003
:106B8000000000000000000039520B0043520B00CF
:106B90004D520B0057520B0061520B006D520B000F
:106BA00079520B0081520B0089520B0095520B0059
:106BB0009D520B00A7520B00B1520B0025592D25F9
:106BC0006D2D25645425483A254D3A2553257A00E4
:106BD00061736374696D65000000000000000000CF
:106BE00055560B00C1560B0099560B009D530B00D8
:106BF00069560B0085560B0077560B0093560B0019
:106C000057560B005B560B00000000000000000010
:106C1000FF560B0067570B003D570B009D530B00B1
:106C20002F570B0001570B0011570B0061570B003A
:106C300021570B00F9560B00000000000000000077
:106C400057580B004D580B0043580B00F9570B00D9
:106C500037580B002B580B0079520B0081520B0058
:106C60001F580B0017580B000D580B0003580B0052
:106C7000B1520B00005245454E54206D616C6C6F53
:106C80006320737563636565646564002F746D705C
:106C90002F6A656E6B696E732D4743432D31302D1E
:106CA000706970656C696E652D34385F32303230D2
:106CB000313132345F313630363138303633392F76
:106CC0007372632F6E65776C69622F6E65776C697E
:106CD000622F6C6962632F7374646C69622F7261D6
:106CE0006E642E6300000000D5410B00014B0B00C9
:106CF000A9500B0029520B0089530B0031540B0093
:106D00001D560B0041560B0061580B00000000009F
:106D1000040000001400000003000000474E55006E
:106D200002A58D6A0B8026611C5B25CC7663C48826
:046D300013A2CA2BB5
:086D3400DCF8FF7F0100000004
:046D3C000000000053
:106D4000D06B0B003CE603200000000000000000B8
:106D50000000000000000000000000000000000033
:106D60000000000000000000000000000000000023
:106D70000000000000000000000000000000000013
:106D80000000000000000000000000000000000003
:106D900000000000000000000000000000000000F3
:0C6DA0000000000000000000ECE70320F1
:106DAC00FFFFFFFF00000102030405060708090AA4
:106DBC000B0C0D0E0F101112131415161718191A9F
:086DCC001B1C1D1E1F202800E6
:046DD40078563412A7
:04000003B0004020E9
:00000001FF
