:02000002B0004C
:1040000000400B003C610B00000006000C000502A4
:084010000401A30F00000000F1
:04401800645E0B00D7
:1040200009480A49884208B505D0094A824202D0A7
:10403000121A01F055FE0748074A0021121A01F032
:104040005DFE014808BD00BF44E60320A8600B00E8
:10405000B0E60320B0E60320EDE7032070B5074E7D
:10406000074C01F051F8A41BA4080025AC4200D174
:1040700070BD56F8043B98470135F7E75C600B00CC
:1040800080600B0000F03EB808B500F04FF8BDE8C6
:10409000084000F0F1BF00F0FDBB00F003BC007869
:1040A000B0FA80F0400970470123037070470000A8
:1040B00010B5124C2DED028B9FED118AB6EE001A51
:1040C000B0EE480AF7EE000A0021204600F08CF915
:1040D0004FF4FA7000F00EFCB0EE481AF0EE480A09
:1040E000B0EE480A0021204600F07EF94FF4FA7045
:1040F00000F000FCBDEC028B012010BDB0E60320F7
:104100000000000008B5074800F0D3F89FED061A3C
:104110000448BDE80840F0EE410AB0EE410A002133
:1041200000F062B9B0E60320000000001FB50649A8
:10413000684600F03EFE6846FFF7BAFF684600F0AA
:10414000EDFD05B05DF804FB58600B00024801234B
:104150000E220F2100F002B8B0E6032010B504468D
:10416000017042708370012103EB430001F0B0FD48
:104170006060204610BD10B500210446007801F0B3
:1041800044F8142000F002FA2078012101F03DF8F3
:10419000BDE81040142000F0F9B970B506460C4691
:1041A000082523064CBF01210021707801F02DF86D
:1041B000013D3046FFF7DFFF640015F0FF05E4B274
:1041C000EFD170BD73B513F0800F1E460C46154637
:1041D00014BFC021E021730658BF41F010012A0628
:1041E00058BF41F008016B0658BF41F00401220698
:1041F00058BF41F00201630658BF41F00101019030
:10420000FFF7CBFF01983146FFF7C7FF019829461A
:10421000FFF7C3FF0198214602B0BDE87040FFF7E9
:10422000BCBF2DE9F04704460F4600219046994651
:104230009DF820A0FFF7B1FF00212046FFF7ADFF5A
:1042400000212046FFF7A9FF00212046FFF7A5FF28
:104250000026A378F5B2AB4219D905EB4500AF4271
:1042600000F1010200F1020308D1616801F8008049
:10427000616801F80290616801F803A06168CB5C95
:104280008A5C095C2046FFF79DFF0136E1E7204686
:104290000021FFF782FF20460021FFF77EFF204626
:1042A0000021FFF77AFF20460021BDE8F047FFF725
:1042B00074BF73B504460121007800F095FF607863
:1042C000012100F091FF00252E46A378E9B28B4230
:1042D00007D9002300961A462046FFF7A2FF0135B2
:1042E000F3E702B070BD0000F8B5B5EEC01AF7EE06
:1042F000007AF1EE10FA2DED048BF0EE418A48BF02
:1043000071EE278AB0EE409AF4EEE78AF1EE10FAE9
:10431000C8BF78EEE78AB0EE608A18EE900A01F026
:104320006FF92EA3D3E9002304460D4601F032FCB9
:1043300010B378EE497A17EE900A01F061F9264B36
:10434000002201F0B5F922462B4601F0B1F90446EE
:1043500019EE100A0D4601F053F902460B462046AD
:10436000294600F0EFFF01F05DFC08EE100AB0EE08
:10437000480ABDEC048BF8BDF6EE007AF4EEE78A4D
:10438000F1EE10FAF3D412A3D3E900232046294614
:1043900001F000FCB8B178EE497A17EE900A01F00E
:1043A0002FF9224606460F462B4609A1D1E9000106
:1043B00000F0C6FF02460B463046394601F078F958
:1043C000054B0022C1E7B0EE498AD0E7AFF3008089
:1043D000555555555555E53F00001840555555550F
:1043E0005555C53F000000002DE9F0432DED048B2D
:1043F000F5EE400AF1EE10FA83B080468946F0EE01
:10440000409AB0EE609AB0EE418A00F09D8011EEC5
:10441000100A01F0F5F8F6EE007AB4EEE78AF1EE54
:1044200010FA06460F4640F18A8019EE100A01F094
:10443000E7F84D4B002200F085FF32463B4601F085
:1044400037F901F0EFFB08EE900A19EE900A01F03F
:10445000D7F8324604463B460D463046394600F012
:1044600071FF064618EE900A0F4601F0C9F80246A1
:104470000B463046394600F063FF01F0D3FB36A30C
:10448000D3E9002309EE100A2946204600F05AFF1E
:1044900001F0C8FBF0EE680A01EE100AB0EE490A1E
:1044A000FFF722FFB0EE691AF0EE680AB0EE408A1C
:1044B000B0EE490AFFF718FF27A3D3E900232046EF
:1044C000294610EE106A00F03BFF01F0ABFBF0EE66
:1044D000680A01EE100AB0EE490AFFF705FF10EE78
:1044E000104A304601F08CF81DA3D3E9002301F0F7
:1044F000DFF801F077FBC6B218EE100A01F080F881
:1045000017A3D3E9002301F0D3F801F06BFBC5B288
:10451000204601F075F812A3D3E9002301F0C8F892
:1045200001F060FBC0B2009033462A46494640463F
:10453000FFF777FE03B0BDEC048BBDE8F08379EEA6
:10454000088AE9EE488A80E711EE104A11EE106AF7
:10455000C7E700BFAFF30080555555555555D53FBA
:104560000000000000E06F400000F03F08B5024B83
:104570001B685B6C019308BD4802030008B5024B41
:104580001B685B68019308BD1802030008B5024B65
:104590001B68DB68019308BD1802030008B5024BD5
:1045A0001B685B69019308BD1802030008B5024B44
:1045B0001B689B68019308BD2C02030008B5024BE1
:1045C0001B68DB68019308BD2C02030008B5024B91
:1045D0001B681B69019308BD2C02030008B5024B40
:1045E0001B681B6A019308BD2802030008B5024B33
:1045F0001B685B6A019308BD2802030008B5024BE3
:104600001B689B6A019308BD2802030008B5024B92
:104610001B68DB6A019308BD2802030008B5024B42
:104620001B681B6B019308BD2802030008B5024BF1
:104630001B685B6B019308BD2802030008B5024BA1
:104640001B681B6C019308BD2802030008B5024BD0
:104650001B685B69019308BD6402030008B5024B47
:104660001B689B68019308BD6802030008B5024BF4
:104670001B68DB68019308BD6802030008B5024BA4
:104680001B68DB69019308BD3002030008B5024BCB
:104690001B681B6A019308BD3002030008B5024B7A
:1046A0001B68DB68019308BD3C02030008B5024BA0
:1046B0001B681B69019308BD3C02030008B5024B4F
:1046C0001B685B69019308BD3C02030008B5024BFF
:1046D0001B689B69019308BD3C02030008B5024BAF
:1046E0001B68DB69019308BD3C02030008B5024B5F
:1046F0001B681B6A019308BD3C02030008B5024B0E
:104700001B689B6A019308BD3C02030008B5024B7D
:104710001B681B6C019308BD3C02030008B5024BEB
:104720001B681B68019308BD4C02030008B5024BCF
:104730001B681B69019308BD4C02030008B5024BBE
:104740001B685B69019308BD4C02030008B5024B6E
:104750001B689B69019308BD4C02030008B5024B1E
:104760001B68DB69019308BD4C02030008B5024BCE
:104770001B681B6A019308BD4C02030008B5024B7D
:104780001B685B68019308BD2002030008B5024B5B
:104790001B685B69019308BD2002030008B5034B49
:1047A0001B68D3F88830019308BD00002002030085
:1047B00008B5034B1B68D3F89430019308BD000083
:1047C0002002030008B5024B1B68DB6B019308BD98
:1047D0004402030008B5024B1B685B68019308BDE7
:1047E0004002030008B5024B1B689B68019308BD9B
:1047F0004002030008B5024B1B68DB68019308BD4B
:104800004002030008B5024B1B681B69019308BDF9
:104810004002030008B5024B1B685B69019308BDA9
:104820004002030008B5024B1B689B69019308BD59
:104830004002030008B5024B1B68DB69019308BD09
:104840004002030008B5024B1B681B6A019308BDB8
:104850004002030008B5024B1B681B6B019308BDA7
:104860004002030008B5024B1B685B6B019308BD57
:104870004002030008B5024B1B681B6C019308BD86
:104880004002030008B5024B1B685B6C019308BD36
:104890004002030008B5024B1B681B68019308BD6A
:1048A0001C02030008B5024B1B685B68019308BD3E
:1048B0001C02030008B5024B1B689B68019308BDEE
:1048C0001C02030008B5024B1B681B6B019308BD5B
:1048D0001C02030008B5024B1B681B6C019308BD4A
:1048E0001C02030008B5024B1B685B6C019308BDFA
:1048F0001C0203000021FFF749BF0000024800230B
:104900000360FFF733BE00BFB8E603200022406813
:104910001146FFF797BF002240681146FFF7A2BF7C
:1049200040680022FFF796BF4068002281F0010135
:10493000FFF780BF002340681A461946FFF772BF91
:10494000002340681A461946FFF764BF00224068FA
:104950001146FFF757BF002240681146FFF742BFDC
:10496000406800220221FFF745BF002340681A4635
:10497000FFF730BF024B03225A60024A1A607047A9
:10498000BCE60320805E0B007047F8B5064615466E
:104990000C468F18BC4206D0336814F8011B9B6884
:1049A00030469847F6E72846F8BD007C0022FFF71E
:1049B00015BE007C0021FFF719BE007C0021FFF727
:1049C0001DBE007C0021FFF721BE007C0021FFF707
:1049D00025BE10B514210446FFF75FFB204610BD2D
:1049E00010B54FF47A73044608460021C4E9011358
:1049F000034B236020741146FFF720FE204610BDB4
:104A0000BC5E0B00704710B518210446FFF745FB4C
:104A1000204610BDF0B5037D062B8DB00E4600F18B
:104A200004074FF0000412D000F1080515F8011D2D
:104A30000A22304600F043F9AF42044419D0002C5A
:104A4000F4D02E21304600F037F90444EEE72F234E
:104A50006A4639460A208DF80040FFF7F7FD6846A0
:104A600001F092F933680246DB68694630469847A0
:104A7000044620460DB0F0BD10B5054B044611228A
:104A800040F8043B002101F039F9204610BD00BF79
:104A9000E45E0B000346074A10B543F8042B01F10E
:104AA000100251F8044B43F8044B9142F9D10A78B3
:104AB0001A7010BDE45E0B0010B59DF8084044EA82
:104AC000032343EA024242EA016104234160037581
:104AD00010BD000007B5064B0360CB7800938B78C0
:104AE0004A780978FFF7E8FF03B05DF804FB00BFE0
:104AF000E45E0B00014B024A1A607047C4E60320D3
:104B0000F05E0B00002340681A46FFF763BE406862
:104B100000220221FFF76EBE002240681146FFF717
:104B200061BE002240681146FFF76CBE002340685A
:104B30001A461946FFF76EBE002340681A4619460A
:104B4000FFF770BE40680021FFF794BE4068002167
:104B5000FFF798BE4068002281F00101FFF76ABEAE
:104B600040680022FFF776BE002240681146FFF73A
:104B700079BE002240681146FFF764BE2DE9F0437C
:104B800095B014460D460746FFF776FF00211C221C
:104B90000DA8009101F0B2F840230C9320466B461B
:104BA0000CAA0021FFF762FD044600284BD1024603
:104BB00001216868FFF726FE0221804622466868C8
:104BC000FFF720FE009E81462146002E3BD00029A3
:104BD00039D17368022B03D00A2B11D0F669F4E7A0
:104BE000B8F1000FFAD0716906A8043107ADFFF7DC
:104BF00071FF0FCD3C1D0FC42B6823704146EDE7BC
:104C0000B9F1000FEAD07469102201A801F076F81A
:104C100006238DF8143001AD04F108031834186828
:104C200059682A4603C20833A3421546F7D101A9A1
:104C300006A807ADFFF72EFF0FCD3C1D0FC42B6854
:104C400023704946CAE70098FFF708FD384615B0BB
:104C5000BDE8F083024B034A1A6000225A60704795
:104C6000C8E60320FC5E0B00F8B506460D468F181B
:104C70000024BD420CD0336815F8011B9B683046F8
:104C80009847031E01DB1C44F3E7002C08BF1C46B9
:104C90002046F8BD13B50446084659B1019101F00C
:104CA00073F823680199DB680246204602B0BDE82C
:104CB0001040184702B010BD03689B68184730B514
:104CC0008BB00023012A8DF8243098BF0A2209AC4A
:104CD0000D46B1FBF2F101FB125303F0FF03092B68
:104CE00094BF30333733DBB2AA4204F8013DEFD929
:104CF0002146FFF7CFFF0BB030BD0000014B002273
:104D00009A607047D0E6032010B50446084621702B
:104D1000FFF7B4FC00236360204610BD10B50446C5
:104D20000068FFF7BFFD204610BD10B504460068BF
:104D300008B1FFF7B7FD0023C4E90133236010BDBC
:104D400038B504460D4600680131FFF7B3FD10B1D8
:104D5000C4E90005012038BD10B50368044623B13D
:104D600043688B4201D3012010BD2046FFF7E8FFC6
:104D70000028F9D0A368002BF5D122681370F2E760
:104D800037B50D46114601920446FFF7E5FF019A3B
:104D900028B92046FFF7C9FF204603B030BDA26006
:104DA0002946206800F09CFF2268A3680021D154A6
:104DB000F2E7002313B5C0E90033044683600373B0
:104DC00041B10846019100F0DFFF019902462046FB
:104DD000FFF7D6FF204602B010BD0000054B0222AF
:104DE0001A60054B054A9A600020C3E90000FFF7EE
:104DF000C5BC00BFECE60320E0E603200000FFFF97
:104E0000024B1A68024B1A60704700BF44E6032049
:104E1000F0E6032070474174704708B5007CFFF747
:104E20006DFC20EAE07008BD08B5007CFFF73EFC91
:104E300020EAE07008BD08B5007CFFF747FC40EAB7
:104E4000E07008BD08B5007CFFF738FC40EAE07070
:104E500008BD007CFFF742BC37B5457C04462DB148
:104E6000207C03B0BDE83040FFF718BC007C019106
:104E7000FFF744FC00280199F2DC284603B030BD5E
:104E800010B514210446FFF708F9204610BD0000B4
:104E900010B54FF47A730446084611460022C4E95F
:104EA0000123044B2360012320746374FFF72EFC5D
:104EB000204610BD545F0B00417470477047704727
:104EC00008B50021007CFFF741FC40EAE07008BD16
:104ED00008B50121007CFFF739FC40EAE07008BD0D
:104EE00008B5007CFFF72AFC20EAE07008BD08B591
:104EF000007CFFF71BFC20EAE07008BD13B50446F8
:104F0000007C0191FFF71AFC0028019901DC607C0C
:104F100020B1207CFFF722FC20EAE07002B010BD37
:104F2000007CFFF723BC10B514210446FFF7B5F849
:104F3000204610BD10B54FF47A7304460846002190
:104F4000C4E90113044B23600123207463741146E8
:104F5000FFF7E4FB204610BD845F0B0010B5142260
:104F60000446002100F0CAFE204610BD10B50F4CCB
:104F700088B003A8FFF7F2FF2178BFF35B8F11F031
:104F800001010FD120460191FFF789F8019948B13D
:104F900003AA0748FFF7CEFF2046FFF785F805482C
:104FA00000F090FE024808B010BD00BFF4E60320F8
:104FB000F8E60320BD4E0B00002240681146FFF7C3
:104FC00021BC002240681146FFF73CBC002240682B
:104FD0001146FFF747BC40680022FFF73BBC406822
:104FE000002281F00101FFF725BC002340681A462A
:104FF0001946FFF717BC002340681A461946FFF709
:1050000009BC002240681146FFF7ECBB4068002253
:105010000221FFF7EFBB002340681A46FFF7DABB17
:10502000024B04225A60024A1A6070470CE70320C0
:10503000B45F0B00014B1860704700BF48E60320C7
:1050400008B50B4B43B1FFF791FF03681B69984705
:10505000002801DDAFF30080064B43B100F046F9B4
:1050600003681B699847002801DDAFF3008008BD85
:10507000000000000000000008B5FFF7E1FFFFF7A7
:105080008DFA014B186008BD28E703200548064A41
:10509000064908B5121A00F023FE054B054A1A60AE
:1050A00008BD00BF00F4032004F40320A4600B003B
:1050B00000F403201E1C279A07B5002300931A460C
:1050C0006FF07701FFF774FB03B05DF804FB00009D
:1050D00007B543880A2B08D0502B0BD1094B1B680E
:1050E0004BB103B05DF804EB1847FFF7E5FF03B0E1
:1050F0005DF804FB002300931A466FF07701FFF779
:1051000057FBF4E718E7032010B512480021FFF71A
:10511000E9FB114B1A68114B9A42114B0CBF01224B
:1051200000221A7001D0FFF7B1FFFFF727FA0446FB
:1051300000F0FCFD0B4B13B12046AFF300800021C3
:105140000848FFF73FFBBDE8104007480021FFF784
:1051500025BB00BF35500B0000F403201E1C279A0E
:1051600014E7032000000000D1500B00232813B5E2
:1051700002D9002002B010BDA0F10B03022B1AD8F7
:10518000174C2178BFF35B8F11F001010BD1204642
:105190000191FEF784FF019928B11248FFF7B4FD91
:1051A0002046FEF781FF0F4B1878FFF76FFA0028B3
:1051B000DFD10120DEE7012809D800F057F80021EF
:1051C000007CFFF733FA80F00100C0B2D2E7093863
:1051D0000128EED800F08AF8007CFFF787FAF2E7A2
:1051E0001CE7032020E70320232838B504460D469A
:1051F0000AD8FF2908D0FFF7B9FF28B12946204671
:10520000BDE83840FFF7D2B938BD38B504460D4681
:10521000FFF7D4F9FF2810D0062804D84D2323FA2D
:1052200000F0C30709D42046FFF7A0FF28B12946A4
:105230002046BDE83840FFF7C9B938BD70470000C7
:1052400038B52025142304460360856005610649AE
:10525000284600F06FF804496060284600F06AF8BC
:10526000E060204638BD00BFE85F0B0030B50E4D52
:105270002978BFF35B8F11F0010487B011D1284664
:10528000FEF70DFF68B101A8FFF7DAFF01AA21467A
:105290000648FFF7A5FB2846FEF706FF044800F086
:1052A00011FD024807B030BD2CE7032030E7032092
:1052B0003D520B007047000038B5044614252A46BD
:1052C000002100F01BFD2580402507492581284647
:1052D000258200F02FF804496060284600F02AF883
:1052E000E060204638BD00BFE85F0B0030B50E4DD2
:1052F0002978BFF35B8F11F0010487B011D12846E4
:10530000FEF7CDFE68B101A8FFF7D6FF01AA21463E
:105310000648FFF7BDFD2846FEF7C6FE044800F02C
:10532000D1FC024807B030BD44E7032048E7032022
:10533000B5520B00FEF7AFBE81F0004102E000BFA6
:1053400083F0004330B54FEA41044FEA430594EA45
:10535000050F08BF90EA020F1FBF54EA000C55EA80
:10536000020C7FEA645C7FEA655C00F0E2804FEA51
:105370005454D4EB5555B8BF6D420CDD2C4480EA33
:10538000020281EA030382EA000083EA010180EA63
:10539000020281EA0303362D88BF30BD11F0004FB1
:1053A0004FEA01314FF4801C4CEA113102D04042E7
:1053B00061EB410113F0004F4FEA03334CEA133322
:1053C00002D0524263EB430394EA050F00F0A7803A
:1053D000A4F10104D5F1200E0DDB02FA0EFC22FA35
:1053E00005F2801841F1000103FA0EF2801843FA29
:1053F00005F359410EE0A5F120050EF1200E012A1A
:1054000003FA0EFC28BF4CF0020C43FA05F3C01857
:1054100051EBE37101F0004507D54FF0000EDCF1D0
:10542000000C7EEB00006EEB0101B1F5801F1BD379
:10543000B1F5001F0CD349085FEA30004FEA3C0C7D
:1054400004F101044FEA445212F5800F80F09A8073
:10545000BCF1004F08BF5FEA500C50F1000041EB77
:10546000045141EA050130BD5FEA4C0C404141EB7B
:105470000101013C28BFB1F5801FE9D291F0000F76
:1054800004BF01460020B1FA81F308BF2033A3F125
:105490000B03B3F120020CDA0C3208DD02F1140C1C
:1054A000C2F10C0201FA0CF021FA02F10CE002F157
:1054B0001402D8BFC2F1200C01FA02F120FA0CFC50
:1054C000DCBF41EA0C019040E41AA2BF01EB045199
:1054D000294330BD6FEA04041F3C1CDA0C340EDC97
:1054E00004F11404C4F1200220FA04F001FA02F3DA
:1054F00040EA030021FA04F345EA030130BDC4F198
:105500000C04C4F1200220FA02F001FA04F340EA8C
:105510000300294630BD21FA04F0294630BD94F03D
:10552000000F83F4801306BF81F480110134013D24
:105530004EE77FEA645C18BF7FEA655C29D094EA95
:10554000050F08BF90EA020F05D054EA000C04BF13
:105550001946104630BD91EA030F1EBF00210020FE
:1055600030BD5FEA545C05D14000494128BF41F09D
:10557000004130BD14F580043CBF01F5801130BD01
:1055800001F0004545F0FE4141F470014FF000008C
:1055900030BD7FEA645C1ABF194610467FEA655C3D
:1055A0001CBF0B46024650EA013406BF52EA0335DF
:1055B00091EA030F41F4002130BD00BF90F0000FCD
:1055C00004BF0021704730B54FF4806404F1320409
:1055D0004FF000054FF0000150E700BF90F0000FC2
:1055E00004BF0021704730B54FF4806404F13204E9
:1055F00010F0004548BF40424FF000013EE700BFB9
:1056000042004FEAE2014FEA31014FEA02701FBF48
:1056100012F07F4393F07F4F81F06051704732F07A
:105620007F4208BF704793F07F4F04BF41F40021D1
:10563000704730B54FF4607401F0004521F000412F
:105640001CE700BF50EA010208BF704730B54FF0B9
:1056500000050AE050EA010208BF704730B511F0BA
:10566000004502D5404261EB41014FF4806404F1F2
:1056700032045FEA915C3FF4D8AE4FF003025FEA78
:10568000DC0C18BF03325FEADC0C18BF033202EBFC
:10569000DC02C2F1200300FA03FC20FA02F001FA56
:1056A00003FE40EA0E0021FA02F11444BDE600BFF9
:1056B00070B54FF0FF0C4CF4E06C1CEA11541DBFA8
:1056C0001CEA135594EA0C0F95EA0C0F00F0DEF873
:1056D0002C4481EA030621EA4C5123EA4C5350EA58
:1056E000013518BF52EA033541F4801143F48013A9
:1056F00038D0A0FB02CE4FF00005E1FB02E506F03A
:105700000042E0FB03E54FF00006E1FB03569CF08E
:10571000000F18BF4EF0010EA4F1FF04B6F5007F94
:1057200064F5407404D25FEA4E0E6D4146EB060606
:1057300042EAC62141EA55514FEAC52040EA5E508F
:105740004FEACE2EB4F1FD0C88BFBCF5E06F1ED839
:10575000BEF1004F08BF5FEA500E50F1000041EB70
:10576000045170BD06F0004646EA010140EA02001D
:1057700081EA0301B4EB5C04C2BFD4EB0C0541EA3F
:10578000045170BD41F480114FF0000E013C00F354
:10579000AB8014F1360FDEBF002001F0004170BD78
:1057A000C4F10004203C35DA0C341BDC04F1140491
:1057B000C4F1200500FA05F320FA04F001FA05F21D
:1057C00040EA020001F0004221F0004110EBD370EA
:1057D00021FA04F642EB06015EEA430E08BF20EA16
:1057E000D37070BDC4F10C04C4F1200500FA04F3B9
:1057F00020FA05F001FA04F240EA020001F000414B
:1058000010EBD37041F100015EEA430E08BF20EABD
:10581000D37070BDC4F1200500FA05F24EEA020E05
:1058200020FA04F301FA05F243EA020321FA04F034
:1058300001F0004121FA04F220EA020000EBD370EB
:105840005EEA430E08BF20EAD37070BD94F0000FEB
:105850000FD101F00046400041EB010111F4801F1F
:1058600008BF013CF7D041EA060195F0000F18BFD0
:10587000704703F00046520043EB030313F4801F0C
:1058800008BF013DF7D043EA0603704794EA0C0FC6
:105890000CEA135518BF95EA0C0F0CD050EA4106DC
:1058A00018BF52EA4306D1D181EA030101F0004159
:1058B0004FF0000070BD50EA410606BF1046194681
:1058C00052EA430619D094EA0C0F02D150EA01368D
:1058D00013D195EA0C0F05D152EA03361CBF1046CE
:1058E00019460AD181EA030101F0004141F0FE416D
:1058F00041F470014FF0000070BD41F0FE4141F4F1
:10590000780170BD70B54FF0FF0C4CF4E06C1CEAF0
:1059100011541DBF1CEA135594EA0C0F95EA0C0FA5
:1059200000F0A7F8A4EB050481EA030E52EA033560
:105930004FEA013100F088804FEA03334FF0805581
:1059400045EA131343EA12634FEA022245EA1115AE
:1059500045EA10654FEA00260EF000419D4208BF5F
:10596000964244F1FD0404F5407402D25B084FEA0C
:105970003202B61A65EB03055B084FEA32024FF4B8
:1059800080104FF4002CB6EB020E75EB030E22BF15
:10599000B61A754640EA0C005B084FEA3202B6EBD5
:1059A000020E75EB030E22BFB61A754640EA5C0084
:1059B0005B084FEA3202B6EB020E75EB030E22BF14
:1059C000B61A754640EA9C005B084FEA3202B6EB15
:1059D000020E75EB030E22BFB61A754640EADC00D4
:1059E00055EA060E18D04FEA051545EA16754FEA36
:1059F00006164FEAC30343EA52734FEAC2025FEA54
:105A00001C1CC0D111F4801F0BD141EA00014FF0E2
:105A100000004FF0004CB6E711F4801F04BF0143B3
:105A20000020B4F1FD0C88BFBCF5E06F3FF6AFAECF
:105A3000B5EB030C04BFB6EB020C5FEA500C50F15F
:105A4000000041EB045170BD0EF0004E4EEA1131E2
:105A500014EB5C04C2BFD4EB0C0541EA045170BDE9
:105A600041F480114FF0000E013C90E645EA060E2D
:105A70008DE60CEA135594EA0C0F08BF95EA0C0F5B
:105A80003FF43BAF94EA0C0F0AD150EA01347FF4A3
:105A900034AF95EA0C0F7FF425AF104619462CE77A
:105AA00095EA0C0F06D152EA03353FF4FDAE1046DD
:105AB000194622E750EA410618BF52EA43067FF42E
:105AC000C5AE50EA41047FF40DAF52EA43057FF4BE
:105AD000EBAE12E74FF0FF3C06E000BF4FF0010CC9
:105AE00002E000BF4FF0010C4DF804CD4FEA410C2D
:105AF0007FEA6C5C4FEA430C18BF7FEA6C5C1BD0FA
:105B000001B050EA410C0CBF52EA430C91EA030F7A
:105B100002BF90EA020F0020704710F1000F91EAD7
:105B2000030F58BF994208BF90422CBFD8176FEAA5
:105B3000E37040F0010070474FEA410C7FEA6C5C73
:105B400002D150EA013C07D14FEA430C7FEA6C5C7A
:105B5000D6D152EA033CD3D05DF8040B704700BFA6
:105B60008446104662468C461946634600E000BFF4
:105B700001B5FFF7B7FF002848BF10F1000F01BDC6
:105B80004DF808EDFFF7F4FF0CBF012000205DF891
:105B900008FB00BF4DF808EDFFF7EAFF34BF012016
:105BA00000205DF808FB00BF4DF808EDFFF7E0FFAF
:105BB00094BF012000205DF808FB00BF4DF808ED00
:105BC000FFF7CEFF94BF012000205DF808FB00BF67
:105BD0004DF808EDFFF7C4FF34BF012000205DF849
:105BE00008FB00BF4A0011D212F5001211D20DD5E8
:105BF0006FF47873B3EB62520ED44FEAC12343F0D3
:105C0000004343EA505323FA02F070474FF000007C
:105C1000704750EA013002D14FF0FF3070474FF02B
:105C2000000070474FEA4102B2F1E04324BFB3F5F0
:105C3000001CDCF1FE5C0DD901F0004C4FEAC00203
:105C40004CEA5070B2F1004F40EB830008BF20F0E7
:105C50000100704711F0804F21D113F13872BCBFA1
:105C600001F00040704741F480114FEA5252C2F1F6
:105C70001802C2F1200C10FA0CF320FA02F018BF3F
:105C800040F001004FEAC1234FEAD32303FA0CFC92
:105C900040EA0C0023FA02F34FEA4303CCE77FEA21
:105CA000625307D150EA01331EBF4FF0FE4040F46B
:105CB0004000704701F0004040F0FE4040F400001A
:105CC000704700BF002301461A46184600F064B82A
:105CD000024B0A460146186800F018B848E603204F
:105CE0000A44914200F1FF3300D1704710B511F81A
:105CF000014B03F8014F9142F9D110BD0244034614
:105D0000934200D1704703F8011BF9E713B54A43EA
:105D100011460192FEF7D6FD044618B1019A002102
:105D2000FFF7ECFF204602B010BD000038B5104B65
:105D30001D68AB6B0446B3B91820FEF7ABFD0246F5
:105D4000A86320B90B4B0C484221FEF7C3FD0B4959
:105D50000B4BC0E900130B4B83600B2383810021A5
:105D60000120C2E90401AB6B00221C615A6138BDFD
:105D700048E60320E95F0B0000600B000E33CDAB5B
:105D800034126DE6ECDE0500034613F8012B002A01
:105D9000FBD1181A013870472DE9F843DFF8B880B5
:105DA0000646D8F800001F460D46914600F056F80A
:105DB000254B1C6834B9254C1C60254B13B11B685E
:105DC000C4F8883063681F2B07DDD8F8000000F0A6
:105DD00047F84FF0FF30BDE8F8834EB3D4F88800A1
:105DE00088B91C4B23B9D8F8000000F038F8F0E768
:105DF0004FF48470FEF74EFD0028F4D00023C0E974
:105E00004033C4F88800636840F8239001229A4028
:105E100000EB8301D0F800311343C0F80031022EAB
:105E2000C1F8807002BFD0F804311343C0F80431C8
:105E30006368D8F800005A1C0233626044F82350AB
:105E400000F00EF80020C6E7E8E703205CE7032037
:105E50000000000095480B00ACE603207047704737
:105E60007047000021400B005D400B0085400B0097
:105E700089400B000000000000000000000000004E
:105E80006B490B0061490B0057490B004D490B0052
:105E900041490B0035490B00454B0B004D4B0B00A6
:105EA00029490B0021490B0017490B000D490B0034
:105EB0007D4B0B00000000000000000089490B0032
:105EC000D3490B00AB490B008B490B00B3490B00C6
:105ED000BB490B00C3490B00CB490B00000000007D
:105EE00000000000154A0B00054A0B00074A0B0092
:105EF000617070000000000000000000054B0B0006
:105F00000F4B0B00194B0B00234B0B002D4B0B00C1
:105F1000394B0B00454B0B004D4B0B00554B0B0009
:105F2000614B0B00694B0B00734B0B007D4B0B005F
:105F300025592D256D2D25645425483A254D3A25A2
:105F400053257A0061736374696D65000000000079
:105F500000000000154E0B00814E0B00594E0B0047
:105F6000694C0B00294E0B00454E0B00374E0B00C1
:105F7000534E0B00174E0B001B4E0B000000000091
:105F800000000000BF4E0B00274F0B00FD4E0B0022
:105F9000694C0B00EF4E0B00C14E0B00D14E0B00B5
:105FA000214F0B00E14E0B00B94E0B00000000002A
:105FB0000000000017500B000D500B0003500B00A9
:105FC000B94F0B00F74F0B00EB4F0B00454B0B008D
:105FD0004D4B0B00DF4F0B00D74F0B00CD4F0B008D
:105FE000C34F0B007D4B0B00005245454E54206DB6
:105FF000616C6C6F632073756363656564656400D1
:106000002F746D702F6A656E6B696E732D474343F5
:106010002D31302D706970656C696E652D34385F77
:1060200032303230313132345F313630363138301F
:106030003633392F7372632F6E65776C69622F6EFA
:1060400065776C69622F6C6962632F7374646C6925
:10605000622F72616E642E63000000004D410B00E0
:10606000FD480B0075490B00F54A0B00554C0B0021
:10607000FD4C0B00DD4D0B00014E0B0021500B00C1
:10608000040000001400000003000000474E55000B
:1060900095208356ED164FD453012AAAA1D1A34DC2
:0460A0007B678895FD
:0460A40000000000F8
:1060A800445F0B004CE603200000000000000000E5
:1060B80000000000000000000000000000000000D8
:1060C80000000000000000000000000000000000C8
:1060D80000000000000000000000000000000000B8
:1060E80000000000000000000000000000000000A8
:1060F8000000000000000000000000000000000098
:0C6108000000000000000000ECE7032095
:10611400FFFFFFFF00000102030405060708090A48
:106124000B0C0D0E0F101112131415161718191A43
:086134001B1C1D1E1F2028008A
:04613C00785634124B
:04000003B0004020E9
:00000001FF
