:02000002B0004C
:1040000000400B007C5B0B00000006000C0005026A
:084010000401A30F00000000F1
:044018005C580B00E5
:10401C0009480A49884208B505D0094A824202D0AB
:10402C00121A01F063FB0748074A0021121A01F02B
:10403C006BFB014808BD00BF1CE60320E85A0B00CF
:10404C0088E6032088E60320EDE7032070B5074ED1
:10405C00074C01F08BF8A41BA4080025AC4200D13E
:10406C0070BD56F8043B98470135F7E79C5A0B0096
:10407C00C05A0B0000F022B808B500F041F8BDE8BA
:10408C00084001F02BB800F05BBC00F061BC00787C
:10409C00B0FA80F0400970470123037070470EB4EA
:1040AC0003B503AB012153F8042B019300F083FEFD
:1040BC0002B05DF804EB03B07047000010B500F0DF
:1040CC0087FF4FF4165100F077FF084800F094F882
:1040DC00074908480023092200F0C2FBBDE8104044
:1040EC00054906480023092200F0BABB88E60320E4
:1040FC00A8E6032070580B00A0E6032075580B00AF
:10410C00F8B5174800F044FA154810EE105A00F0B4
:10411C0061FA284610EE104A01F08AFA114B064655
:10412C000F46C3E90067204601F082FA0E4B0D469C
:10413C000446C3E9004500F04BFF32463B460B49B1
:10414C00FFF7ADFF00F044FF22462B460849FFF76E
:10415C00A6FFBDE8F84042F2107000F019BC00BF99
:10416C0088E60320A8E60320A0E603207E580B0077
:10417C0087580B0002480622022100F038B800BF15
:10418C0088E6032010B503682F2B044604D9074A90
:10419C0007490A2000F038FB23681F2B83BF03F06C
:1041AC001F03044823604FF0A04010BD05460B00D0
:1041BC0094580B000003005007B5019001A8FFF7BD
:1041CC00E1FF019A01239340C0F8083503B05DF874
:1041DC0004FB07B5019001A8FFF7D4FF019BD0F8B1
:1041EC001005D84000F0010003B05DF804FB02722A
:1041FC0001228171027470472DE9F04104461C4F75
:10420C0080791C4E002101F021F8A5793B78BFF391
:10421C005B8F13F0010F09D13846FFF738FF28B137
:10422C0000F0FAF930603846FFF736FF33682D019D
:10423C0013F805803B78BFF35B8FDB074FEA481818
:10424C0009D40B48FFF723FF28B100F0E5F93060E3
:10425C000748FFF721FF33681D44687800F01F0002
:10426C0040EA0800FFF7A8FF0023E360BDE8F081F7
:10427C00B0E60320B4E603202DE9F04F044685B0E8
:10428C0000F0C2F9E368834284BF0023E360237C1F
:10429C002BB9E368C01AB0F5FA6FC0F06081002545
:1042AC00257400F0B1F9B04E25602571E060A77956
:1042BC003378AE4DBFF35B8F13F0010F09D130464D
:1042CC00FFF7E5FE28B100F0A7F928603046FFF7AC
:1042DC00E3FE2B683F0113F807803378BFF35B8F45
:1042EC00D9074FEA481809D49F48FFF7D0FE28B1E8
:1042FC0000F092F928609C48FFF7CEFE2B683B44F7
:10430C00587800F01F0040EA0800FFF755FFFA202C
:10431C0000F03EFBA079012100F098FFA7793378DB
:10432C00BFF35B8FDA0709D48F48FFF7B0FE28B1D3
:10433C0000F072F928608C48FFF7AEFE2B683F0145
:10434C00DB5D4FEA43183378BFF35B8FDB0709D48F
:10435C008548FFF79CFE28B100F05EF92860824882
:10436C00FFF79AFE2B683B4403A85B7803F01F030E
:10437C0043EA08030393FFF705FF039A01239340D5
:10438C00C0F80C35142000F003FB00F089FBA77972
:10439C003378BFF35B8FD80709D47348FFF777FEE8
:1043AC0028B100F039F928606F48FFF775FE2B68CB
:1043BC003F0113F807803378BFF35B8FD9074FEABF
:1043CC00481809D46848FFF762FE28B100F024F9B8
:1043DC0028606548FFF760FE2B683B44002758783F
:1043EC0000F01F0040EA0800FFF7E6FE282000F06E
:1043FC0003F9A079DFF87081002100F027FF012379
:10440C00BA4600934FF0000994F806B03378BFF326
:10441C005B8FDA0709D44046FFF739FE28B100F06C
:10442C00FBF828604046FFF737FE2B684FEA0B1B62
:10443C0013F80B305B0101933378BFF35B8FDB0711
:10444C0009D44046FFF723FE28B100F0E5F82860B8
:10445C004046FFF721FE2B685B4493F801B0019BAB
:10446C000BF01F0B4BEA030B5846FFF7B2FE5846F6
:10447C00FFF7AFFE009B834209D109F101095FFAF6
:10448C0089F9012000F0B8F8B9F1FF0FBCD194F80C
:10449C0006B03378BFF35B8FD80709D44046FFF7DB
:1044AC00F6FD28B100F0B8F828604046FFF7F4FD9F
:1044BC002B684FEA0B1B13F80B305B01009333781E
:1044CC00BFF35B8FD90709D44046FFF7E0FD28B155
:1044DC0000F0A2F828604046FFF7DEFD2B685B4435
:1044EC0093F801B0009B0BF01F0B4BEA030B5846E3
:1044FC00FFF76FFE5846FFF76CFEB9F1FF0FC3B222
:10450C00009318D0032F11D9FA070FD44FEADA020F
:10451C000AF1010AA35C5B00DBB2A354217A494582
:10452C003CBF43F00103A3545FFA8AFA0137FFB290
:10453C00552F7FF467AF00F0B5FABAF1270F10D9F9
:10454C00637820781844A3781844E37818442379C6
:10455C00C0B2C31A5842584105B0BDE8F08F0120D3
:10456C00FAE70020F8E700BFB0E60320B4E603202A
:10457C0010B50446FFF780FE28B1A37800EE103A80
:10458C00B8EE400A10BD9FED010AFBE70000C07FAA
:10459C0008B5FFF7EDFFF2EE027A20EE270AF1EEF6
:1045AC00047A80EE277A9FED020A37EE000A08BDE6
:1045BC000000004210B50446FFF75EFE28B12378D8
:1045CC0000EE103AB8EE400A10BD9FED010AFBE771
:1045DC000000C07FFFF7EEBF08B5024B1B685B6C99
:1045EC00019308BD4802030008B5024B1B685B68C9
:1045FC00019308BD1802030008B5024B1B68DB6869
:10460C00019308BD1802030008B5024B1B685B69D7
:10461C00019308BD1802030008B5024B1B681B6808
:10462C00019308BD2C02030008B5024B1B689B6864
:10463C00019308BD2C02030008B5024B1B681B6AD2
:10464C00019308BD2C02030008B5024B1B685B6A82
:10465C00019308BD2C02030008B5024B1B681B6AB2
:10466C00019308BD2802030008B5024B1B685B6A66
:10467C00019308BD2802030008B5024B1B689B6A16
:10468C00019308BD2802030008B5024B1B68DB6AC6
:10469C00019308BD2802030008B5024B1B681B6B75
:1046AC00019308BD2802030008B5024B1B685B6B25
:1046BC00019308BD2802030008B5024B1B681B6C54
:1046CC00019308BD2802030008B5024B1B685B6907
:1046DC00019308BD6402030008B5024B1B689B687C
:1046EC00019308BD6802030008B5024B1B68DB6828
:1046FC00019308BD6802030008B5024B1B68DB6917
:10470C00019308BD3002030008B5024B1B681B6AFD
:10471C00019308BD3002030008B5024B1B68DB682F
:10472C00019308BD3C02030008B5024B1B681B69D2
:10473C00019308BD3C02030008B5024B1B685B6982
:10474C00019308BD3C02030008B5024B1B689B6932
:10475C00019308BD3C02030008B5024B1B68DB69E2
:10476C00019308BD3C02030008B5024B1B681B6A91
:10477C00019308BD3C02030008B5024B1B689B6A01
:10478C00019308BD3C02030008B5024B1B681B6C6F
:10479C00019308BD3C02030008B5024B1B681B6863
:1047AC00019308BD4C02030008B5024B1B685B6803
:1047BC00019308BD4C02030008B5024B1B681B6932
:1047CC00019308BD4C02030008B5024B1B685B69E2
:1047DC00019308BD4C02030008B5024B1B689B6992
:1047EC00019308BD4C02030008B5024B1B68DB6942
:1047FC00019308BD4C02030008B5024B1B681B6AF1
:10480C00019308BD4C02030008B5024B1B685B6B9F
:10481C00019308BD6002030008B5024B1B685B687E
:10482C00019308BD2002030008B5024B1B685B69AD
:10483C00019308BD2002030008B5034B1B68D3F895
:10484C008830019308BD00002002030008B5034B1B
:10485C001B68D3F89430019308BD000020020300BC
:10486C0008B5024B1B681B68019308BD440203008A
:10487C0008B5024B1B68DB6B019308BD44020300B7
:10488C0008B5024B1B685B68019308BD400203002E
:10489C0008B5024B1B689B68019308BD40020300DE
:1048AC0008B5024B1B68DB68019308BD400203008E
:1048BC0008B5024B1B681B69019308BD400203003D
:1048CC0008B5024B1B685B69019308BD40020300ED
:1048DC0008B5024B1B689B69019308BD400203009D
:1048EC0008B5024B1B68DB69019308BD400203004D
:1048FC0008B5024B1B681B6A019308BD40020300FC
:10490C0008B5024B1B681B6B019308BD40020300EA
:10491C0008B5024B1B685B6B019308BD400203009A
:10492C0008B5024B1B681B6C019308BD40020300C9
:10493C0008B5024B1B685B6C019308BD4002030079
:10494C0008B5024B1B681B68019308BD1C020300D1
:10495C0008B5024B1B685B68019308BD1C02030081
:10496C0008B5024B1B685B6A019308BD1C0203006F
:10497C0008B5024B1B681B6C019308BD1C0203009D
:10498C0008B5024B1B685B6C019308BD1C0203004D
:10499C000021FFF749BF0000024800230360FFF726
:1049AC001BBE00BFB8E60320002240681146FFF78B
:1049BC009FBF002240681146FFF7AABF4068002243
:1049CC00FFF79EBF4068002281F00101FFF788BF0E
:1049DC00002340681A461946FFF77ABF0023406847
:1049EC001A461946FFF76CBF002240681146FFF7C4
:1049FC005FBF002240681146FFF74ABF40680022A3
:104A0C000221FFF74DBF002340681A46FFF738BF5D
:104A1C00024B03225A60024A1A607047BCE603201C
:104A2C00C0580B007047F8B5064615460C468F1853
:104A3C00BC4206D0336814F8011B9B68304698477B
:104A4C00F6E72846F8BD007C0022FFF705BE007C87
:104A5C000021FFF709BE007C0021FFF70DBE007C92
:104A6C000021FFF711BE007C0021FFF715BE10B529
:104A7C0014210446FFF709FB204610BD10B54FF476
:104A8C007A73044608460021C4E90113034B2360E2
:104A9C0020741146FFF710FE204610BDFC580B0089
:104AAC00FFF7D2BDFFF7C8BD704710B518210446FB
:104ABC00FFF7EBFA204610BDF0B5037D062B8DB049
:104ACC000E4600F104074FF0000412D000F1080567
:104ADC0015F8011D0A22304600F04FF9AF4204448C
:104AEC0019D0002CF4D02E21304600F037F90444B4
:104AFC00EEE72F236A4639460A208DF80040FFF76F
:104B0C00E3FD684600F036FE33680246DB68694612
:104B1C0030469847044620460DB0F0BD10B5054B05
:104B2C000446112240F8043B002100F0EDFD204624
:104B3C0010BD00BF24590B000346074A10B543F8BB
:104B4C00042B01F1100251F8044B43F8044B914231
:104B5C00F9D10A781A7010BD24590B0010B59DF8C4
:104B6C00084044EA032343EA024242EA0161042377
:104B7C004160037510BD000007B5064B0360CB7890
:104B8C0000938B784A780978FFF7E8FF03B05DF85B
:104B9C0004FB00BF24590B00014B024A1A607047FA
:104BAC00C4E6032030590B00002340681A46FFF777
:104BBC0067BE406800220221FFF772BE00224068E7
:104BCC001146FFF765BE002240681146FFF770BE24
:104BDC00002340681A461946FFF772BE002340684E
:104BEC001A461946FFF774BE40680021FFF798BEBD
:104BFC0040680021FFF79CBE4068002281F0010153
:104C0C00FFF76EBE40680022FFF77ABE00224068B4
:104C1C001146FFF77DBE002240681146FFF768BEC3
:104C2C002DE9F04395B014460D460746FFF776FF85
:104C3C0000211C220DA8009100F066FD40230C936E
:104C4C0020466B460CAA0021FFF74EFD04460028B7
:104C5C004BD1024601216868FFF72AFE02218046EB
:104C6C0022466868FFF724FE009E81462146002EEE
:104C7C003BD0002939D17368022B03D00A2B11D0F9
:104C8C00F669F4E7B8F1000FFAD0716906A804319F
:104C9C0007ADFFF771FF0FCD3C1D0FC42B682370C0
:104CAC004146EDE7B9F1000FEAD07469102201A872
:104CBC0000F02AFD06238DF8143001AD04F1080331
:104CCC001834186859682A4603C20833A34215469B
:104CDC00F7D101A906A807ADFFF72EFF0FCD3C1D9C
:104CEC000FC42B6823704946CAE70098FFF7F4FC01
:104CFC00384615B0BDE8F083024B034A1A60002217
:104D0C005A607047C8E603203C590B00F8B50646BC
:104D1C000D468F180024BD420CD0336815F8011BCA
:104D2C009B6830469847031E01DB1C44F3E7002CBC
:104D3C0008BF1C462046F8BD13B50446084659B1B9
:104D4C00019100F017FD23680199DB6802462046AB
:104D5C0002B0BDE81040184702B010BD03689B6854
:104D6C00184738B50D210546FFF7F8FF0A21044610
:104D7C002846FFF7F3FF204438BD30B58BB0002335
:104D8C00012A8DF8243098BF0A2209AC0D46B1FBDC
:104D9C00F2F101FB125303F0FF03092B94BF3033E4
:104DAC003733DBB2AA4204F8013DEFD92146FFF7B5
:104DBC00C3FF0BB030BD2DE9F04186B000AF054606
:104DCC000E46381D142114463B60FFF7C9FD13280D
:104DDC000ED8391D2846FFF7AFFF04461EB12846F2
:104DEC00FFF7BFFF044420461837BD46BDE8F081ED
:104DFC0000F1080323F00703E846ADEB030D224650
:104E0C00411C3B686846FFF7ABFD69462846FFF737
:104E1C0093FF0446C546E1E7014B00229A607047B8
:104E2C00D0E6032010B5044608462170FFF764FC59
:104E3C0000236360204610BD054B02221A60054B0F
:104E4C00054A9A600020C3E90000FFF7E5BC00BFEB
:104E5C00ECE60320E0E603200000FFFF024B1A689B
:104E6C00024B1A60704700BF1CE60320F0E60320DB
:104E7C0070474174704708B5007CFFF77DFC20EA51
:104E8C00E07008BD08B5007CFFF74EFC20EAE0702E
:104E9C0008BD08B5007CFFF757FC40EAE07008BD80
:104EAC0008B5007CFFF748FC40EAE07008BD007CC8
:104EBC00FFF752BC37B5457C04462DB1207C03B0BE
:104ECC00BDE83040FFF728BC007C0191FFF754FC93
:104EDC0000280199F2DC284603B030BD10B514212E
:104EEC000446FFF7D2F8204610BD000010B54FF471
:104EFC007A730446084611460022C4E90123044B88
:104F0C002360012320746374FFF73EFC204610BD20
:104F1C0094590B00417470477047704708B50021D5
:104F2C00007CFFF759FC40EAE07008BD08B5012190
:104F3C00007CFFF751FC40EAE07008BD08B5007C2E
:104F4C00FFF742FC20EAE07008BD08B5007CFFF7D3
:104F5C0033FC20EAE07008BD13B50446007C0191D7
:104F6C00FFF732FC0028019901DC607C20B1207C29
:104F7C00FFF73AFC20EAE07002B010BD007CFFF7AE
:104F8C003BBC10B514210446FFF77FF8204610BD3A
:104F9C0010B54FF47A73044608460021C4E9011396
:104FAC00044B23600123207463741146FFF7F4FB58
:104FBC00204610BDC4590B00007C0022FFF7F4BB47
:104FCC0010B514220446002100F09EFB204610BDB3
:104FDC0010B50F4C88B003A8FFF7F2FF2178BFF390
:104FEC005B8F11F001010FD120460191FFF74FF8B3
:104FFC00019948B103AA0748FFF7CAFF2046FFF7FB
:10500C004BF8054800F06CFB024808B010BD00BF1F
:10501C00F4E60320F8E60320254F0B00002240683D
:10502C001146FFF745BC002240681146FFF760BCF3
:10503C00002240681146FFF76BBC40680022FFF766
:10504C005FBC4068002281F00101FFF749BC0023DE
:10505C0040681A461946FFF73BBC002340681A46C5
:10506C001946FFF72DBC002240681146FFF710BC13
:10507C00406800220221FFF713BC002340681A4647
:10508C00FFF7FEBB024B04225A60024A1A607047BB
:10509C000CE70320F4590B00014B1860704700BF5C
:1050AC0020E6032008B50B4B43B1FFF791FF0368D3
:1050BC001B699847002801DDAFF30080064B43B114
:1050CC0000F02CF903681B699847002801DDAFF349
:1050DC00008008BD000000000000000008B5FFF7CC
:1050EC00E1FFFFF791FA014B186008BD28E7032098
:1050FC000548064A064908B5121A00F0F7FA054B9E
:10510C00054A1A6008BD00BF00F4032004F4032014
:10511C00E45A0B0000F403201E1C279A07B5002349
:10512C0000931A466FF07701FFF790FB03B05DF820
:10513C0004FB000007B543880A2B08D0502B0BD179
:10514C00094B1B684BB103B05DF804EB1847FFF734
:10515C00E5FF03B05DF804FB002300931A466FF0E3
:10516C007701FFF773FBF4E718E7032010B512483B
:10517C000021FFF705FC114B1A68114B9A42114B99
:10518C000CBF012200221A7001D0FFF7B1FFFFF70C
:10519C002BFA044600F0C0FA0B4B13B12046AFF3C8
:1051AC00008000210848FFF763FBBDE8104007486A
:1051BC000021FFF741BB00BFA5500B0000F40320FA
:1051CC001E1C279A14E703200000000041510B001D
:1051DC00232813B502D9002002B010BDA0F10B0397
:1051EC00022B1AD8174C2178BFF35B8F11F00101F9
:1051FC000BD120460191FEF74AFF019928B11248C4
:10520C00FFF710FE2046FEF747FF0F4B1878FFF70D
:10521C007BFA0028DFD10120DEE7012809D800F055
:10522C003DF80021007CFFF73FFA80F00100C0B28E
:10523C00D2E709380128EED800F070F8007CFFF7AF
:10524C0093FAF2E71CE7032020E70320232838B564
:10525C0004460D460AD8FF2908D0FFF7B9FF28B13C
:10526C0029462046BDE83840FFF7DEB938BD704707
:10527C0038B5202514230446036085600561064972
:10528C00284600F06FF804496060284600F06AF880
:10529C00E060204638BD00BF285A0B0030B50E4DDB
:1052AC002978BFF35B8F11F0010487B011D1284628
:1052BC00FEF7EDFE68B101A8FFF7DAFF01AA21465F
:1052CC000648FFF7DBFB2846FEF7E6FE044800F035
:1052DC0007FA024807B030BD2CE7032030E7032063
:1052EC007B520B007047000038B5044614252A4643
:1052FC00002100F009FA2580402507492581284620
:10530C00258200F02FF804496060284600F02AF846
:10531C00E060204638BD00BF285A0B0030B50E4D5A
:10532C002978BFF35B8F11F0010487B011D12846A7
:10533C00FEF7ADFE68B101A8FFF7D6FF01AA214622
:10534C000648FFF7D3FD2846FEF7A6FE044800F0FA
:10535C00C7F9024807B030BD44E7032048E70320F3
:10536C00F1520B00FEF78FBE81F0004102E000BF4E
:10537C0083F0004330B54FEA41044FEA430594EA09
:10538C00050F08BF90EA020F1FBF54EA000C55EA44
:10539C00020C7FEA645C7FEA655C00F0E2804FEA15
:1053AC005454D4EB5555B8BF6D420CDD2C4480EAF7
:1053BC00020281EA030382EA000083EA010180EA27
:1053CC00020281EA0303362D88BF30BD11F0004F75
:1053DC004FEA01314FF4801C4CEA113102D04042AB
:1053EC0061EB410113F0004F4FEA03334CEA1333E6
:1053FC0002D0524263EB430394EA050F00F0A780FE
:10540C00A4F10104D5F1200E0DDB02FA0EFC22FAF8
:10541C0005F2801841F1000103FA0EF2801843FAEC
:10542C0005F359410EE0A5F120050EF1200E012ADD
:10543C0003FA0EFC28BF4CF0020C43FA05F3C0181B
:10544C0051EBE37101F0004507D54FF0000EDCF194
:10545C00000C7EEB00006EEB0101B1F5801F1BD33D
:10546C00B1F5001F0CD349085FEA30004FEA3C0C41
:10547C0004F101044FEA445212F5800F80F09A8037
:10548C00BCF1004F08BF5FEA500C50F1000041EB3B
:10549C00045141EA050130BD5FEA4C0C404141EB3F
:1054AC000101013C28BFB1F5801FE9D291F0000F3A
:1054BC0004BF01460020B1FA81F308BF2033A3F1E9
:1054CC000B03B3F120020CDA0C3208DD02F1140CE0
:1054DC00C2F10C0201FA0CF021FA02F10CE002F11B
:1054EC001402D8BFC2F1200C01FA02F120FA0CFC14
:1054FC00DCBF41EA0C019040E41AA2BF01EB04515D
:10550C00294330BD6FEA04041F3C1CDA0C340EDC5A
:10551C0004F11404C4F1200220FA04F001FA02F39D
:10552C0040EA030021FA04F345EA030130BDC4F15B
:10553C000C04C4F1200220FA02F001FA04F340EA50
:10554C000300294630BD21FA04F0294630BD94F001
:10555C00000F83F4801306BF81F480110134013DE8
:10556C004EE77FEA645C18BF7FEA655C29D094EA59
:10557C00050F08BF90EA020F05D054EA000C04BFD7
:10558C001946104630BD91EA030F1EBF00210020C2
:10559C0030BD5FEA545C05D14000494128BF41F061
:1055AC00004130BD14F580043CBF01F5801130BDC5
:1055BC0001F0004545F0FE4141F470014FF0000050
:1055CC0030BD7FEA645C1ABF194610467FEA655C01
:1055DC001CBF0B46024650EA013406BF52EA0335A3
:1055EC0091EA030F41F4002130BD00BF90F0000F91
:1055FC0004BF0021704730B54FF4806404F13204CD
:10560C004FF000054FF0000150E700BF90F0000F85
:10561C0004BF0021704730B54FF4806404F13204AC
:10562C0010F0004548BF40424FF000013EE700BF7C
:10563C0042004FEAE2014FEA31014FEA02701FBF0C
:10564C0012F07F4393F07F4F81F06051704732F03E
:10565C007F4208BF704793F07F4F04BF41F4002195
:10566C00704730B54FF4607401F0004521F00041F3
:10567C001CE700BF50EA010208BF704730B54FF07D
:10568C0000050AE050EA010208BF704730B511F07E
:10569C00004502D5404261EB41014FF4806404F1B6
:1056AC0032045FEA915C3FF4D8AE4FF003025FEA3C
:1056BC00DC0C18BF03325FEADC0C18BF033202EBC0
:1056CC00DC02C2F1200300FA03FC20FA02F001FA1A
:1056DC0003FE40EA0E0021FA02F11444BDE600BFBD
:1056EC00002301461A46184600F04CB80A44914271
:1056FC0000F1FF3300D1704710B511F8014B03F8DE
:10570C00014F9142F9D110BD02440346934200D19E
:10571C00704703F8011BF9E738B5104B1D68AB6BEC
:10572C000446B3B91820FFF70BF90246A86320B959
:10573C000B4B0C484221FFF71BF90B490B4BC0E9F3
:10574C0000130B4B83600B23838100210120C2E9E2
:10575C000401AB6B00221C615A6138BD20E60320AA
:10576C00295A0B00405A0B000E33CDAB34126DE6A8
:10577C00ECDE0500034613F8012B002AFBD1181AA6
:10578C00013870472DE9F843DFF8B8800646D8F8A1
:10579C0000001F460D46914600F056F8254B1C683C
:1057AC0034B9254C1C60254B13B11B68C4F88830E8
:1057BC0063681F2B07DDD8F8000000F047F84FF0A6
:1057CC00FF30BDE8F8834EB3D4F8880088B91C4B81
:1057DC0023B9D8F8000000F038F8F0E74FF48470E3
:1057EC00FFF7AEF80028F4D00023C0E94033C4F82A
:1057FC008800636840F8239001229A4000EB8301F3
:10580C00D0F800311343C0F80031022EC1F880707B
:10581C0002BFD0F804311343C0F804316368D8F8E0
:10582C0000005A1C0233626044F8235000F00EF85A
:10583C000020C6E7E8E703205CE703200000000037
:10584C004D490B0084E603207047704770470000F9
:10585C001D400B0059400B0081400B0085400B0094
:10586C000000000074656D700068756D6964697482
:10587C00790054656D703A2025660048756D696431
:10588C006974793A20256600417373657274696F87
:10589C006E4661696C757265202A705F70696E2046
:1058AC003C20283332202B20313629000000000008
:1058BC0000000000134A0B00094A0B00FF490B00C3
:1058CC00F5490B00E9490B00DD490B00F54B0B00CA
:1058DC00FD4B0B00D1490B00C9490B00BF490B0014
:1058EC00B5490B002D4C0B0000000000000000001F
:1058FC00314A0B007B4A0B00534A0B00334A0B0016
:10590C005B4A0B00634A0B006B4A0B00734A0B009B
:10591C000000000000000000C54A0B00B54A0B0057
:10592C00B74A0B006170700000000000000000001E
:10593C00B54B0B00BF4B0B00C94B0B00D34B0B00F3
:10594C00DD4B0B00E94B0B00F54B0B00FD4B0B003B
:10595C00054C0B00114C0B00194C0B00234C0B008D
:10596C002D4C0B0025592D256D2D25645425483AB9
:10597C00254D3A2553257A0061736374696D650072
:10598C0000000000000000007D4E0B00E94E0B00F3
:10599C00C14E0B00194D0B00914E0B00AD4E0B0080
:1059AC009F4E0B00BB4E0B007F4E0B00834E0B002B
:1059BC000000000000000000274F0B008F4F0B0071
:1059CC00654F0B00194D0B00574F0B00294F0B0067
:1059DC00394F0B00894F0B00494F0B00214F0B0027
:1059EC00000000000000000087500B007D500B00F1
:1059FC0073500B0029500B0067500B005B500B00D1
:105A0C00F54B0B00FD4B0B004F500B0047500B00A0
:105A1C003D500B0033500B002D4C0B0000524545F4
:105A2C004E54206D616C6C6F632073756363656598
:105A3C00646564002F746D702F6A656E6B696E738C
:105A4C002D4743432D31302D706970656C696E653F
:105A5C002D34385F32303230313132345F313630C0
:105A6C00363138303633392F7372632F6E65776C5D
:105A7C0069622F6E65776C69622F6C6962632F7334
:105A8C0074646C69622F72616E642E630000000096
:105A9C0081410B00A5490B001D4A0B00A54B0B00C7
:105AAC00054D0B00254E0B00454E0B00694E0B00AF
:045ABC0091500B00FA
:105AC000040000001400000003000000474E5500D1
:105AD0009F04951281D9F49B8E9AF3174DD1311BF7
:045AE0000DE3FA5088
:045AE40000000000BE
:105AE80084590B0024E60320000000000000000099
:105AF800000000000000000000000000000000009E
:105B0800000000000000000000000000000000008D
:105B1800000000000000000000000000000000007D
:105B2800000000000000000000000000000000006D
:105B3800000000000000000000000000000000005D
:0C5B48000000000000000000ECE703205B
:105B5400FFFFFFFF00000102030405060708090A0E
:105B64000B0C0D0E0F101112131415161718191A09
:085B74001B1C1D1E1F20280050
:045B7C007856341211
:04000003B000401CED
:00000001FF
