:02000002B0004C
:1040000000400B0004680B00000006000C000502D5
:084010000401A30F00000000F1
:04401800F0640B0045
:1040200009480A49884208B505D0094A824202D0A7
:10403000121A02F08DF90748074A0021121A02F0FD
:1040400095F9014808BD00BF3CE6032070670B00EE
:10405000A8E60320A8E60320EDE7032070B5074E8D
:10406000074C01F03FFAA41BA4080025AC4200D184
:1040700070BD56F8043B98470135F7E718670B0009
:104080003C670B0000F015B808B500F019F8BDE862
:10409000084001F0DFB900F019BA00F017BA00F0DB
:1040A0001DBA0078B0FA80F0400970470123037010
:1040B00070470021132001F085BA000000000000C5
:1040C00010B513208AB001F08EFA01F077FC9FED55
:1040D000203B9FED214BB0EE431AF0EE631A9FEDAB
:1040E000202B41EC100B00F029FA1F4B51EC100B68
:1040F00083ED000B00221D4B8DED020B01F058FFEC
:104100009DED020B10B3062106A801F00AF8184B2A
:10411000069A1B788DF8003016493C2304A800F05D
:10412000CFFB059C7CB16368013B63605BB923688E
:1041300020469B689847A368013BA3601BB923688E
:104140002046DB68984706A800F08EFF0AB010BD35
:1041500000000000000000000000000000005940C6
:104160000000000000FEAF40B0E603200000494020
:10417000A8E6032004650B00014B01221A7070476A
:10418000A8E6032008B5024B1B685B6C019308BDD1
:104190004802030008B5024B1B685B68019308BD29
:1041A0001802030008B5024B1B685B69019308BD48
:1041B0001802030008B5024B1B685B68019308BD39
:1041C0002C02030008B5024B1B689B68019308BDD5
:1041D0002C02030008B5024B1B681B6B019308BD42
:1041E0002C02030008B5024B1B681B6A019308BD33
:1041F0002802030008B5024B1B685B6A019308BDE7
:104200002802030008B5024B1B689B6A019308BD96
:104210002802030008B5024B1B68DB6A019308BD46
:104220002802030008B5024B1B681B6B019308BDF5
:104230002802030008B5024B1B685B6B019308BDA5
:104240002802030008B5024B1B681B6C019308BDD4
:104250002802030008B5024B1B685B69019308BD87
:104260006402030008B5024B1B689B68019308BDFC
:104270006802030008B5024B1B68DB68019308BDA8
:104280006802030008B5024B1B68DB69019308BD97
:104290003002030008B5024B1B681B6A019308BD7E
:1042A0003002030008B5024B1B68DB68019308BDB0
:1042B0003C02030008B5024B1B681B69019308BD53
:1042C0003C02030008B5024B1B685B69019308BD03
:1042D0003C02030008B5024B1B689B69019308BDB3
:1042E0003C02030008B5024B1B68DB69019308BD63
:1042F0003C02030008B5024B1B681B6A019308BD12
:104300003C02030008B5024B1B689B6A019308BD81
:104310003C02030008B5024B1B681B6C019308BDEF
:104320003C02030008B5024B1B681B68019308BDE3
:104330004C02030008B5024B1B681B69019308BDC2
:104340004C02030008B5024B1B685B69019308BD72
:104350004C02030008B5024B1B689B69019308BD22
:104360004C02030008B5024B1B68DB69019308BDD2
:104370004C02030008B5024B1B681B6A019308BD81
:104380004C02030008B5024B1B685B68019308BD33
:104390002002030008B5024B1B68DB6C019308BDCB
:1043A0002002030008B5024B1B685B6D019308BD3A
:1043B0002002030008B5034B1B68D3F88830019333
:1043C00008BD00002002030008B5034B1B68D3F8AA
:1043D0009430019308BD00002002030008B5024B91
:1043E0001B685B69019308BD4402030008B5024BDA
:1043F0001B681B6A019308BD4402030008B5024B09
:104400001B68DB6B019308BD4402030008B5024B37
:104410001B685B68019308BD4002030008B5024BAE
:104420001B689B68019308BD4002030008B5024B5E
:104430001B68DB68019308BD4002030008B5024B0E
:104440001B681B69019308BD4002030008B5024BBD
:104450001B685B69019308BD4002030008B5024B6D
:104460001B689B69019308BD4002030008B5024B1D
:104470001B68DB69019308BD4002030008B5024BCD
:104480001B681B6A019308BD4002030008B5024B7C
:104490001B681B6B019308BD4002030008B5024B6B
:1044A0001B685B6B019308BD4002030008B5024B1B
:1044B0001B681B6C019308BD4002030008B5024B4A
:1044C0001B685B6C019308BD4002030008B5024BFA
:1044D0001B681B68019308BD1C02030008B5024B52
:1044E0001B685B68019308BD1C02030008B5024B02
:1044F0001B689B68019308BD1C02030008B5024BB2
:104500001B68DB6A019308BD1C02030008B5024B5F
:104510001B681B6B019308BD1C02030008B5024B0E
:104520001B681B6C019308BD1C02030008B5024BFD
:104530001B685B6C019308BD1C0203002DE9F04F62
:1045400055EC114B57EC126B85B011EE102A12EEA0
:10455000100A2B4639468DED020B8DED004B5BECBE
:1045600013AB01F0FDFC9DED020B38BB51EC100BC1
:1045700022462B4601F0D4F85246804689465B46D7
:10458000DDE9000101F0CCF802460B464046494601
:1045900001F07EFA2246804689462B46304639464F
:1045A00001F0BEF802460B464046494601F09AFB30
:1045B00052465B4601F0B6F841EC100B05B0BDE881
:1045C000F08F10B5836804460BB901F0A1F8C368F9
:1045D0009847A3681BB103222146204698472046EE
:1045E0001021BDE81040FFF75ABD10B5836804469E
:1045F00013B1032201469847204610BD10B5436809
:10460000013B0446436063B903689B689847A3680D
:10461000013BA3602BB923682046DB68BDE810404E
:10462000184710BD10B50446006808B1FFF7E6FF53
:10463000204610BD13B50B460246D0E900016C467A
:1046400084E8030093E8030082E8030094E8030091
:1046500083E8030002B010BD024800230360FFF7A7
:1046600091BD00BFB8E6032070470020704710B529
:1046700010210446FFF713FD204610BD08B5FFF7D3
:10468000F6FF08BD30B500224FF69C7402608480AE
:104690008D888C800C68858004600A6030BD10B500
:1046A00004460068FFF71AFF204610BD38B5C468FD
:1046B000F4B12378022B03D104F10C00FFF7EFFFD4
:1046C000656835B12846FFF790FF10212846FFF7AF
:1046D000E6FCA56835B12846FFF787FF102128467C
:1046E000FFF7DDFC20461421BDE83840FFF7D7BCBA
:1046F00038BD0B6803604B68436013B15A680132E0
:104700005A60704737B5044668460D46FFF7F1FF1B
:10471000009B019A23606260002301A8019300932B
:10472000FFF780FF35B1281DFFF77CFF08212846E1
:10473000FFF7B5FC204603B030BD826810B50AB95A
:1047400000F0E6FFBDE81040C368184708B50068F0
:1047500000F11001FFF7F1FF08BD826810B50AB93A
:1047600000F0D6FFBDE81040C368184708B50068E0
:1047700000F11001FFF7F1FF08BD000038B500237C
:104780000446036010200D46FFF785FC28B1012385
:10479000C0E90133024B0360C5602060204638BD8C
:1047A00020650B0038B5002383608B6804460D46F6
:1047B0002BB102229847EB68E360AB68A360204608
:1047C00038BD0000F0B589B004686846FFF75AFFAD
:1047D0004FF00203D4E84F2F002A03D1C4E8413F31
:1047E0000029F7D125D104F10C0569462846FFF7C9
:1047F00049FFBFF35B8F01236370002004F10803BE
:10480000BFF35B8F53E8006F43E80002002AF9D141
:10481000BFF35B8F6EB1FFF7BDFD78B1294630461F
:10482000FFF78BFF3046FFF7E0FE10213046FFF721
:1048300036FC6846FFF733FF09B0F0BD314602A8E9
:10484000FFF7B0FFE068B4F9105008B101F0C4FD03
:1048500006901020ADF81C50FFF71DFC0546E8B18E
:10486000002787601820FFF716FC044688B1014630
:10487000876002A8FFF7DEFE049BA268A360059B89
:10488000049206A9E268E36004F110000592FFF7C4
:10489000F9FE084BEB60084B2C60AB6006A8FFF7F5
:1048A000FEFE02A8FFF7A1FE002229460348FFF7FB
:1048B00079FDB7E74D470B00D1490B00C3450B000D
:1048C0002DE9F04F8BB005469DF850A00F4690465D
:1048D0009946FFF783FD07AE834638BB4FF62E732C
:1048E000059005A93046ADF81830FFF7CBFE14202F
:1048F000FFF7D1FB044648B1022303700123C0E94E
:1049000001BB437031460C30FFF7BCFE2846214600
:1049100040F8044BFFF732FF3046FFF7C0FE05A812
:10492000FFF7BDFE28460BB0BDE8F08F0C23002436
:104930001420CDE908440793FFF7ADFB014618B1F9
:10494000C0E901440470447004A80391FFF716FF06
:104950001E4B08930820FFF79EFB044610B103A9E5
:10496000FFF7C7FE00965FFA8AF34A46414638468B
:104970000994FFF73BFDB8B9039B5B7803F0FF0296
:1049800093B94FF69C7305A903A80592ADF81830AA
:10499000FFF718FF05A8FFF782FE05A80999FFF7A2
:1049A000B1FE06A8FFF73EFE03A905A8FFF7A1FE8A
:1049B000059B069A2B606A60002306A80693059360
:1049C000FFF730FE04A8FFF72DFEABE74D4A0B00C2
:1049D000012AF8B5054603D10B6803600020F8BD35
:1049E000022A10D0032AF9D10468002CF6D004F171
:1049F0001000FFF754FE2046FFF7F7FD1821204670
:104A0000FFF74DFBEAE718200E68FFF744FB04466A
:104A100050B13146FFF7C6FE3069B6F9147008B1DF
:104A200001F0DAFC2061A7822C60D7E738B50023BB
:104A300083608B6804460D462BB102229847EB68D1
:104A4000E360AB68A360204638BD0000F0B589B0D4
:104A500004460D4601A81146FFF754FEA4B124B246
:104A60001DB1284601F0B8FC054601A803A903952D
:104A7000ADF81040FFF7A6FE03A8FFF710FE02A84E
:104A8000FFF7D0FD09B0F0BD019D0123D5E84F2F00
:104A9000002A03D1C5E8413F0029F7D1EFD12B739C
:104AA000BFF35B8F6B702B1DBFF35B8F53E8006F01
:104AB00043E80042002AF9D1BFF35B8F002EDED01D
:104AC0002046FFF767FC074660B105F10C01304650
:104AD000FFF743FE3046FFF788FD10213046FFF711
:104AE000DEFACCE7314603A8FFF7A0FF2B7B8DF859
:104AF0001C301020FFF7CFFA0546D0B18760142094
:104B0000FFF7C9FA044678B18760014603A8FFF7AA
:104B100091FD059BA268A360069B0592E268E36095
:104B20009DF81C3006922374064BEB60064B2C60FC
:104B3000AB6003A8FFF759FD002229460348FFF7A1
:104B400031FCC7E76D470B00514B0B00C3450B0011
:104B5000012A70B5044603D10B680360002070BDC4
:104B6000022A0CD0032AF9D10468002CF6D0204682
:104B7000FFF73BFD14212046FFF791FAEEE71420E2
:104B80000E68FFF788FA054620B13146FFF74EFF61
:104B9000337C2B742560E1E7002240681146FFF763
:104BA0006DBC002240681146FFF778BC40680022C7
:104BB000FFF76CBC4068002281F00101FFF756BC92
:104BC000002340681A461946FFF748BC0023406896
:104BD0001A461946FFF73ABC002240681146FFF713
:104BE0002DBC002240681146FFF718BC4068002227
:104BF0000221FFF71BBC002340681A46FFF706BCE2
:104C0000024B03225A60024A1A607047BCE6032036
:104C10003C650B007047F8B5064615460C468F18E4
:104C2000BC4206D0336814F8011B9B683046984795
:104C3000F6E72846F8BD007C0022FFF7D3BA007CD7
:104C40000021FFF7D7BA007C0021FFF7DBBA007C18
:104C50000021FFF7DFBA007C0021FFF7E3BA10B5AF
:104C600014210446FFF71BFA204610BD10B54FF47F
:104C70007A73044608460021C4E90113034B2360FC
:104C800020741146FFF7DEFA204610BD78650B0050
:104C9000704710B518210446FFF701FA204610BDF1
:104CA000F0B5037D062B8DB00E4600F104074FF0E2
:104CB000000412D000F1080515F8011D0A22304643
:104CC00000F043F9AF42044419D0002CF4D02E2157
:104CD000304600F037F90444EEE72F236A463946A0
:104CE0000A208DF80040FFF7B5FA684601F091FB05
:104CF00033680246DB6869463046984704462046DA
:104D00000DB0F0BD10B5054B0446112240F8043B30
:104D1000002101F02BFB204610BD00BFA0650B0059
:104D20000346074A10B543F8042B01F1100251F86D
:104D3000044B43F8044B9142F9D10A781A7010BD24
:104D4000A0650B0010B59DF8084044EA032343EA30
:104D5000024242EA016104234160037510BD000074
:104D600007B5064B0360CB7800938B784A780978B7
:104D7000FFF7E8FF03B05DF804FB00BFA0650B0080
:104D8000014B024A1A607047C4E60320AC650B0071
:104D9000002340681A46FFF739BB40680022022111
:104DA000FFF744BB002240681146FFF737BB0022E3
:104DB00040681146FFF742BB002340681A46194677
:104DC000FFF744BB002340681A461946FFF746BB6D
:104DD00040680021FFF76ABB40680021FFF76EBB07
:104DE0004068002281F00101FFF740BB40680022CB
:104DF000FFF74CBB002240681146FFF74FBB002273
:104E000040681146FFF73ABB2DE9F04395B01446D0
:104E10000D460746FFF776FF00211C220DA80091E2
:104E200001F0A4FA40230C9320466B460CAA002103
:104E3000FFF720FA044600284BD10246012168689A
:104E4000FFF7FCFA0221804622466868FFF7F6FA6F
:104E5000009E81462146002E3BD0002939D173683F
:104E6000022B03D00A2B11D0F669F4E7B8F1000F3A
:104E7000FAD0716906A8043107ADFFF771FF0FCDB5
:104E80003C1D0FC42B6823704146EDE7B9F1000FBC
:104E9000EAD07469102201A801F068FA06238DF89F
:104EA000143001AD04F108031834186859682A4613
:104EB00003C20833A3421546F7D101A906A807ADDE
:104EC000FFF72EFF0FCD3C1D0FC42B682370494602
:104ED000CAE70098FFF7C6F9384615B0BDE8F08379
:104EE000024B034A1A6000225A607047C8E603204A
:104EF000B8650B00F8B506460D468F180024BD4274
:104F00000CD0336815F8011B9B6830469847031E88
:104F100001DB1C44F3E7002C08BF1C462046F8BD0B
:104F200013B50446084659B1019101F072FA23689D
:104F30000199DB680246204602B0BDE810401847E0
:104F400002B010BD03689B68184730B58BB00023D2
:104F5000012A8DF8243098BF0A2209AC0D46B1FB16
:104F6000F2F101FB125303F0FF03092B94BF30331E
:104F70003733DBB2AA4204F8013DEFD92146FFF7EF
:104F8000CFFF0BB030BD0000014B00229A6070478C
:104F9000D0E6032010B5044608462170FFF772F9E9
:104FA00000236360204610BD2DE9F14F57EC106BD4
:104FB00080460C4610EE100A00220023394600F00D
:104FC000D9FF28B107F100431F462D2304F8013B08
:104FD00000234FF001090A22D9B2884503D902FB08
:104FE00009F90133F8E7484600F0E8FC32463B4651
:104FF00000F04EFD06460F4601F01CF88A460546B5
:105000008B4600F00FFD02460B463046394600F055
:1050100087FB144B002200F0C1FF10B101354AF1AB
:10502000000B4A462846D317594600F0EBFF0123F0
:10503000154621460A2200F0C6F9B8F1000F0ED03D
:10504000204601F0E6F92E23211823540A22434674
:105050000131284601B0BDE8F04F00F0B4B901B00D
:10506000BDE8F08F0000E03F10B504460068FFF790
:1050700035FA204610BD10B50446006808B1FFF7A8
:105080002DFA0023C4E90133236010BD38B504466E
:105090000D4600680131FFF729FA10B1C4E9000597
:1050A000012038BD10B50368044623B143688B4224
:1050B00001D3012010BD2046FFF7E8FF0028F9D0FA
:1050C000A368002BF5D122681370F2E737B50D46BF
:1050D000114601920446FFF7E5FF019A28B92046E0
:1050E000FFF7C9FF204603B030BDA2602946206803
:1050F00001F02EF92268A3680021D154F2E713B51C
:10510000044659B10846019101F083F9019902461C
:105110002046FFF7DBFF204602B010BDFFF7ABFFD4
:10512000F9E710B504468AB000230846C4E9003305
:10513000A360237301A9C0B2FFF736FF01A920467F
:10514000FFF7DDFF20460AB010BD0000054B02222C
:105150001A60054B054A9A600020C3E90000FFF77A
:1051600011B900BFECE60320E0E603200000FFFFDA
:10517000024B1A68024B1A60704700BF3CE60320DE
:10518000F0E6032070474174704708B5007CFFF7D4
:10519000B9F820EAE07008BD08B5007CFFF78AF88E
:1051A00020EAE07008BD08B5007CFFF793F840EAFC
:1051B000E07008BD08B5007CFFF784F840EAE070B5
:1051C00008BD007CFFF78EB837B5457C04462DB18D
:1051D000207C03B0BDE83040FFF764B8007C01914B
:1051E000FFF790F800280199F2DC284603B030BDA3
:1051F00010B514210446FEF752FF204610BD0000F2
:1052000010B54FF47A730446084611460022C4E9EB
:105210000123044B2360012320746374FFF77AF8A1
:10522000204610BD10660B004174704770477047F0
:1052300008B50021007CFFF78DF840EAE07008BD5A
:1052400008B50121007CFFF785F840EAE07008BD51
:1052500008B5007CFFF776F820EAE07008BD08B5D5
:10526000007CFFF767F820EAE07008BD13B504463C
:10527000007C0191FFF766F80028019901DC607C51
:1052800020B1207CFFF76EF820EAE07002B010BD7C
:10529000007CFFF76FB810B514210446FEF7FFFE3F
:1052A000204610BD10B54FF47A730446084600211D
:1052B000C4E90113044B2360012320746374114675
:1052C000FFF730F8204610BD40660B0010B51422E1
:1052D0000446002101F04AF8204610BD10B50F4CDD
:1052E00088B003A8FFF7F2FF2178BFF35B8F11F0BE
:1052F00001010FD120460191FEF7D3FE019948B17B
:1053000003AA0748FFF7CEFF2046FEF7CFFE054869
:1053100001F018F8024808B010BD00BFF4E6032001
:10532000F8E603202D520B00002240681146FFF7DB
:1053300085B8002240681146FFF7A0B800224068F7
:105340001146FFF7ABB840680022FFF79FB84068EE
:10535000002281F00101FFF789B8002340681A4656
:105360001946FFF77BB8002340681A461946FFF735
:105370006DB8002240681146FFF750B8406800221F
:105380000221FFF753B8002340681A46FFF73EB8E2
:10539000024B04225A60024A1A6070470CE703204D
:1053A00070660B0010B5044601F033F8013823187D
:1053B0002046834206D90278197800F8011B03F8C9
:1053C0000129F6E710BD70B50C46911E22291DD8A3
:1053D000254630B9234430229D4210D205F8012BD6
:1053E000FAE7B0FBF2F602FB1600C1B2092894BF3F
:1053F00030315731C9B205F8011B3046E9E70023C7
:1054000020462B70FFF7CEFF204670BD0020FCE742
:10541000014B1860704700BF40E6032008B50B4BF6
:1054200043B1FFF75BFF03681B699847002801DD64
:10543000AFF30080064B43B100F044F903681B69E9
:105440009847002801DDAFF3008008BD0000000090
:105450000000000008B5FFF7E1FFFEF7A3FE014BD7
:10546000186008BD28E703200548064A064908B524
:10547000121A00F06DFF054B054A1A6008BD00BF07
:1054800000F4032004F403206C670B0000F40320F5
:105490001E1C279A07B5002300931A466FF0770168
:1054A000FEF792FF03B05DF804FB000007B54388E8
:1054B0000A2B08D0502B0BD1094B1B684BB103B002
:1054C0005DF804EB1847FFF7E5FF03B05DF804FB58
:1054D000002300931A466FF07701FEF775FFF4E79B
:1054E00018E7032010B512480021FFF71FF8114BF1
:1054F0001A68114B9A42114B0CBF012200221A70FC
:1055000001D0FFF7B1FFFEF745FE044600F036FF7D
:105510000B4B13B12046AFF3008000210848FEF783
:105520006DFFBDE8104007480021FEF743BF00BFF4
:1055300011540B0000F403201E1C279A14E70320CB
:1055400000000000AD540B00232813B502D9002041
:1055500002B010BDA0F10B03022B1AD8174C217812
:10556000BFF35B8F11F001010BD120460191FEF7D3
:1055700098FD019928B11248FFF70CFD2046FEF76F
:1055800095FD0F4B1878FEF785FE0028DFD101202E
:10559000DEE7012809D800F055F80021007CFEF76D
:1055A00049FE80F00100C0B2D2E709380128EED8E8
:1055B00000F088F8007CFEF79DFEF2E71CE7032070
:1055C00020E70320232838B504460D460AD8FF29D2
:1055D00008D0FFF7B9FF28B129462046BDE838407A
:1055E000FEF7F0BD38BD0D2810B504469CBF0E3443
:1055F000A4B22046FFF7A8FF50B103212046FEF7D2
:10560000D9FD032804D12046BDE81040FEF7E2BDD5
:10561000002010BD7047000038B520251423044633
:105620000360856005610649284600F06FF804496B
:105630006060284600F06AF8E060204638BD00BF90
:10564000A4660B0030B50E4D2978BFF35B8F11F0C7
:10565000010487B011D12846FEF723FD68B101A8E7
:10566000FFF7DAFF01AA21460648FFF7FFFA2846AE
:10567000FEF71CFD044800F065FE024807B030BD8F
:105680002CE7032030E7032015560B00704700007D
:1056900038B5044614252A46002100F067FE25800F
:1056A0004025074925812846258200F02FF8044926
:1056B0006060284600F02AF8E060204638BD00BF50
:1056C000A4660B0030B50E4D2978BFF35B8F11F047
:1056D000010487B011D12846FEF7E3FC68B101A8A8
:1056E000FFF7D6FF01AA21460648FFF789FD2846A5
:1056F000FEF7DCFC044800F025FE024807B030BD90
:1057000044E7032048E703208D560B00FEF7C5BC95
:1057100008B5FEF7F3FE000081F0004102E000BF93
:1057200083F0004330B54FEA41044FEA430594EA61
:10573000050F08BF90EA020F1FBF54EA000C55EA9C
:10574000020C7FEA645C7FEA655C00F0E2804FEA6D
:105750005454D4EB5555B8BF6D420CDD2C4480EA4F
:10576000020281EA030382EA000083EA010180EA7F
:10577000020281EA0303362D88BF30BD11F0004FCD
:105780004FEA01314FF4801C4CEA113102D0404203
:1057900061EB410113F0004F4FEA03334CEA13333E
:1057A00002D0524263EB430394EA050F00F0A78056
:1057B000A4F10104D5F1200E0DDB02FA0EFC22FA51
:1057C00005F2801841F1000103FA0EF2801843FA45
:1057D00005F359410EE0A5F120050EF1200E012A36
:1057E00003FA0EFC28BF4CF0020C43FA05F3C01874
:1057F00051EBE37101F0004507D54FF0000EDCF1ED
:10580000000C7EEB00006EEB0101B1F5801F1BD395
:10581000B1F5001F0CD349085FEA30004FEA3C0C99
:1058200004F101044FEA445212F5800F80F09A808F
:10583000BCF1004F08BF5FEA500C50F1000041EB93
:10584000045141EA050130BD5FEA4C0C404141EB97
:105850000101013C28BFB1F5801FE9D291F0000F92
:1058600004BF01460020B1FA81F308BF2033A3F141
:105870000B03B3F120020CDA0C3208DD02F1140C38
:10588000C2F10C0201FA0CF021FA02F10CE002F173
:105890001402D8BFC2F1200C01FA02F120FA0CFC6C
:1058A000DCBF41EA0C019040E41AA2BF01EB0451B5
:1058B000294330BD6FEA04041F3C1CDA0C340EDCB3
:1058C00004F11404C4F1200220FA04F001FA02F3F6
:1058D00040EA030021FA04F345EA030130BDC4F1B4
:1058E0000C04C4F1200220FA02F001FA04F340EAA9
:1058F0000300294630BD21FA04F0294630BD94F05A
:10590000000F83F4801306BF81F480110134013D40
:105910004EE77FEA645C18BF7FEA655C29D094EAB1
:10592000050F08BF90EA020F05D054EA000C04BF2F
:105930001946104630BD91EA030F1EBF002100201A
:1059400030BD5FEA545C05D14000494128BF41F0B9
:10595000004130BD14F580043CBF01F5801130BD1D
:1059600001F0004545F0FE4141F470014FF00000A8
:1059700030BD7FEA645C1ABF194610467FEA655C59
:105980001CBF0B46024650EA013406BF52EA0335FB
:1059900091EA030F41F4002130BD00BF90F0000FE9
:1059A00004BF0021704730B54FF4806404F1320425
:1059B0004FF000054FF0000150E700BF90F0000FDE
:1059C00004BF0021704730B54FF4806404F1320405
:1059D00010F0004548BF40424FF000013EE700BFD5
:1059E00042004FEAE2014FEA31014FEA02701FBF65
:1059F00012F07F4393F07F4F81F06051704732F097
:105A00007F4208BF704793F07F4F04BF41F40021ED
:105A1000704730B54FF4607401F0004521F000414B
:105A20001CE700BF50EA010208BF704730B54FF0D5
:105A300000050AE050EA010208BF704730B511F0D6
:105A4000004502D5404261EB41014FF4806404F10E
:105A500032045FEA915C3FF4D8AE4FF003025FEA94
:105A6000DC0C18BF03325FEADC0C18BF033202EB18
:105A7000DC02C2F1200300FA03FC20FA02F001FA72
:105A800003FE40EA0E0021FA02F11444BDE600BF15
:105A900070B54FF0FF0C4CF4E06C1CEA11541DBFC4
:105AA0001CEA135594EA0C0F95EA0C0F00F0DEF88F
:105AB0002C4481EA030621EA4C5123EA4C5350EA74
:105AC000013518BF52EA033541F4801143F48013C5
:105AD00038D0A0FB02CE4FF00005E1FB02E506F056
:105AE0000042E0FB03E54FF00006E1FB03569CF0AB
:105AF000000F18BF4EF0010EA4F1FF04B6F5007FB1
:105B000064F5407404D25FEA4E0E6D4146EB060622
:105B100042EAC62141EA55514FEAC52040EA5E50AB
:105B20004FEACE2EB4F1FD0C88BFBCF5E06F1ED855
:105B3000BEF1004F08BF5FEA500E50F1000041EB8C
:105B4000045170BD06F0004646EA010140EA020039
:105B500081EA0301B4EB5C04C2BFD4EB0C0541EA5B
:105B6000045170BD41F480114FF0000E013C00F370
:105B7000AB8014F1360FDEBF002001F0004170BD94
:105B8000C4F10004203C35DA0C341BDC04F11404AD
:105B9000C4F1200500FA05F320FA04F001FA05F239
:105BA00040EA020001F0004221F0004110EBD37006
:105BB00021FA04F642EB06015EEA430E08BF20EA32
:105BC000D37070BDC4F10C04C4F1200500FA04F3D5
:105BD00020FA05F001FA04F240EA020001F0004167
:105BE00010EBD37041F100015EEA430E08BF20EADA
:105BF000D37070BDC4F1200500FA05F24EEA020E22
:105C000020FA04F301FA05F243EA020321FA04F050
:105C100001F0004121FA04F220EA020000EBD37007
:105C20005EEA430E08BF20EAD37070BD94F0000F07
:105C30000FD101F00046400041EB010111F4801F3B
:105C400008BF013CF7D041EA060195F0000F18BFEC
:105C5000704703F00046520043EB030313F4801F28
:105C600008BF013DF7D043EA0603704794EA0C0FE2
:105C70000CEA135518BF95EA0C0F0CD050EA4106F8
:105C800018BF52EA4306D1D181EA030101F0004175
:105C90004FF0000070BD50EA410606BF104619469D
:105CA00052EA430619D094EA0C0F02D150EA0136A9
:105CB00013D195EA0C0F05D152EA03361CBF1046EA
:105CC00019460AD181EA030101F0004141F0FE4189
:105CD00041F470014FF0000070BD41F0FE4141F40D
:105CE000780170BD70B54FF0FF0C4CF4E06C1CEA0D
:105CF00011541DBF1CEA135594EA0C0F95EA0C0FC2
:105D000000F0A7F8A4EB050481EA030E52EA03357C
:105D10004FEA013100F088804FEA03334FF080559D
:105D200045EA131343EA12634FEA022245EA1115CA
:105D300045EA10654FEA00260EF000419D4208BF7B
:105D4000964244F1FD0404F5407402D25B084FEA28
:105D50003202B61A65EB03055B084FEA32024FF4D4
:105D600080104FF4002CB6EB020E75EB030E22BF31
:105D7000B61A754640EA0C005B084FEA3202B6EBF1
:105D8000020E75EB030E22BFB61A754640EA5C00A0
:105D90005B084FEA3202B6EB020E75EB030E22BF30
:105DA000B61A754640EA9C005B084FEA3202B6EB31
:105DB000020E75EB030E22BFB61A754640EADC00F0
:105DC00055EA060E18D04FEA051545EA16754FEA52
:105DD00006164FEAC30343EA52734FEAC2025FEA70
:105DE0001C1CC0D111F4801F0BD141EA00014FF0FF
:105DF00000004FF0004CB6E711F4801F04BF0143D0
:105E00000020B4F1FD0C88BFBCF5E06F3FF6AFAEEB
:105E1000B5EB030C04BFB6EB020C5FEA500C50F17B
:105E2000000041EB045170BD0EF0004E4EEA1131FE
:105E300014EB5C04C2BFD4EB0C0541EA045170BD05
:105E400041F480114FF0000E013C90E645EA060E49
:105E50008DE60CEA135594EA0C0F08BF95EA0C0F77
:105E60003FF43BAF94EA0C0F0AD150EA01347FF4BF
:105E700034AF95EA0C0F7FF425AF104619462CE796
:105E800095EA0C0F06D152EA03353FF4FDAE1046F9
:105E9000194622E750EA410618BF52EA43067FF44A
:105EA000C5AE50EA41047FF40DAF52EA43057FF4DA
:105EB000EBAE12E74FF0FF3C06E000BF4FF0010CE5
:105EC00002E000BF4FF0010C4DF804CD4FEA410C49
:105ED0007FEA6C5C4FEA430C18BF7FEA6C5C1BD016
:105EE00001B050EA410C0CBF52EA430C91EA030F97
:105EF00002BF90EA020F0020704710F1000F91EAF4
:105F0000030F58BF994208BF90422CBFD8176FEAC1
:105F1000E37040F0010070474FEA410C7FEA6C5C8F
:105F200002D150EA013C07D14FEA430C7FEA6C5C96
:105F3000D6D152EA033CD3D05DF8040B704700BFC2
:105F40008446104662468C461946634600E000BF10
:105F500001B5FFF7B7FF002848BF10F1000F01BDE2
:105F60004DF808EDFFF7F4FF0CBF012000205DF8AD
:105F700008FB00BF4DF808EDFFF7EAFF34BF012032
:105F800000205DF808FB00BF4DF808EDFFF7E0FFCB
:105F900094BF012000205DF808FB00BF4DF808ED1C
:105FA000FFF7CEFF94BF012000205DF808FB00BF83
:105FB0004DF808EDFFF7C4FF34BF012000205DF865
:105FC00008FB00BF4A0011D212F5001211D20DD504
:105FD0006FF47873B3EB62520ED44FEAC12343F0EF
:105FE000004343EA505323FA02F070474FF0000099
:105FF000704750EA013002D14FF0FF3070474FF048
:106000000000704753B94AB9002908BF00281CBFD7
:106010004FF0FF314FF0FF3000F092B9ADF1080CB6
:106020006DE904CE00F024F8DDF804E0DDE9022398
:1060300004B07047D0B50C4B002206460F46FFF760
:1060400027FDFFF7BFFF0446FFF7A8FC074B002220
:10605000FFF71EFD02460B4630463946FFF760FB50
:10606000FFF7B0FF2146D0BD0000F03D0000F04139
:106070002DE9F047089D04468E46002B4DD18A42FB
:10608000944669D9B2FA82F252B101FA02F3C2F12E
:10609000200120FA01F10CFA02FC41EA030E9440BF
:1060A0004FEA1C48210CBEFBF8F61FFA8CF708FBE0
:1060B00016E341EA034306FB07F199420AD91CEBB8
:1060C000030306F1FF3080F01F81994240F21C81EA
:1060D000023E63445B1AA4B2B3FBF8F008FB103332
:1060E00044EA034400FB07F7A7420AD91CEB040467
:1060F00000F1FF3380F00A81A74240F20781644437
:10610000023840EA0640E41B00261DB1D4400023BB
:10611000C5E900433146BDE8F0878B4209D9002D1F
:1061200000F0EF800026C5E9000130463146BDE8A9
:10613000F087B3FA83F6002E4AD18B4202D3824213
:1061400000F2F980841A61EB030301209E46002DC2
:10615000E0D0C5E9004EDDE702B9FFDEB2FA82F217
:10616000002A40F09280A1EB0C014FEA1C471FFA75
:106170008CFE0126200CB1FBF7F307FB131140EA5C
:1061800001410EFB03F0884208D91CEB010103F129
:10619000FF3802D2884200F2CB804346091AA4B2EB
:1061A000B1FBF7F007FB101144EA01440EFB00FEBF
:1061B000A64508D91CEB040400F1FF3102D2A64524
:1061C00000F2BB800846A4EB0E0440EA03409CE7C3
:1061D000C6F12007B34022FA07FC4CEA030C20FA70
:1061E00007F401FA06F31C43F9404FEA1C4900FA90
:1061F00006F3B1FBF9F8200C1FFA8CFE09FB18110D
:1062000040EA014108FB0EF0884202FA06F20BD97F
:106210001CEB010108F1FF3A80F08880884240F2CF
:106220008580A8F102086144091AA4B2B1FBF9F013
:1062300009FB101144EA014100FB0EFE8E4508D90E
:106240001CEB010100F1FF346CD28E456AD9023893
:10625000614440EA0840A0FB0294A1EB0E01A14278
:10626000C846A64656D353D05DB1B3EB080261EBE6
:106270000E0101FA07F722FA06F3F1401F43C5E9C0
:10628000007100263146BDE8F087C2F12003D840F6
:106290000CFA02FC21FA03F3914001434FEA1C4738
:1062A0001FFA8CFEB3FBF7F007FB10360B0C43EA2A
:1062B000064300FB0EF69E4204FA02F408D91CEBDA
:1062C000030300F1FF382FD29E422DD902386344D8
:1062D0009B1B89B2B3FBF7F607FB163341EA034178
:1062E00006FB0EF38B4208D91CEB010106F1FF38C7
:1062F00016D28B4214D9023E6144C91A46EA0046BE
:1063000038E72E46284605E70646E3E61846F8E64F
:106310004B45A9D2B9EB020864EB0C0E0138A3E798
:106320004646EAE7204694E74046D1E7D0467BE779
:10633000023B614432E7304609E76444023842E7F1
:10634000704700BF002301461A46184600F06AB89D
:106350000A44914200F1FF3300D1704710B511F8A3
:10636000014B03F8014F9142F9D110BD024403469D
:10637000934200D1704703F8011BF9E738B5104B81
:106380001D68AB6B0446B3B91820FEF79FF80246B0
:10639000A86320B90B4B0C484221FEF7BFF80B490C
:1063A0000B4BC0E900130B4B83600B23838100214F
:1063B0000120C2E90401AB6B00221C615A6138BDA7
:1063C00040E60320A5660B00BC660B000E33CDAB88
:1063D00034126DE6ECDE0500024B0146186800F051
:1063E00003B800BF40E6032037B5044608460D4613
:1063F00000F00FF8421C114620460192FEF786F885
:10640000044618B1019A2946FFF7A2FF204603B0BF
:1064100030BD034613F8012B002AFBD1181A0138AE
:10642000704700002DE9F843DFF8B8800646D8F839
:1064300000001F460D46914600F056F8254B1C689B
:1064400034B9254C1C60254B13B11B68C4F8883047
:1064500063681F2B07DDD8F8000000F047F84FF005
:10646000FF30BDE8F8834EB3D4F8880088B91C4BE0
:1064700023B9D8F8000000F038F8F0E74FF4847042
:10648000FEF724F80028F4D00023C0E94033C4F814
:106490008800636840F8239001229A4000EB830152
:1064A000D0F800311343C0F80031022EC1F88070DB
:1064B00002BFD0F804311343C0F804316368D8F840
:1064C00000005A1C0233626044F8235000F00EF8BA
:1064D0000020C6E7E8E703205CE703200000000097
:1064E000CD440B00A4E603207047704770470000BE
:1064F00021400B005D400B0085400B0089400B00E4
:10650000000000006C696768742D6D657465722FFA
:106510006C6576656C000000000000000000000063
:1065200069460B006F460B00AD460B007D460B0025
:106530006B460B000000000000000000F74B0B0052
:10654000ED4B0B00E34B0B00D94B0B00CD4B0B007D
:10655000C14B0B00D14D0B00D94D0B00B54B0B00BF
:10656000AD4B0B00A34B0B00994B0B00094E0B00DE
:106570000000000000000000154C0B005F4C0B00F9
:10658000374C0B00174C0B003F4C0B00474C0B00DB
:106590004F4C0B00574C0B000000000000000000A7
:1065A000A14C0B00914C0B00934C0B0061707000E0
:1065B0000000000000000000914D0B009B4D0B00FF
:1065C000A54D0B00AF4D0B00B94D0B00C54D0B0099
:1065D000D14D0B00D94D0B00E14D0B00ED4D0B00E3
:1065E000F54D0B00FF4D0B00094E0B0025592D25D5
:1065F0006D2D25645425483A254D3A2553257A00BA
:1066000061736374696D65000000000000000000A4
:1066100085510B00F1510B00C9510B00F54E0B00D9
:1066200099510B00B5510B00A7510B00C3510B0042
:1066300087510B008B510B00000000000000000090
:106640002F520B0097520B006D520B00F54E0B00B2
:106650005F520B0031520B0041520B0091520B0064
:1066600051520B0029520B000000000000000000F6
:1066700087530B007D530B0073530B0029530B0002
:1066800067530B005B530B00D14D0B00D94D0B0032
:106690004F530B0047530B003D530B0033530B007C
:1066A000094E0B00005245454E54206D616C6C6FD5
:1066B0006320737563636565646564002F746D7032
:1066C0002F6A656E6B696E732D4743432D31302DF4
:1066D000706970656C696E652D34385F32303230A8
:1066E000313132345F313630363138303633392F4C
:1066F0007372632F6E65776C69622F6E65776C6954
:10670000622F6C6962632F7374646C69622F7261AB
:106710006E642E630000000079410B0059460B00A7
:10672000014C0B00814D0B00E14E0B00894F0B001B
:106730004D510B0071510B0091530B0000000000F4
:10674000040000001400000003000000474E550044
:1067500009AA3A48C2A50F286930139C3002761660
:046760005FE2443C74
:086764000CF9FF7F01000000A9
:04676C000000000029
:1067700000660B0044E6032000000000000000005B
:106780000000000000000000000000000000000009
:1067900000000000000000000000000000000000F9
:1067A00000000000000000000000000000000000E9
:1067B00000000000000000000000000000000000D9
:1067C00000000000000000000000000000000000C9
:0C67D0000000000000000000ECE70320C7
:1067DC00FFFFFFFF00000102030405060708090A7A
:1067EC000B0C0D0E0F101112131415161718191A75
:0867FC001B1C1D1E1F202800BC
:04680400785634127C
:04000003B0004020E9
:00000001FF
