:02000002B0004C
:1040000000400B00B45D0B00000006000C00050230
:084010000401A30F00000000F1
:044018007C5A0B00C3
:10401C0009480A49884208B505D0094A824202D0AB
:10402C00121A01F045FC0748074A0021121A01F048
:10403C004DFC014808BD00BF20E60320185D0B00B5
:10404C0094E6032094E60320EDE7032070B5074EB9
:10405C00074C01F001FBA41BA4080025AC4200D1C5
:10406C0070BD56F8043B98470135F7E7BC5C0B0074
:10407C00E45C0B0000F016B808B500F029F8BDE8B8
:10408C00084001F0A1BA00F087BB00F085BB00F03E
:10409C008BBB0078B0FA80F04009704701230370A5
:1040AC007047000008B5084B0121188801F044FB4B
:1040BC0001F004FA4FF4165101F0F4F9BDE8084090
:1040CC00024800F06CB900BF20E60320A8E60320EC
:1040DC0030B5334885B000F093F8044601F0EEF9A2
:1040EC00002C054629DA2D2101F052F861420A22F2
:1040FC00284601F066F801F0E1F92A4901F057F879
:10410C0007EE904A284BF8EEE77A93ED007AF4EE3E
:10411C00C77AF1EE10FA12DD002224480092FF2338
:10412C00114600F0F4F8224B187801F004F96420E1
:10413C0005B0BDE8304000F067BB2146D7E7F6D8A4
:10414C0000242346214619480094FF2200F0DFF892
:10415C00174B224618784FF47A7101F0D5F8154BAD
:10416C00154A1B788DF80030126814493C2302A8BC
:10417C0000F0CCFC039C002CD9D06368013B63603D
:10418C00002BD4D1236820469B689847A368013B39
:10419C00A360002BCBD123682046DB689847C6E789
:1041AC00B0E60320905A0B0024E60320A8E6032077
:1041BC0020E6032094E6032098E60320945A0B0093
:1041CC0010B5094B094801241C70042100F016F8A5
:1041DC00234602210648032200F036F8BDE81040C1
:1041EC000449054801F060B894E60320B0E60320CA
:1041FC00A8E603209F5A0B0098E603200160704745
:10420C0010B504460121008801F096FA208800219F
:10421C0001F0A3FA022000F0F3F82088012101F04C
:10422C009CFA052000F0ECF82088002101F095FAAA
:10423C002088002101F080FA2088012101F0A6FAE3
:10424C00942390FBF3F010BD10B50446017042703E
:10425C008370012103EB430001F022FB60602046D8
:10426C0010BD10B500210446007801F076FA142038
:10427C0000F0C6F82078012101F06FFABDE810407B
:10428C00142000F0BDB870B506460C460825230670
:10429C004CBF01210021707801F05FFA013D3046DE
:1042AC00FFF7DFFF640015F0FF05E4B2EFD170BD3E
:1042BC0073B513F0800F1E460C46154614BFC02173
:1042CC00E021730658BF41F010012A0658BF41F097
:1042DC0008016B0658BF41F00401220658BF41F09B
:1042EC000201630658BF41F001010190FFF7CBFFBB
:1042FC0001983146FFF7C7FF01982946FFF7C3FF26
:10430C000198214602B0BDE87040FFF7BCBF2DE913
:10431C00F04704460F460021904699469DF820A090
:10432C00FFF7B1FF00212046FFF7ADFF002120462B
:10433C00FFF7A9FF00212046FFF7A5FF0026A37871
:10434C00F5B2AB4219D905EB4500AF4200F10102C1
:10435C0000F1020308D1616801F80080616801F87E
:10436C000290616801F803A06168CB5C8A5C095C0F
:10437C002046FFF79DFF0136E1E720460021FFF7BD
:10438C0082FF20460021FFF77EFF20460021FFF729
:10439C007AFF20460021BDE8F047FFF774BF73B5E4
:1043AC0004460121007801F0C7F96078012101F081
:1043BC00C3F900252E46A378E9B28B4207D9002316
:1043CC0000961A462046FFF7A2FF0135F3E702B02C
:1043DC0070BD0000014B01221A707047B4E6032037
:1043EC0008B5024B1B685B6C019308BD48020300C7
:1043FC0008B5024B1B685B68019308BD18020300EB
:10440C0008B5024B1B68DB68019308BD180203005A
:10441C0008B5024B1B685B69019308BD18020300C9
:10442C0008B5024B1B685B68019308BD2C020300A6
:10443C0008B5024B1B689B68019308BD2C02030056
:10444C0008B5024B1B68DB68019308BD2C02030006
:10445C0008B5024B1B681B69019308BD2C020300B5
:10446C0008B5024B1B68DB6C019308BD2C020300E2
:10447C0008B5024B1B681B6A019308BD2802030098
:10448C0008B5024B1B685B6A019308BD2802030048
:10449C0008B5024B1B689B6A019308BD28020300F8
:1044AC0008B5024B1B68DB6A019308BD28020300A8
:1044BC0008B5024B1B681B6B019308BD2802030057
:1044CC0008B5024B1B685B6B019308BD2802030007
:1044DC0008B5024B1B681B6C019308BD2802030036
:1044EC0008B5024B1B685B69019308BD64020300AD
:1044FC0008B5024B1B689B68019308BD680203005A
:10450C0008B5024B1B68DB68019308BD6802030009
:10451C0008B5024B1B681B68019308BD24020300FD
:10452C0008B5024B1B685B68019308BD24020300AD
:10453C0008B5024B1B68DB69019308BD3002030010
:10454C0008B5024B1B681B6A019308BD30020300BF
:10455C0008B5024B1B68DB68019308BD3C020300E5
:10456C0008B5024B1B681B69019308BD3C02030094
:10457C0008B5024B1B685B69019308BD3C02030044
:10458C0008B5024B1B689B69019308BD3C020300F4
:10459C0008B5024B1B68DB69019308BD3C020300A4
:1045AC0008B5024B1B681B6A019308BD3C02030053
:1045BC0008B5024B1B689B6A019308BD3C020300C3
:1045CC0008B5024B1B681B6C019308BD3C02030031
:1045DC0008B5024B1B681B68019308BD4C02030015
:1045EC0008B5024B1B685B68019308BD4C020300C5
:1045FC0008B5024B1B681B69019308BD4C020300F4
:10460C0008B5024B1B685B69019308BD4C020300A3
:10461C0008B5024B1B689B69019308BD4C02030053
:10462C0008B5024B1B68DB69019308BD4C02030003
:10463C0008B5024B1B681B6A019308BD4C020300B2
:10464C0008B5024B1B685B68019308BD2002030090
:10465C0008B5024B1B685B69019308BD200203007F
:10466C0008B5024B1B68DB6C019308BD20020300EC
:10467C0008B5024B1B685B6D019308BD200203005B
:10468C0008B5034B1B68D3F88830019308BD0000B4
:10469C002002030008B5034B1B68D3F89430019338
:1046AC0008BD00002002030008B5024B1B685B69C3
:1046BC00019308BD4402030008B5024B1B681B6A3A
:1046CC00019308BD4402030008B5024B1B68DB6B69
:1046DC00019308BD4402030008B5024B1B685B68DC
:1046EC00019308BD4002030008B5024B1B689B6890
:1046FC00019308BD4002030008B5024B1B68DB6840
:10470C00019308BD4002030008B5024B1B681B69EE
:10471C00019308BD4002030008B5024B1B685B699E
:10472C00019308BD4002030008B5024B1B689B694E
:10473C00019308BD4002030008B5024B1B68DB69FE
:10474C00019308BD4002030008B5024B1B681B6AAD
:10475C00019308BD4002030008B5024B1B681B6B9C
:10476C00019308BD4002030008B5024B1B685B6B4C
:10477C00019308BD4002030008B5024B1B681B6C7B
:10478C00019308BD4002030008B5024B1B685B6C2B
:10479C00019308BD4002030008B5024B1B681B685F
:1047AC00019308BD1C02030008B5024B1B685B6833
:1047BC00019308BD1C02030008B5024B1B689B68E3
:1047CC00019308BD1C02030008B5024B1B68DB6A91
:1047DC00019308BD1C02030008B5024B1B681B6B40
:1047EC00019308BD1C02030008B5024B1B681B6C2F
:1047FC00019308BD1C02030008B5024B1B685B6CDF
:10480C00019308BD1C0203000021FFF721BF10B566
:10481C00836804460BB901F039F8C3689847A3685C
:10482C001BB1032221462046984720461021BDE8A3
:10483C001040FFF72CBC10B58368044613B103225B
:10484C0001469847204610BD10B54368013B04460D
:10485C00436063B903689B689847A368013BA360F6
:10486C002BB923682046DB68BDE81040184710BD03
:10487C0010B50446006808B1FFF7E6FF204610BDEE
:10488C0013B50B460246D0E900016C4684E80300E0
:10489C0093E8030082E8030094E8030083E8030034
:1048AC0002B010BD024800230360FFF799BD00BFA2
:1048BC00B8E6032070470020704710B5102104465D
:1048CC00FFF7E5FB204610BD08B5FFF7F6FF08BD66
:1048DC0030B500224FF69C74026084808D888C80E9
:1048EC000C68858004600A6030BD10B50446006811
:1048FC00FFF75AFF204610BD38B5C468F4B12378D1
:10490C00022B03D104F10C00FFF7EFFF656835B102
:10491C002846FFF790FF10212846FFF7B8FBA56843
:10492C0035B12846FFF787FF10212846FFF7AFFB6C
:10493C0020461421BDE83840FFF7A9BB38BD0B68F1
:10494C0003604B68436013B15A6801325A60704778
:10495C0037B5044668460D46FFF7F1FF009B019AF8
:10496C0023606260002301A801930093FFF780FF8E
:10497C0035B1281DFFF77CFF08212846FFF787FB80
:10498C00204603B030BD826810B50AB900F07EFF36
:10499C00BDE81040C368184708B5006800F1100165
:1049AC00FFF7F1FF08BD826810B50AB900F06EFF81
:1049BC00BDE81040C368184708B5006800F1100145
:1049CC00FFF7F1FF08BD000038B500230446036073
:1049DC0010200D46FFF757FB28B10123C0E9013326
:1049EC00024B0360C5602060204638BDC45A0B00E2
:1049FC0038B5002383608B6804460D462BB1022228
:104A0C009847EB68E360AB68A360204638BD0000B4
:104A1C00F0B589B004686846FFF75AFF4FF00203FF
:104A2C00D4E84F2F002A03D1C4E8413F0029F7D125
:104A3C0025D104F10C0569462846FFF749FFBFF361
:104A4C005B8F01236370002004F10803BFF35B8FBD
:104A5C0053E8006F43E80002002AF9D1BFF35B8FE3
:104A6C006EB1FFF7FDFD78B129463046FFF78BFF9D
:104A7C003046FFF7E0FE10213046FFF708FB684692
:104A8C00FFF733FF09B0F0BD314602A8FFF7B0FFC6
:104A9C00E068B4F9105008B100F05EFF06901020E9
:104AAC00ADF81C50FFF7EFFA0546E8B10027876018
:104ABC001820FFF7E8FA044688B10146876002A87F
:104ACC00FFF7DEFE049BA268A360059B049206A977
:104ADC00E268E36004F110000592FFF7F9FE084B61
:104AEC00EB60084B2C60AB6006A8FFF7FEFE02A83B
:104AFC00FFF7A1FE002229460348FFF7B9FDB7E7EF
:104B0C00A5490B00294C0B001B480B002DE9F04F5D
:104B1C008BB005469DF850A00F4690469946FFF77E
:104B2C00C3FD07AE834638BB4FF62E73059005A91F
:104B3C003046ADF81830FFF7CBFE1420FFF7A3FA80
:104B4C00044648B1022303700123C0E901BB437042
:104B5C0031460C30FFF7BCFE2846214640F8044B8A
:104B6C00FFF732FF3046FFF7C0FE05A8FFF7BDFE8A
:104B7C0028460BB0BDE8F08F0C2300241420CDE99F
:104B8C0008440793FFF77FFA014618B1C0E90144C6
:104B9C000470447004A80391FFF716FF1E4B089392
:104BAC000820FFF770FA044610B103A9FFF7C7FEFF
:104BBC0000965FFA8AF34A46414638460994FFF755
:104BCC007BFDB8B9039B5B7803F0FF0293B94FF6FA
:104BDC009C7305A903A80592ADF81830FFF718FFD0
:104BEC0005A8FFF782FE05A80999FFF7B1FE06A8F4
:104BFC00FFF73EFE03A905A8FFF7A1FE059B069A49
:104C0C002B606A60002306A806930593FFF730FE1D
:104C1C0004A8FFF72DFEABE7A54C0B00012AF8B555
:104C2C00054603D10B6803600020F8BD022A10D0A2
:104C3C00032AF9D10468002CF6D004F11000FFF718
:104C4C0054FE2046FFF7F7FD18212046FFF71FFA08
:104C5C00EAE718200E68FFF716FA044650B1314601
:104C6C00FFF7C6FE3069B6F9147008B100F074FE97
:104C7C002061A7822C60D7E738B5002383608B684E
:104C8C0004460D462BB102229847EB68E360AB68F3
:104C9C00A360204638BD0000F0B589B004460D462F
:104CAC0001A81146FFF754FEA4B124B21DB1284649
:104CBC0000F052FE054601A803A90395ADF810407B
:104CCC00FFF7A6FE03A8FFF710FE02A8FFF7D0FD22
:104CDC0009B0F0BD019D0123D5E84F2F002A03D167
:104CEC00C5E8413F0029F7D1EFD12B73BFF35B8FA0
:104CFC006B702B1DBFF35B8F53E8006F43E80042D2
:104D0C00002AF9D1BFF35B8F002EDED02046FFF7CF
:104D1C00A7FC074660B105F10C013046FFF743FED6
:104D2C003046FFF788FD10213046FFF7B0F9CCE78D
:104D3C00314603A8FFF7A0FF2B7B8DF81C30102009
:104D4C00FFF7A1F90546D0B187601420FFF79BF956
:104D5C00044678B18760014603A8FFF791FD059BD7
:104D6C00A268A360069B0592E268E3609DF81C3084
:104D7C0006922374064BEB60064B2C60AB6003A8C9
:104D8C00FFF759FD002229460348FFF771FCC7E7DE
:104D9C00C5490B00A94D0B001B480B00012A70B52F
:104DAC00044603D10B680360002070BD022A0CD0AE
:104DBC00032AF9D10468002CF6D02046FFF73BFDFE
:104DCC0014212046FFF763F9EEE714200E68FFF775
:104DDC005AF9054620B13146FFF74EFF337C2B7450
:104DEC002560E1E7002240681146FFF7ADBC0022C8
:104DFC0040681146FFF7B8BC40680022FFF7ACBC16
:104E0C004068002281F00101FFF796BC0023406846
:104E1C001A461946FFF788BC002340681A46194603
:104E2C00FFF77ABC002240681146FFF76DBC0022E8
:104E3C0040681146FFF758BC406800220221FFF77A
:104E4C005BBC002340681A46FFF746BC024B0322AA
:104E5C005A60024A1A607047BCE60320E05A0B0005
:104E6C007047F8B5064615460C468F18BC4206D05E
:104E7C00336814F8011B9B6830469847F6E72846C0
:104E8C00F8BD007C0022FFF7F3BA007C0021FFF78D
:104E9C00F7BA007C0021FFF7FBBA007C0021FFF77A
:104EAC00FFBA007C0021FFF703BB10B514210446A8
:104EBC00FFF7EDF8204610BD10B54FF47A73044699
:104ECC0008460021C4E90113034B236020741146EA
:104EDC00FFF7FEFA204610BD1C5B0B00704710B5A7
:104EEC0018210446FFF7D3F8204610BDF0B5037D1A
:104EFC00062B8DB00E4600F104074FF0000412D0C3
:104F0C0000F1080515F8011D0A22304600F059F988
:104F1C00AF42044419D0002CF4D02E21304600F0BE
:104F2C0037F90444EEE72F236A4639460A208DF8F8
:104F3C000040FFF7D5FA684600F02BFD33680246B7
:104F4C00DB68694630469847044620460DB0F0BDF4
:104F5C0010B5054B0446112240F8043B002100F02B
:104F6C00B5FC204610BD00BF445B0B000346074A4E
:104F7C0010B543F8042B01F1100251F8044B43F81F
:104F8C00044B9142F9D10A781A7010BD445B0B00A6
:104F9C0010B59DF8084044EA032343EA024242EA72
:104FAC00016104234160037510BD000007B5064B79
:104FBC000360CB7800938B784A780978FFF7E8FF89
:104FCC0003B05DF804FB00BF445B0B00014B024ACD
:104FDC001A607047C4E60320505B0B000023406846
:104FEC001A46FFF779BB406800220221FFF784BB09
:104FFC00002240681146FFF777BB0022406811463B
:10500C00FFF782BB002340681A461946FFF784BBA2
:10501C00002340681A461946FFF786BB40680021FA
:10502C00FFF7AABB40680021FFF7AEBB4068002227
:10503C0081F00101FFF780BB40680022FFF78CBBB9
:10504C00002240681146FFF78FBB002240681146D2
:10505C00FFF77ABB2DE9F04395B014460D46074691
:10506C00FFF776FF00211C220DA8009100F02EFC0A
:10507C0040230C9320466B460CAA0021FFF740FA04
:10508C00044600284BD1024601216868FFF73CFB1F
:10509C000221804622466868FFF736FB009E814657
:1050AC002146002E3BD0002939D17368022B03D046
:1050BC000A2B11D0F669F4E7B8F1000FFAD0716938
:1050CC0006A8043107ADFFF771FF0FCD3C1D0FC4CF
:1050DC002B6823704146EDE7B9F1000FEAD07469F3
:1050EC00102201A800F0F2FB06238DF8143001AD5C
:1050FC0004F108031834186859682A4603C20833A7
:10510C00A3421546F7D101A906A807ADFFF72EFF5C
:10511C000FCD3C1D0FC42B6823704946CAE700987D
:10512C00FFF7E6F9384615B0BDE8F083024B034AA9
:10513C001A6000225A607047C8E603205C5B0B00C3
:10514C00F8B506460D468F180024BD420CD03368C6
:10515C0015F8011B9B6830469847031E01DB1C4465
:10516C00F3E7002C08BF1C462046F8BD13B50446D7
:10517C00084659B1019100F00CFC23680199DB68D9
:10518C000246204602B0BDE81040184702B010BDE0
:10519C0003689B68184738B50D210546FFF7F8FFE3
:1051AC000A2104462846FFF7F3FF204438BD38B5E2
:1051BC000546FFF7DBFF04462846FFF7ECFF2044CB
:1051CC0038BD30B58BB00023012A8DF8243098BF40
:1051DC000A2209AC0D46B1FBF2F101FB125303F0AC
:1051EC00FF03092B94BF30333733DBB2AA4204F8E8
:1051FC00013DEFD92146FFF7B9FF0BB030BD0000E0
:10520C00014B00229A607047D0E6032010B504468B
:10521C0008462170FFF78CF900236360204610BD0F
:10522C0010B50446006808B1FFF7BEFA0023C4E9C4
:10523C000133236010BD38B504460D4600680131BA
:10524C00FFF7BAFA10B1C4E90005012038BD10B55A
:10525C000368044623B143688B4201D3012010BD7F
:10526C002046FFF7E8FF0028F9D0A368002BF5D102
:10527C0022681370F2E737B50D46114601920446C9
:10528C00FFF7E5FF019A28B92046FFF7C9FF204632
:10529C0003B030BDA2602946206800F009FB2268EB
:1052AC00A3680021D154F2E7002313B5C0E9003301
:1052BC0004468360037341B10846019100F069FB19
:1052CC00019902462046FFF7D6FF204602B010BDDA
:1052DC00054B02221A60054B054A9A600020C3E96F
:1052EC000000FFF7ADB900BFECE60320E0E60320B9
:1052FC000000FFFF024B1A68024B1A60704700BF98
:10530C0028E60320F0E60320F8B587B204463846B9
:10531C000D46164600F0D2F960B102213846FFF76F
:10532C007FF8022806D1324629462046BDE8F840CF
:10533C00FFF7EEB8F8BD38B585B20446284600F044
:10534C00BDF950B102212846FFF76AF8022804D1B2
:10535C002046BDE83840FFF7E3B838BD70474174CC
:10536C00704708B5007CFFF723F920EAE07008BD10
:10537C0008B5007CFFF7F4F820EAE07008BD08B52A
:10538C00007CFFF7FDF840EAE07008BD08B5007C32
:10539C00FFF7EEF840EAE07008BD007CFFF7F8B8C4
:1053AC0037B5457C04462DB1207C03B0BDE83040B8
:1053BC00FFF7CEB8007C0191FFF7FAF800280199AD
:1053CC00F2DC284603B030BD10B514210446FEF7BC
:1053DC005EFE204610BD000010B54FF47A730446F3
:1053EC00084611460022C4E90123044B2360012323
:1053FC0020746374FFF7E4F8204610BDB45B0B0017
:10540C00417470477047704708B50021007CFFF766
:10541C00FFF840EAE07008BD08B50121007CFFF7F9
:10542C00F7F840EAE07008BD08B5007CFFF7E8F833
:10543C0020EAE07008BD08B5007CFFF7D9F820EA37
:10544C00E07008BD13B50446007C0191FFF7D8F855
:10545C000028019901DC607C20B1207CFFF7E0F88A
:10546C0020EAE07002B010BD007CFFF7E1B810B587
:10547C0014210446FEF70BFE204610BD10B54FF468
:10548C007A73044608460021C4E90113044B2360D7
:10549C000123207463741146FFF79AF8204610BD5F
:1054AC00E45B0B00007C0022FFF79AB810B51422C5
:1054BC000446002100F00AFA204610BD10B50F4C2E
:1054CC0088B003A8FFF7F2FF2178BFF35B8F11F0D0
:1054DC0001010FD120460191FEF7DBFD019948B186
:1054EC0003AA0748FFF7CAFF2046FEF7D7FD054879
:1054FC0000F0CFF9024808B010BD00BFF4E603205D
:10550C00F8E6032011540B00002240681146FFF707
:10551C00FBB8002240681146FFF716B9002240681C
:10552C001146FFF721B940680022FFF715B9406812
:10553C00002281F00101FFF7FFB8002340681A46F2
:10554C001946FFF7F1B8002340681A461946FFF7D1
:10555C00E3B8002240681146FFF7C6B84068002245
:10556C000221FFF7C9B8002340681A46FFF7B4B808
:10557C00024B04225A60024A1A6070470CE703205F
:10558C00145C0B00014B1860704700BF2CE6032025
:10559C0008B50B4B43B1FFF791FF03681B699847A4
:1055AC00002801DDAFF30080064B43B100F048F951
:1055BC0003681B699847002801DDAFF3008008BD24
:1055CC00000000000000000008B5FFF7E1FFFEF747
:1055DC001FFF014B186008BD28E703200548064A49
:1055EC00064908B5121A00F063F9054B054A1A6012
:1055FC0008BD00BF00F4032004F40320145D0B006D
:10560C0000F403201E1C279A07B5002300931A46AA
:10561C006FF07701FFF73EF803B05DF804FB000074
:10562C0007B543880A2B08D0502B0BD1094B1B68AC
:10563C004BB103B05DF804EB1847FFF7E5FF03B07F
:10564C005DF804FB002300931A466FF07701FFF717
:10565C0021F8F4E718E7032010B512480021FFF7F2
:10566C00CBF8114B1A68114B9A42114B0CBF01220B
:10567C0000221A7001D0FFF7B1FFFEF7B9FE044605
:10568C0000F03CF90B4B13B12046AFF30080002126
:10569C000848FFF719F8BDE8104007480021FEF74D
:1056AC00EFBF00BF91550B0000F403201E1C279A7E
:1056BC0014E70320000000002D560B00232813B51F
:1056CC0002D9002002B010BDA0F10B03022B1AD896
:1056DC00174C2178BFF35B8F11F001010BD12046E1
:1056EC000191FEF7D6FC019928B11248FFF78EFD07
:1056FC002046FEF7D3FC0F4B1878FEF721FF00284D
:10570C00DFD10120DEE7012809D800F059F800218B
:10571C00007CFEF7D5FE80F00100C0B2D2E709385C
:10572C000128EED800F08CF8007CFEF739FFF2E788
:10573C001CE7032020E70320232838B504460D4638
:10574C000AD8FF2908D0FFF7B9FF28B1294620460F
:10575C00BDE83840FEF76CBE38BD38B504460D4682
:10576C00FEF76EFEFF2810D0062804D84D2323FA2E
:10577C0000F0C30709D42046FFF7A0FF28B1294643
:10578C002046BDE83840FEF763BE38BDFEF768BE64
:10579C007047000038B5202514230446036085604B
:1057AC0005610649284600F06FF8044960602846F8
:1057BC0000F06AF8E060204638BD00BF485C0B0082
:1057CC0030B50E4D2978BFF35B8F11F0010487B013
:1057DC0011D12846FEF75DFC68B101A8FFF7DAFF8E
:1057EC0001AA21460648FFF767FB2846FEF756FC40
:1057FC00044800F04EF8024807B030BD2CE70320F7
:10580C0030E703209D570B007047000038B5044665
:10581C0014252A46002100F059F825804025074917
:10582C0025812846258200F02FF80449606028461F
:10583C0000F02AF8E060204638BD00BF485C0B0041
:10584C0030B50E4D2978BFF35B8F11F0010487B092
:10585C0011D12846FEF71DFC68B101A8FFF7D6FF51
:10586C0001AA21460648FFF7B7FD2846FEF716FCAD
:10587C00044800F00EF8024807B030BD44E703209E
:10588C0048E7032015580B00FEF7FFBB08B5FEF7E1
:10589C009BFF002301461A46184600F083B800000F
:1058AC00024B0A460146186800F018B82CE6032093
:1058BC000A44914200F1FF3300D1704710B511F842
:1058CC00014B03F8014F9142F9D110BD024403463C
:1058DC00934200D1704703F8011BF9E713B54A4313
:1058EC0011460192FEF778FF044618B1019A002187
:1058FC00FFF7ECFF204602B010BD000038B5104B8E
:10590C001D68AB6B0446B3B91820FEF745FF024681
:10591C00A86320B90B4B0C484221FEF765FF0B49DD
:10592C000B4BC0E900130B4B83600B2383810021CD
:10593C000120C2E90401AB6B00221C615A6138BD25
:10594C002CE60320495C0B00605C0B000E33CDABE6
:10595C0034126DE6ECDE0500024B0146186800F0CF
:10596C0003B800BF2CE6032037B5044608460D46A5
:10597C0000F00FF8421C114620460192FEF72CFF56
:10598C00044618B1019A2946FFF792FF204603B04E
:10599C0030BD034613F8012B002AFBD1181A01382D
:1059AC00704700002DE9F843DFF8B8800646D8F8B8
:1059BC0000001F460D46914600F056F8254B1C681A
:1059CC0034B9254C1C60254B13B11B68C4F88830C6
:1059DC0063681F2B07DDD8F8000000F047F84FF084
:1059EC00FF30BDE8F8834EB3D4F8880088B91C4B5F
:1059FC0023B9D8F8000000F038F8F0E74FF48470C1
:105A0C00FEF7CAFE0028F4D00023C0E94033C4F8E6
:105A1C008800636840F8239001229A4000EB8301D0
:105A2C00D0F800311343C0F80031022EC1F8807059
:105A3C0002BFD0F804311343C0F804316368D8F8BE
:105A4C0000005A1C0233626044F8235000F00EF838
:105A5C000020C6E7E8E703205CE703200000000015
:105A6C00A5470B0090E60320704770477047000075
:105A7C001D400B0059400B0081400B0085400B0072
:105A8C000000000020494E007477696C696F5F73E9
:105A9C006D730053746F702120596F7572204361C0
:105AAC0072206973205061726B65642100000000E4
:105ABC000000000000000000C1480B00C7480B00AC
:105ACC0005490B00D5480B00C3480B000000000033
:105ADC00000000004F4E0B00454E0B003B4E0B00E0
:105AEC00314E0B00254E0B00194E0B0029500B00AC
:105AFC0031500B000D4E0B00054E0B00FB4D0B00F7
:105B0C00F14D0B0061500B00000000000000000084
:105B1C006D4E0B00B74E0B008F4E0B006F4E0B00F3
:105B2C00974E0B009F4E0B00A74E0B00AF4E0B0079
:105B3C000000000000000000F94E0B00E94E0B00C5
:105B4C00EB4E0B00617070000000000000000000C4
:105B5C00E94F0B00F34F0B00FD4F0B0007500B00F0
:105B6C0011500B001D500B0029500B0031500B0035
:105B7C0039500B0045500B004D500B0057500B008B
:105B8C0061500B0025592D256D2D25645425483A5F
:105B9C00254D3A2553257A0061736374696D650050
:105BAC00000000000000000069530B00D5530B00EF
:105BBC00AD530B004D510B007D530B0099530B0053
:105BCC008B530B00A7530B006B530B006F530B0045
:105BDC00000000000000000013540B007B540B006D
:105BEC0051540B004D510B0043540B0015540B003A
:105BFC0025540B0075540B0035540B000D540B0041
:105C0C00000000000000000073550B0069550B00EC
:105C1C005F550B0015550B0053550B0047550B00EA
:105C2C0029500B0031500B003B550B0033550B002A
:105C3C0029550B001F550B0061500B0000524545B8
:105C4C004E54206D616C6C6F632073756363656576
:105C5C00646564002F746D702F6A656E6B696E736A
:105C6C002D4743432D31302D706970656C696E651D
:105C7C002D34385F32303230313132345F3136309E
:105C8C00363138303633392F7372632F6E65776C3B
:105C9C0069622F6E65776C69622F6C6962632F7312
:105CAC0074646C69622F72616E642E630000000074
:105CBC00CD410B00E1430B00B1480B00594E0B00DA
:105CCC00D94F0B0039510B000D520B00DD520B005C
:105CDC0001530B007D550B0000000000000000007C
:045CEC0000000000B4
:105CF000040000001400000003000000474E55009F
:105D0000F2C9E771F27D75202834796656A057C034
:045D10005903080427
:045D1400000000008B
:105D18001300000000008040A45B0B0030E6032065
:105D2800000000000000000000000000000000006B
:105D3800000000000000000000000000000000005B
:105D4800000000000000000000000000000000004B
:105D5800000000000000000000000000000000003B
:105D6800000000000000000000000000000000002B
:105D7800000000000000000000000000000000001B
:045D8800ECE7032021
:105D8C00FFFFFFFF00000102030405060708090AD4
:105D9C000B0C0D0E0F101112131415161718191ACF
:085DAC001B1C1D1E1F20280016
:045DB40078563412D7
:04000003B000401CED
:00000001FF
