:02000002B0004C
:1040000000400B005C6B0B00000006000C0005027A
:084010000401A30F00000000F1
:044018001C650B0018
:10401C0009480A49884208B505D0094A824202D0AB
:10402C00121A02F093F90748074A0021121A02F0FB
:10403C00B5F9014808BD00BF38E60320C86A0B007B
:10404C00A4E60320A4E60320EDE7032070B5074E99
:10405C00074C01F0DBFFA41BA4080025AC4200D1E7
:10406C0070BD56F8043B98470135F7E7706A0B00B2
:10407C00946A0B0000F070B808B500F06EF8BDE85B
:10408C00084001F07BBF00F097BA00F095BA00F041
:10409C009BBA0078B0FA80F0400970470123037096
:1040AC007047000070B590B000F0ACFD264A274C6C
:1040BC0001460BA801F0D2FA0BA800F08CFE00F020
:1040CC00A1FD234A01460BA801F0C8FA0BA800F089
:1040DC0082FE00F097FD1F4A01460BA801F0BEFAC4
:1040EC000BA800F078FE03A800F0ABFF0FCC06ADD8
:1040FC000FC506AD0FCD26680BAC0FC40BA8266000
:10410C0000F0F4FB04460BA8B4B900F00BFC0094CF
:10411C00ADF80A0002230DF10A02032103A800F0F6
:10412C0085FF00F06FFD002203A900F0F8FD039855
:10413C0000F04AFA10B070BD00F0F6FB00230093BB
:10414C00024610230721E9E7C8E60320A4E6032072
:10415C00C0E60320B8E603207047FFF7A3BF82B088
:10416C00F0B58FB015AD15930023C0E900330646AA
:10417C0094460F460FCD04AC0FC42B6823601AADC8
:10418C000FCD09AC0FC42B682360209B02931F9B9F
:10419C00019309AB0093304604AB6246394601F0FB
:1041AC0033F930460FB0BDE8F04002B07047000064
:1041BC002DE9F0432B4D93B00021012000F078F94C
:1041CC002949284600F030FC4FF0000927490DA87A
:1041DC0000F02AFCCDE909992E460FCE4FF01008BD
:1041EC000DEB08040FC4336823600EAC94E80F0089
:1041FC008DE80F000D9B1E491E484246FFF7AFFF8E
:10420C001D490DA800F010FCCDE90999AC46BCE89D
:10421C000F000DEB08070FC733683B6094E80F00E5
:10422C008DE80F000D9B154915484246FFF797FF87
:10423C0014490DA800F0F8FB0FCD0DEB0807CDE9E4
:10424C0009990FC733683B6094E80F008DE80F00A5
:10425C000D9B0D490D484246FFF781FF13B0BDE899
:10426C00F08300BFA4E6032030650B0055650B00FE
:10427C007A650B00C8E6032081650B00A6650B0070
:10428C00C0E60320AF650B00D4650B00B8E6032035
:10429C0008B5024B1B689B68019308BD78020300AC
:1042AC0008B5024B1B681B6D019308BD7802030017
:1042BC0008B5024B1B689B6D019308BD7802030087
:1042CC0008B5024B1B681B6E019308BD78020300F6
:1042DC0008B5034B1B68D3F89830019308BD000058
:1042EC007802030008B5034B1B68D3F8A830019380
:1042FC0008BD00007802030008B5034B1B68D3F817
:10430C00EC30019308BD00007802030008B5034BA4
:10431C001B68D3F8F030019308BD0000780203004D
:10432C0008B5024B1B685B6C019308BD4802030087
:10433C0008B5024B1B68DB6C019308BD48020300F7
:10434C0008B5024B1B685B6D019308BD4802030066
:10435C0008B5024B1B685B68019308BD180203008B
:10436C0008B5024B1B68DB68019308BD18020300FB
:10437C0008B5024B1B685B69019308BD180203006A
:10438C0008B5024B1B685B69019308BD640203000E
:10439C0008B5024B1B689B68019308BD68020300BB
:1043AC0008B5024B1B68DB68019308BD680203006B
:1043BC0008B5024B1B68DB68019308BD3C02030087
:1043CC0008B5024B1B681B69019308BD3C02030036
:1043DC0008B5024B1B685B69019308BD3C020300E6
:1043EC0008B5024B1B689B69019308BD3C02030096
:1043FC0008B5024B1B68DB69019308BD3C02030046
:10440C0008B5024B1B689B6A019308BD3C02030074
:10441C0008B5024B1B681B6C019308BD3C020300E2
:10442C0008B5024B1B681B68019308BD4C020300C6
:10443C0008B5024B1B681B69019308BD4C020300B5
:10444C0008B5024B1B685B69019308BD4C02030065
:10445C0008B5024B1B689B69019308BD4C02030015
:10446C0008B5024B1B68DB69019308BD4C020300C5
:10447C0008B5024B1B681B6A019308BD4C02030074
:10448C0008B5024B1B685B6B019308BD600203000F
:10449C0008B5024B1B681B6D019308BD600203003D
:1044AC0008B5024B1B685B68019308BD2002030032
:1044BC0008B5024B1B68DB6A019308BD20020300A0
:1044CC0008B5034B1B68D3F88830019308BD000076
:1044DC002002030008B5034B1B68D3F894300193FA
:1044EC0008BD00002002030008B5024B1B68DB6B03
:1044FC00019308BD4402030008B5024B1B685B68BE
:10450C00019308BD4002030008B5024B1B689B6871
:10451C00019308BD4002030008B5024B1B68DB6821
:10452C00019308BD4002030008B5024B1B681B69D0
:10453C00019308BD4002030008B5024B1B685B6980
:10454C00019308BD4002030008B5024B1B689B6930
:10455C00019308BD4002030008B5024B1B68DB69E0
:10456C00019308BD4002030008B5024B1B681B6A8F
:10457C00019308BD4002030008B5024B1B681B6B7E
:10458C00019308BD4002030008B5024B1B685B6B2E
:10459C00019308BD4002030008B5024B1B681B6C5D
:1045AC00019308BD4002030008B5024B1B685B6C0D
:1045BC00019308BD4002030008B5024B1B681B6841
:1045CC00019308BD1C02030008B5024B1B685B6815
:1045DC00019308BD1C02030008B5024B1B689B68C5
:1045EC00019308BD1C02030008B5024B1B68DB6A73
:1045FC00019308BD1C02030008B5024B1B681B6C21
:10460C00019308BD1C02030008B5024B1B685B6CD0
:10461C00019308BD1C020300704770477047704738
:10462C00064B994210B500F10C0405D0084601F078
:10463C0065FD002808BF0024204610BD80670B00D4
:10464C00064B994210B500F10C0405D0084601F058
:10465C0055FD002808BF0024204610BD80670B00C4
:10466C00064B994210B500F10C0405D0084601F038
:10467C0045FD002808BF0024204610BD80670B00B4
:10468C0010B568210446FFF702FD204610BD10B599
:10469C0028210446FFF7FBFC204610BD10B5302145
:1046AC000446FFF7F4FC204610BD6821FFF7EFBC71
:1046BC002821FFF7ECBC3021FFF7E9BCF0B5002551
:1046CC00EC1C8C420DD86E1C445D875D974205D165
:1046DC002644B14205D31D60601CF0BD0134254455
:1046EC00EEE70020F9E70000024A03490A20FFF731
:1046FC00C7BE00BF6D430B00DF650B0030B40D4629
:10470C0011461A46036809682868D3E90043A44691
:10471C0030BC6047012A38B5044602D10B682360CF
:10472C0003E0022A03D0032A0DD0002038BD082054
:10473C000D68FFF7A8FC03460028F0D095E80300AD
:10474C0083E80300EBE700680028EED00821FFF7B0
:10475C009EFCEAE710B58368044613B103220146B8
:10476C009847204610BD10B504465830FFF7F2FFAD
:10477C0004F14800BDE8104001F040BA10B54368A0
:10478C00013B0446436063B903689B689847A36880
:10479C00013BA3602BB923682046DB68BDE81040C1
:1047AC00184710BDA0F13003DAB2092A01D8184617
:1047BC007047A0F16103052B01D857387047A0F161
:1047CC004103052B94BF37384FF0FF307047000082
:1047DC0010B500230370044B04461868FFF7A8FDBE
:1047EC0001232370204610BDD8E6032010B50378B2
:1047FC0004461BB1024B1868FFF7A2FD204610BD02
:10480C00D8E6032082B00346086849686A4603C2AA
:10481C006A4603CA18601846596002B0704708B55A
:10482C0082798B799A4206D1062201F07FFDB0FA8B
:10483C0080F0400908BD0020FCE74FF0FF33036017
:10484C0083800020704708B502460021016041605A
:10485C00FFF7F3FF9171104608BD000010B501235E
:10486C000361054B024603F1100153F8044B42F867
:10487C00044B8B42F9D110BD8E670B0010B50B4663
:10488C000446B1B1012A01F110020AD1014653F8D4
:10489C00040B41F8040B9342F9D101232361204608
:1048AC0010BD411E12F8010D01F8010F9A42F9D109
:1048BC00F3E7102201F072FDF1E738B50446154616
:1048CC001A46FFF7DBFFA581204638BD08B5026903
:1048DC0022B98089003818BF012008BD0249102276
:1048EC0001F024FDF6E700BFAE670B0000697047CE
:1048FC0038B50C4614220021054601F04FFD236902
:10490C001BB9A3892B80284638BD01232B74214663
:10491C002B4604F1100251F8040B43F8040B91429E
:10492C00F9D1F0E780897047704708B502690B69C7
:10493C009A4206D1102201F0F9FCB0FA80F040093D
:10494C0008BD0020FCE7000001232DE9F3410361C1
:10495C00344B0C460646024603F1100153F8040B87
:10496C0042F8040B8B42F9D144B32421204601F0C8
:10497C005DFD04284FF0000523D1ADF8045001AFC4
:10498C00A51C063415F8020CFFF70CFFB0F100085B
:10499C0012DB15F8010CFFF705FF00280CDB0235C4
:1049AC0040EA0810A54207F8010BEBD19DF8053041
:1049BC0033739DF8043073730023336102B0BDE888
:1049CC00F0814FF010082421204601F02FFDA84261
:1049DC0007D842460021304602B0BDE8F04101F054
:1049EC00DDBCB8F1000FE9D0605DFFF7DBFE03061C
:1049FC0015D4000108F1FF38C7B206F8087024215D
:104A0C00204601F013FD0135A84208D9605DFFF77F
:104A1C00C9FE40B20028A4BF384306F8080001358F
:104A2C00D1E700BF8E670B0013B504460191FFF769
:104A3C0015FF20460199FFF787FF204602B010BDF5
:104A4C0038B54FF6FF730025044643800E222946E5
:104A5C0005700571063001F0A1FC04F11400FFF79C
:104A6C00FDFE04F12800FFF7F9FE044904F13C00B7
:104A7C0001F00FF96565204638BD00BF76660B0066
:104A8C0010B5D0E9063203EBC2029342184606D0A9
:104A9C00046824888C4203F10803F6D110BD002071
:104AAC00FCE700002DE9F0410026066007462820AF
:104ABC000C46FFF7E8FA051E05F10C080FD0012390
:104ACC00C5E90133084B2B604046FFF7C7FE0FCCFE
:104ADC002E6285F8246046460FC623683360C7E90A
:104AEC0000853846BDE8F08150670B0070B5002595
:104AFC00056006463020FFF7C6FA044688B101234C
:104B0C00C0E90133094B03604FF6FF7383810E300C
:104B1C00FFF799FEC4E90655C4E90855C4E90A55DE
:104B2C00A57574600C343460304670BD6C670B0036
:104B3C0037B50D46044601A8FFF74AFE2A68D2F89D
:104B4C0002302360D2F80630636001A8FFF74EFEF6
:104B5C00204603B030BD30B5054687B00C4601A8E1
:104B6C00FFF736FE2A68236812881B889A420DD1FB
:104B7C00294602A8FFF7DCFF214604A8FFF7D8FF5F
:104B8C0004A902A8FFF74BFE044600B9002401A8B3
:104B9C00FFF72CFE204607B030BD000010B50446D0
:104BAC006420FFF770FA68B10023C0E90033C0E954
:104BBC000233C0E90433C0E906330362C362C36342
:104BCC00C364C365206020B90A4A0B490A20FFF769
:104BDC0057FC0020FFF75CFB20B1064A07490A206E
:104BEC00FFF74EFC216806480022FFF78FFB20469A
:104BFC0010BD00BF6D430B00DF650B001D660B0085
:104C0C0081510B0010B50A4C2378BFF35B8FDB0787
:104C1C000CD42046FFF73DFA40B10648FFF7BEFF23
:104C2C002046FFF73BFA044801F07AFB014810BD1F
:104C3C00D0E60320DCE603204D4E0B0030B50368B4
:104C4C00093B012B8DB004460D4611D8FFF7DAFF56
:104C5C00A1880068FFF714FF034658B92022CDE95C
:104C6C0004200B4A00920B4904AA3220FFF710FCD7
:104C7C000DB030BD6A6D002AFAD0D4E9032105F1DC
:104C8C004C00CDE90312AC6D04AA03A9A047EFE7D1
:104C9C005F660B00F6650B0019B90A460846FFF76C
:104CAC00FFBAD1E900010022F9E738B5141E4368B8
:104CBC00054602DB62189A4200DD5C1A2A6850181D
:104CCC0001191A44521A01F04FFB6A68121B6A60F0
:104CDC0038BD37B50A4604460D4601ABD0E9000194
:104CEC00FFF7ECFC024638B101992046FFF7DDFFD7
:104CFC0029462046FFF7EDFF03B030BD10B50C463A
:104D0C0029B90A460846BDE81040FFF7D1BA01217F
:104D1C002046FFF7DEFFD4E900010022F3E738B5A7
:104D2C0004461546FFF7B8FF00280ADB2946204643
:104D3C00FFF7E4FF002804DBBDE838400020FFF754
:104D4C00BFBA38BD38B500230446836008200D4631
:104D5C00FFF799F918B12B6803606B684360034B3C
:104D6C00E360034B2060A360204638BD09470B006D
:104D7C0021470B000B68036013B15A6801325A606B
:104D8C00704710B551F8043B044640F8043BFFF75C
:104D9C00F1FF23680BB9FFF7A7FC204610BD10B537
:104DAC0051F8043B044640F8043BFFF7E3FF204670
:104DBC0010BD10B551F8043B044640F8043BFFF716
:104DCC00D9FF204610BD10B50446006808B1FFF7A6
:104DDC00D5FC204610BD10B504460430FFF7F3FF98
:104DEC00204610BD70B5D0E90053044605EBC30650
:104DFC00AE4204D0281DFFF7E6FF0835F8E720681F
:104E0C00FFF7E2FB204670BD70B5D0E900530446B5
:104E1C0005EBC306AE4204D0281DFFF7D4FF0835BE
:104E2C00F8E72068FFF7D0FB204670BD10B50446AC
:104E3C002430FFF7E9FF04F11800FFF7D3FF10BD92
:104E4C0070B5174B1C6854B304F15400FFF782FC87
:104E5C0004F14400FFF77EFC04F13400FFF77AFC08
:104E6C0004F12400FFF776FCD4E9065305EBC306E6
:104E7C00AE4204D0281DFFF7A6FF0835F8E7A0695D
:104E8C00FFF7A2FB04F10C00FFF7BEFF2046FFF773
:104E9C00A9FF20466421BDE87040FFF7F8B870BD4B
:104EAC00DCE6032013B50023D1E90042C1E900334D
:104EBC000368009304604368426001A80193FFF704
:104ECC0082FF02B010BD826810B50AB901F012F968
:104EDC00BDE81040C368184738B50D1E044600687D
:104EEC0003DDFFF779FB18B938BDFFF76DFB002028
:104EFC002060A5600120F7E708B583688B4202DAD1
:104F0C00FFF7EAFF08BD0120FCE72DE9F0410F4651
:104F1C0041681D461944836899420446904612DC48
:104F2C00266862683E44D21B3146701901F01CFAA7
:104F3C002A464146304601F009FA63682B44636007
:104F4C000120BDE8F081FFF7C7FF0028E8D1F8E7A2
:104F5C00F8B50D46D0E901139942044616460BDA12
:104F6C00276862687919521B481C01F0FDF97E55BF
:104F7C00636801336360F8BD0131FFF7ADFF0028B2
:104F8C00EED1F8E70A464168FFF7E2BF2DE9F74397
:104F9C0004461D460F4601AB90460A46D0E9000177
:104FAC009DF82890FFF78AFBAE1C63680246B9F1A6
:104FBC00000F26D128B333441B1AFF2B09D80199B3
:104FCC002046FFF772FE616820463144FFF794FFDC
:104FDC0018B9606803B0BDE8F0836A1C0199D2B2BD
:104FEC002046FFF7B5FF01993A4601312046FFF7FD
:104FFC00AFFF01992B46424602312046FFF785FF51
:10500C00E7E7F118FF29E4D82046FFF775FF0028E1
:10501C00DFD0691CC9B22046FFF7B4FF39462046E1
:10502C00FFF7B0FF61682B464246E6E730B49DF8C7
:10503C0008501AB1029530BCFFF7A8BF406830BCCD
:10504C0070471FB50023C0E900338360062200932C
:10505C0001238DF80F2019460DF10F020446FFF7BE
:10506C00E5FF204604B010BD8842F8B504460D4655
:10507C00164614D9904213D2A2F10806751AA1F162
:10508C0008072C44B74218D01CB131462046FFF714
:10509C0090FE301DFFF797FE083E083CF2E70CD05F
:1050AC00B5420AD01CB129462046FFF782FE281DC6
:1050BC00FFF789FE08350834F2E7F8BDF7B504466A
:1050CC0046686846FFF775FED4E901739F4212DB10
:1050DC000137002F29DDF800FFF76EFA0546F0B115
:1050EC00D4E9001201EBC202FFF7BEFF2068FFF704
:1050FC006BFA2560A7602368626803EBC60603EBB6
:10510C00C202314606F10800FFF7AEFF1EB1694638
:10511C003046FFF74EFE636801336360012501A83A
:10512C00FFF751FE284603B0F0BD0025DEE7F8B5C9
:10513C00D0E9004305460F4604EBC306A64205D052
:10514C0039462046FFF707FD08B114B9F8BD0834FD
:10515C00F4E7201DFFF737FED5E9003204F1080112
:10516C0003EBC2022046FFF77FFF6B68013B6B60CD
:10517C00ECE700002DE9F04105468EB003A80C4683
:10518C00FFF726FB2E68F31E0D2B3CD8DFE813F03F
:10519C000E0053003B00D1003B003B003B003B00AA
:1051AC003B009B009B009B009B009B0004A8FFF70F
:1051BC009DFC049BAA891A80696804980831023006
:1051CC00FFF720FB04A906A8FFF7F3FD06A904F1DD
:1051DC001800FFF773FF054607A8FFF7F4FD20231F
:1051EC000693B5B95D4B5E49009332202B4606AA57
:1051FC000795FFF74DF9049B29461888FFF768F8C7
:10520C0005A8FFF7E0FD03A8FFF7F0FA0EB0BDE824
:10521C00F081544A009200235149079306AA0120B9
:10522C00FFF736F9E36A002BEAD004A904F1240055
:10523C00FFF749FEE4E7A9892046FFF721FC064663
:10524C000028E0D00568D5E906324FF6FF712980B9
:10525C0003EBC2029A4203D053F8080B4180F9E7E2
:10526C00D5E9037307EBC308B84504D0381DFFF725
:10527C00AAFD0837F8E700232B61D5E9067307EB85
:10528C00C308B84504D0381DFFF79DFD0837F8E773
:10529C000023EB61AB72E36B23B1314604F13400B4
:1052AC00FFF711FE00232022CDE906232E4A00929F
:1052BC002B4906AA0120FFF7EBF8314604F1180040
:1052CC00FFF735FF9FE7A9892046FFF7D9FB002898
:1052DC0099D0E36C002B96D000230D2EADF8163030
:1052EC0001D0102E17D1002369681A4606258DF8B7
:1052FC00153004918DF814200690DDE9040109ABFA
:10530C008DF81C60089583E80300236D06A904F151
:10531C004400984777E70F2E01BF2B7A696803F09A
:10532C00010208250FBFC3F340031A4619461D4658
:10533C00DDE7A9892046FFF7A3FB014600283FF4CF
:10534C0062AFE36D002B3FF45EAF6B68069306AA69
:10535C00236E04F15400984755E700BF77660B00A5
:10536C00F6650B009D660B00BA660B0013B50B4679
:10537C000246D0E900016C4684E8030093E8030080
:10538C0082E8030094E8030083E8030002B010BD38
:10539C0038B505460C46FFF7E9FFAB68A268AA6072
:1053AC00A360EB68E268EA60E36038BD70B5044660
:1053BC008CB00E4601921D46FFF742FB26710199F7
:1053CC0004F13C0000F079FC04F14C06CDB1109BCB
:1053DC00029502A904A80393FFF7B4FC002308A9C3
:1053EC0004A80A93FFF7D4FF314608A8FFF7D0FFB3
:1053FC0008A8FFF7AFF904A8FFF7ACF920460CB0EA
:10540C0070BD0695EAE700002DE9F04F87B01D4608
:10541C00DDE9104380468B46924612990393002295
:10542C00682002910492FEF72EFE061E06F10C096E
:10543C0018D001223746C6E901220299154A47F8CD
:10544C00202B039B00915A4651464846FFF7AEFF6E
:10545C000FCD0FC72B683B600FCC06F134050FC581
:10546C0023682B6004A94046CDE90496FFF71AFD8A
:10547C0005A8FFF7A8FCD8F800303BB9064A074945
:10548C000A2007B0BDE8F04FFEF7FABF07B0BDE841
:10549C00F08F00BF34670B006D430B00DF650B0012
:1054AC008842F8B504460D46164614D9904213D2DC
:1054BC00A2F10806751AA1F108072C44B74218D0BE
:1054CC001CB131462046FFF76AFC301DFFF77BFC10
:1054DC00083E083CF2E70CD0B5420AD01CB1294674
:1054EC002046FFF75CFC281DFFF76DFC08350834DF
:1054FC00F2E7F8BD70B50E1E054611DDF000FFF7A2
:10550C005BF8044658B1D5E9001201EBC202FFF773
:10551C00C7FF2868FFF758F82C60AE60012070BDFB
:10552C000024F6E773B5044645686846FFF737FC78
:10553C00D4E90113994210DA2368626803EBC505BC
:10554C0003EBC202294605F10800FFF7A9FF8DB94C
:10555C00636801336360012606E001312046FFF7E2
:10556C00C9FF06460028E7D101A8FFF72CFC3046FE
:10557C0002B070BD69462846FFF711FCE8E7884287
:10558C00F8B504460D46164614D9904213D2A2F132
:10559C000806751AA1F108072C44B74218D01CB1A3
:1055AC0031462046FFF7EDFB301DFFF70CFC083EA3
:1055BC00083CF2E70CD0B5420AD01CB12946204673
:1055CC00FFF7DFFB281DFFF7FEFB08350834F2E779
:1055DC00F8BD70B50E1E054611DDF000FEF7ECFFB0
:1055EC00044658B1D5E9001201EBC202FFF7C7FF20
:1055FC002868FEF7E9FF2C60AE60012070BD002426
:10560C00F6E773B5044645686846FFF7BAFBD4E97C
:10561C000113994210DA2368626803EBC50503EBAA
:10562C00C202294605F10800FFF7A9FF8DB963688E
:10563C0001336360012606E001312046FFF7C9FF04
:10564C0006460028E7D101A8FFF7BDFB304602B0A3
:10565C0070BD69462846FFF794FBE8E72DE9F04F4B
:10566C001746A1B080460AA80E46FFF7B1F83C6871
:10567C00237953B939464046FFF783FB0AA8FFF755
:10568C00B5F8404621B0BDE8F08F3368D3E9035339
:10569C0005EBC303039304F1280A04F1140B039BD9
:1056AC009D4221D0D5F80090584609F11401FFF71E
:1056BC003CF9B8B109F128015046FFF736F988B129
:1056CC002368D9F80020534033F47F430AD12022B9
:1056DC00CDE915235E4A009215AA5E493220FEF7E9
:1056EC00D7FEC7E70835DAE75046FFF7EFF860B9A1
:1056FC005949012215A815ADFFF7C0F80FCDD446B6
:10570C00ACE80F002B68CCF800303368D3E90053B9
:10571C0005EBC30B5D45A94651466ED055F8080BF9
:10572C00FFF703F90028F5D004F1140A5046FFF7EF
:10573C00CDF888B9494B48491A88013292B21A807F
:10574C0015A8012315ADFFF7B8F80FCDD446ACE87A
:10575C000F002B68CCF80030414B15932822002108
:10576C0016A800F01BFE514604A8FFF7C1F804ABC5
:10577C0018AA0DF1200C18685968154603C5083392
:10578C0063452A46F7D11868286023798DF858307C
:10579C00D9F800309B8AADF87430E36B1793314B1A
:1057AC000022A11D15A8CDE91E34FEF7A5FD002889
:1057BC007FF460AF01232370346839460C340DA894
:1057CC00FFF7DFFA20460DA9FFF71BFF04460EA8D2
:1057DC00FFF7F9FA002C7FF44DAF2023CDE90D34FF
:1057EC00214B00930DAA234677E739464046FFF735
:1057FC00C8FA0CA8FFF7E7FA40E70BA8FFF752F935
:10580C00514615A8FFF774F80B9A0023143215A90A
:10581C000120FEF767FD0028E7D135680BA90DA81C
:10582C00FFF7BDFA28460DA9FFF77CFE05460EA82A
:10583C00FFF7C9FA002DD8D032685368126803F10B
:10584C000053013B0CA802EBC309FFF7BCFA6BE752
:10585C00D9660B00F6650B009E670B00D4E603209F
:10586C0003002C00494C0B0004670B00024800237A
:10587C000360FEF755BD00BFD8E603200022406848
:10588C001146FEF771BE002240681146FEF77CBE41
:10589C0040680022FEF770BE4068002281F00101D2
:1058AC00FEF75ABE002340681A461946FEF74CBE56
:1058BC00002340681A461946FEF73EBE0022406897
:1058CC001146FEF731BE002240681146FEF71CBEA1
:1058DC00406800220221FEF71FBE002340681A46D2
:1058EC00FEF70ABE024B03225A60024A1A60704746
:1058FC00E0E60320C8670B00704710B5182104467A
:10590C00FEF7C5FB204610BDF0B5037D062B8DB010
:10591C000E4600F104074FF0000412D000F1080508
:10592C0015F8011D0A22304600F043F9AF42044439
:10593C0019D0002CF4D02E21304600F037F9044455
:10594C00EEE72F236A4639460A208DF80040FEF711
:10595C0017FD684600F062FD33680246DB68694655
:10596C0030469847044620460DB0F0BD10B5054BA7
:10597C000446112240F8043B002100F00FFD2046A4
:10598C0010BD00BF04680B000346074A10B543F86E
:10599C00042B01F1100251F8044B43F8044B9142D3
:1059AC00F9D10A781A7010BD04680B0010B59DF877
:1059BC00084044EA032343EA024242EA0161042319
:1059CC004160037510BD000007B5064B0360CB7832
:1059DC0000938B784A780978FFF7E8FF03B05DF8FD
:1059EC0004FB00BF04680B00014B024A1A607047AD
:1059FC00E8E6032010680B00002340681A46FEF707
:105A0C007BBD406800220221FEF786BD0022406863
:105A1C001146FEF779BD002240681146FEF784BDA1
:105A2C00002340681A461946FEF786BD00234068DD
:105A3C001A461946FEF788BD40680021FEF7ACBD3A
:105A4C0040680021FEF7B0BD4068002281F00101E2
:105A5C00FEF782BD40680022FEF78EBD0022406832
:105A6C001146FEF791BD002240681146FEF77CBD41
:105A7C002DE9F04395B014460D460746FFF776FF27
:105A8C0000211C220DA8009100F088FC40230C93EF
:105A9C0020466B460CAA0021FEF782FC0446002827
:105AAC004BD1024601216868FEF73EFD022180467B
:105ABC0022466868FEF738FD009E81462146002E7E
:105ACC003BD0002939D17368022B03D00A2B11D09B
:105ADC00F669F4E7B8F1000FFAD0716906A8043141
:105AEC0007ADFFF771FF0FCD3C1D0FC42B68237062
:105AFC004146EDE7B9F1000FEAD07469102201A814
:105B0C0000F04CFC06238DF8143001AD04F10803B1
:105B1C001834186859682A4603C20833A34215463C
:105B2C00F7D101A906A807ADFFF72EFF0FCD3C1D3D
:105B3C000FC42B6823704946CAE70098FEF728FC6F
:105B4C00384615B0BDE8F083024B034A1A600022B8
:105B5C005A607047ECE603201C680B00F8B506464B
:105B6C000D468F180024BD420CD0336815F8011B6C
:105B7C009B6830469847031E01DB1C44F3E7002C5E
:105B8C0008BF1C462046F8BD13B50446084659B15B
:105B9C00019100F043FC23680199DB680246204622
:105BAC0002B0BDE81040184702B010BD03689B68F6
:105BBC00184730B58BB00023012A8DF8243098BFDC
:105BCC000A2209AC0D46B1FBF2F101FB125303F0B2
:105BDC00FF03092B94BF30333733DBB2AA4204F8EE
:105BEC00013DEFD92146FFF7CFFF0BB030BD0000D0
:105BFC00014B00229A607047F4E6032010B504466E
:105C0C000068FEF7E1FC204610BD10B504460068A4
:105C1C0008B1FEF7D9FC0023C4E90133236010BDA1
:105C2C0038B504460D4600680131FEF7D5FC10B1BD
:105C3C00C4E90005012038BD10B50368044623B142
:105C4C0043688B4201D3012010BD2046FFF7E8FFCB
:105C5C000028F9D0A368002BF5D122681370F2E765
:105C6C0037B50D46114601920446FFF7E5FF019A40
:105C7C0028B92046FFF7C9FF204603B030BDA2600B
:105C8C002946206800F062FB2268A3680021D154E9
:105C9C00F2E7002313B5C0E90033044683600373B5
:105CAC0041B10846019100F0B9FB0199024620462A
:105CBC00FFF7D6FF204602B010BD13B5044659B10C
:105CCC000846019100F0AAFB019902462046FFF715
:105CDC00C7FF204602B010BDFFF797FFF9E70000A1
:105CEC00054B02221A60054B054A9A600020C3E955
:105CFC000000FEF7D5BB00BF10E7032004E703202C
:105D0C000000FFFF024B1A68024B1A60704700BF7D
:105D1C0038E6032014E7032070474174704708B538
:105D2C00007CFEF76DFB20EAE07008BD08B5007C36
:105D3C00FEF746FB20EAE07008BD08B5007CFEF7D4
:105D4C004FFB40EAE07008BD08B5007CFEF740FB55
:105D5C0040EAE07008BD007CFEF74ABB37B5457CD5
:105D6C0004462DB1207C03B0BDE83040FEF720BBCB
:105D7C00007C0191FEF744FB00280199F2DC2846D7
:105D8C0003B030BD10B514210446FEF780F920464F
:105D9C0010BD000010B54FF47A7304460846114646
:105DAC000022C4E90123044B236001232074637493
:105DBC00FEF72EFB204610BD74680B004174704733
:105DCC007047704708B50021007CFEF741FB40EAA4
:105DDC00E07008BD08B50121007CFEF739FB40EAF4
:105DEC00E07008BD08B5007CFEF72AFB20EAE070E5
:105DFC0008BD08B5007CFEF71BFB20EAE07008BD6F
:105E0C0013B50446007C0191FEF71AFB002801999A
:105E1C0001DC607C20B1207CFEF722FB20EAE070E4
:105E2C0002B010BD007CFEF723BB10B51421044654
:105E3C00FEF72DF9204610BD10B54FF47A730446C9
:105E4C0008460021C4E90113044B2360012320748C
:105E5C0063741146FEF7E4FA204610BDA4680B00EB
:105E6C0010B514220446002100F098FA204610BD0B
:105E7C0010B50F4C88B003A8FFF7F2FF2178BFF3E1
:105E8C005B8F11F001010FD120460191FEF701F952
:105E9C00019948B103AA0748FFF7CEFF2046FEF749
:105EAC00FDF8054800F03CFA024808B010BD00BFF0
:105EBC0018E703201CE70320CD5D0B00002240688F
:105ECC001146FEF731BB002240681146FEF74CBB71
:105EDC00002240681146FEF757BB40680022FEF7CF
:105EEC004BBB4068002281F00101FEF735BB00235B
:105EFC0040681A461946FEF727BB002340681A462D
:105F0C001946FEF719BB002240681146FEF7FCBA91
:105F1C00406800220221FEF7FFBA002340681A46AF
:105F2C00FEF7EABA024B04225A60024A1A60704722
:105F3C0030E70320D4680B00014B1860704700BF9A
:105F4C003CE6032008B50B4B43B1FFF791FF036808
:105F5C001B699847002801DDAFF30080064B43B165
:105F6C0000F0A2F803681B699847002801DDAFF325
:105F7C00008008BD000000000000000008B5FFF71D
:105F8C00E1FFFEF7F5F9014B186008BD40E703206F
:105F9C000548064A064908B5121A00F0D7F9054B10
:105FAC00054A1A6008BD00BF00F4032004F4032066
:105FBC00C46A0B0000F403201E1C279A07B50023AB
:105FCC0000931A466FF07701FEF784FA03B05DF880
:105FDC0004FB000007B543880A2B08D0502B0BD1CB
:105FEC00094B1B684BB103B05DF804EB1847FFF786
:105FFC00E5FF03B05DF804FB002300931A466FF035
:10600C007701FEF767FAF4E73CE7032010B5124876
:10601C000021FEF7F9FA114B1A68114B9A42114BF9
:10602C000CBF012200221A7001D0FFF7B1FFFEF75E
:10603C008FF9044600F0BAF90B4B13B12046AFF3BD
:10604C00008000210848FEF74FFABDE810400748D1
:10605C000021FEF735BA00BF455F0B0000F40320AA
:10606C001E1C279A38E7032000000000E15F0B009C
:10607C007047000038B5044614252A46002100F06C
:10608C008DF925804025074925812846258200F079
:10609C002FF804496060284600F02AF8E06020469A
:1060AC0038BD00BF08690B0030B50E4D2978BFF321
:1060BC005B8F11F0010487B011D12846FDF7E9FF81
:1060CC0068B101A8FFF7D6FF01AA21460648FFF7E1
:1060DC0061FE2846FDF7E2FF044800F021F9024872
:1060EC0007B030BD44E7032048E703207D600B0078
:1060FC00FDF7CBBF08B5FEF777FA0000014900F0B9
:10610C00F9B800BF24690B007FB500241023CDE93A
:10611C000234036815469E6912686B46CDE900444B
:10612C00B0479DF8043003F00603062B03BF009B19
:10613C002B600120204604B070BD0098904214BF23
:10614C00012006207047000010B5034B0360044685
:10615C0000F0CDF8204610BD64690B0010B5044664
:10616C00FFF7F2FF20460821FDF791FF204610BDF6
:10617C002DE9F0411F46DDE90834DDF8188098451B
:10618C000646154607D1079900F0B4F818B16571A9
:10619C000020BDE8F0813946304600F0ABF800280D
:1061AC00F6D00123C4F800802571A371F0E738B54F
:1061BC0015461C4600F09EF820B10823E360062328
:1061CC002560237138BD73B505460C4601921E46F9
:1061DC0000F090F850B9032E08D82368019A5B6937
:1061EC002946204602B0BDE87040184702B070BD89
:1061FC0010B5034B03600446FFF7A6FF204610BD05
:10620C00C4690B0010B50446FFF7F2FF20460C21C1
:10621C00FDF73DFF204610BDF7B5089F9742054698
:10622C000E4614460AD0A86802680897156A3146CB
:10623C002246AC4603B0BDE8F040604719460193D6
:10624C0000F058F8019B0028EDD0062003B0F0BDFB
:10625C002DE9F14F0D461946DDE90A4BDDE90CA697
:10626C0081461746984600F045F890B1002D3460F1
:10627C00377109DB61198A450CBF06210121B17107
:10628C00002001B0BDE8F08F0235F9D10123B371C4
:10629C00F6E7544506D15946484600F02BF808B1AC
:1062AC007771EDE7D9F808000368CDE90CA6CDE9C4
:1062BC000A4BDC693A4643462946A44601B0BDE880
:1062CC00F04F60472DE9F04107460C4615461E4637
:1062DC00FFF76DFF48B9B86803689F692A463346D3
:1062EC002146BC46BDE8F0416047BDE8F0817047EF
:1062FC0000207047814208B50ED0406803782A2BE5
:10630C000CD049680B782A2B08BF013100F07CF8BF
:10631C00B0FA80F0400908BD0120FCE70020FAE744
:10632C00002301461A46184600F08CB810B5013906
:10633C000244904201D1002005E0037811F8014F8E
:10634C00A34201D0181B10BD0130F2E70A44914260
:10635C0000F1FF3300D1704710B511F8014B03F871
:10636C00014F9142F9D110BD884210B501EB0204E6
:10637C0002D98442234607D8431EA14208D011F803
:10638C00012B03F8012FF8E7024401468A4200D1A1
:10639C0010BD13F8014D02F8014DF7E70244034616
:1063AC00934200D1704703F8011BF9E738B5104B45
:1063BC001D68AB6B0446B3B91820FEF7FDF8024616
:1063CC00A86320B90B4B0C484221FEF715F90B4979
:1063DC000B4BC0E900130B4B83600B238381002113
:1063EC000120C2E90401AB6B00221C615A6138BD6B
:1063FC003CE60320FD690B00146A0B000E33CDAB99
:10640C0034126DE6ECDE050010F8012B11F8013B9F
:10641C00012A28BF9A42F7D0D01A7047034613F8C6
:10642C00012B002AFBD1181A0138704710B502460F
:10643C0001448A42134603D01C780132002CF8D157
:10644C00181A10BD2DE9F843DFF8B8800646D8F8C5
:10645C0000001F460D46914600F056F8254B1C686F
:10646C0034B9254C1C60254B13B11B68C4F888301B
:10647C0063681F2B07DDD8F8000000F047F84FF0D9
:10648C00FF30BDE8F8834EB3D4F8880088B91C4BB4
:10649C0023B9D8F8000000F038F8F0E74FF4847016
:1064AC00FEF78AF80028F4D00023C0E94033C4F882
:1064BC008800636840F8239001229A4000EB830126
:1064CC00D0F800311343C0F80031022EC1F88070AF
:1064DC0002BFD0F804311343C0F804316368D8F814
:1064EC0000005A1C0233626044F8235000F00EF88E
:1064FC000020C6E7E8E703205CE70320000000006B
:10650C00C5450B00A0E6032070477047704700009C
:10651C001D400B0059400B0081400B0085400B00C7
:10652C000000000035376635656433372D643465FB
:10653C00392D346237372D383931372D6335663480
:10654C0063353565353164390066646366346133AF
:10655C00662D336665642D346564322D38346536AA
:10656C002D30346262623961653034643400757088
:10657C0074696D650063633937633230632D353868
:10658C0032322D343830302D616465352D3166361C
:10659C0036316432313333656500737472656E67FE
:1065AC0074680064326232366266332D39373932A0
:1065BC002D343266632D396538612D3431663631B0
:1065CC003037646630346300667265654D656D6F97
:1065DC00727900417373657274696F6E4661696C90
:1065EC007572652066616C736500776972696E6798
:1065FC002E626C6500537461727420646973636FEE
:10660C00766572696E672073657276696365732E41
:10661C0000417373657274696F6E4661696C757253
:10662C00652068616C5F626C655F737461636B5F3E
:10663C00696E6974286E756C6C70747229203D3D9E
:10664C002053595354454D5F4552524F525F4E4F54
:10665C004E450050656572206465766963652069F6
:10666C0073206D697373696E6721004661696C658F
:10667C006420746F20617070656E64207065657243
:10668C002043656E7472616C206465766963652E57
:10669C0000436F6E6E656374656420627920436598
:1066AC006E7472616C206465766963652E00446952
:1066BC0073636F6E6E6563746564206279207265B6
:1066CC006D6F7465206465766963652E0044757022
:1066DC006C6963617465642063686172616374657D
:1066EC007269737469632063616E6E6F7420626586
:1066FC002061646465642E004661696C6564207475
:10670C006F20617070656E64206C6F63616C2063C8
:10671C00686172616374657269737469632E0000D9
:10672C0000000000000000002B460B008D460B0003
:10673C0073470B00B7460B002D460B000000000002
:10674C000000000027460B009B460B0029460B005F
:10675C00BD460B004D460B00000000000000000081
:10676C0025460B00A9460B00394E0B00C3460B0007
:10677C006D460B000000000000000000000000004F
:10678C000000FB349B5F80000080001000000000C4
:10679C0000007BE327747BF815ACDD49A9130000DE
:1067AC0072F5FB349B5F800000800010000000003D
:1067BC00000000000000000000000000E7580B0083
:1067CC00DD580B00D3580B00C9580B00BD580B00FB
:1067DC00B1580B00455A0B004D5A0B00A5580B0035
:1067EC009D580B0093580B0089580B007D5A0B00D9
:1067FC00000000000000000015590B0005590B00AB
:10680C0007590B00617070000000000000000000D0
:10681C00055A0B000F5A0B00195A0B00235A0B0088
:10682C002D5A0B00395A0B00455A0B004D5A0B00D0
:10683C00555A0B00615A0B00695A0B00735A0B0026
:10684C007D5A0B0025592D256D2D25645425483A6C
:10685C00254D3A2553257A0061736374696D650083
:10686C000000000000000000255D0B00915D0B0096
:10687C00695D0B00695B0B00395D0B00555D0B000E
:10688C00475D0B00635D0B00275D0B002B5D0B0060
:10689C000000000000000000CF5D0B00375E0B0015
:1068AC000D5E0B00695B0B00FF5D0B00D15D0B00F7
:1068BC00E15D0B00315E0B00F15D0B00C95D0B005F
:1068CC000000000000000000275F0B001D5F0B00A4
:1068DC00135F0B00C95E0B00075F0B00FB5E0B0028
:1068EC00455A0B004D5A0B00EF5E0B00E75E0B0098
:1068FC00DD5E0B00D35E0B007D5A0B000053743130
:10690C00395F53705F6D616B655F7368617265644D
:10691C005F7461670000000064690B0009690B007B
:10692C00C4690B0038690B00E8690B004E31305F0D
:10693C005F637878616269763131375F5F636C6170
:10694C0073735F747970655F696E666F45000000E4
:10695C00000000002C690B0055610B0069610B00F5
:10696C00FD620B00FD620B00D3610B0015610B0087
:10697C00BB610B007D610B0047610B00C4690B0010
:10698C0094690B002C690B004E31305F5F63787893
:10699C00616269763132305F5F73695F636C61731A
:1069AC00735F747970655F696E666F4500000000F7
:1069BC000000000088690B00FD610B0011620B00E8
:1069CC00FD620B00FD620B00D3610B0015610B0027
:1069DC00D1620B005D620B0025620B0064690B0039
:1069EC00F0690B00537439747970655F696E666F6A
:1069FC00005245454E54206D616C6C6F632073756D
:106A0C0063636565646564002F746D702F6A656ED1
:106A1C006B696E732D4743432D31302D7069706552
:106A2C006C696E652D34385F32303230313132342E
:106A3C005F313630363138303633392F7372632F3D
:106A4C006E65776C69622F6E65776C69622F6C6905
:106A5C0062632F7374646C69622F72616E642E634F
:106A6C0000000000BD410B0079580B00F1580B00E1
:106A7C00F5590B00555B0B00FD5B0B00ED5C0B003F
:106A8C00115D0B00315F0B000000000000000000E6
:046A9C0000000000F6
:106AA000040000001400000003000000474E5500E1
:106AB000F6267AD15D716B1FA911C7ACEF982DAC8A
:046AC0008F630C14C0
:046AC40000000000CE
:106AC80064680B0040E6032000000000000000009E
:106AD80000000000000000000000000000000000AE
:106AE800000000000000000000000000000000009E
:106AF800000000000000000000000000000000008E
:106B0800000000000000000000000000000000007D
:106B1800000000000000000000000000000000006D
:0C6B28000000000000000000ECE703206B
:106B3400FFFFFFFF00000102030405060708090A1E
:106B44000B0C0D0E0F101112131415161718191A19
:086B54001B1C1D1E1F20280060
:046B5C007856341221
:04000003B000401CED
:00000001FF
